:020000040800F2
:10000000804600204501000883110008A50C000867
:10001000811100084F020008E326000800000000DC
:10002000000000000000000000000000CD1C0008DF
:10003000690A00080000000051130008712300083D
:100040005F0100085F0100085F0100085F01000810
:100050005F0100085F0100085F0100085F01000800
:100060005F0100085F0100085F0100085F010008F0
:100070005F0100085F0100085F0100085F010008E0
:100080005F0100085F0100085F010008BF2500084C
:10009000752600085F0100085F0100085F01000885
:1000A0005F0100085F0100085F0100085F010008B0
:1000B0005F0100085F0100085F0100085F010008A0
:1000C0005F0100085F0100085F0100085F01000890
:1000D0005F0100085F0100085F0100085F01000880
:1000E0005F0100085F0100085F0100085F01000870
:1000F0005F0100085F0100085F0100085F01000860
:100100005F0100085F0100085F0100085F0100084F
:100110005F0100085F0100085F0100085F0100083F
:100120005F0100085F0100085F0100085F0100082F
:10013000DFF80CD000F02EF80048004795290008A1
:10014000804600200648804706480047FEE7FEE755
:10015000FEE7FEE7FEE7FEE7FEE7FEE7FEE7FEE777
:10016000752300083101000830B50B460146002018
:100170002022012409E021FA02F59D4205D303FA69
:1001800002F5491B04FA02F52844151EA2F10102EA
:10019000F1DC30BD064C074D06E0E06840F001039D
:1001A00094E8070098471034AC42F6D3FFF7C4FF39
:1001B000A02A0008C02A000870B58C1810F8015B4E
:1001C00015F0070301D110F8013B2A1106D110F8F0
:1001D000012B03E010F8016B01F8016B5B1EF9D1F4
:1001E0002B0705D40023521E0DD401F8013BFAE77A
:1001F00010F8013BCB1A921C03E013F8015B01F8E5
:10020000015B521EF9D5A142D8D3002070BD10B5B4
:1002100000280FD04FF48054012811D0022815D1A6
:100220001021012001F0FCFD2146BDE81040022014
:1002300001F0ACBD1021BDE81040012001F0F0BD7F
:100240002146BDE81040022001F0A0BD10BDFEE730
:10025000C1B2000A40EA01207047000070B50020DA
:100260008F4B904C5988A4F1400202E0155C255454
:10027000401C8842FAD38B48626820304260A268F2
:1002800082601F290FD00220FFF7C1FF00202060ED
:10029000607B1A22052101F063FEBDE87040002159
:1002A000012001F03DBEE17B282901D02A290FD190
:1002B000207D627CE57C40EA0260A27C120442EA76
:1002C000052210435860E07DA27D40EA022098603C
:1002D000754A206890427DD1744A607B12689042D2
:1002E00003D8A27B0AB1102A0DD90220FFF78FFF95
:1002F000607B2422052101F033FEBDE8704000211F
:10030000012001F00DBE252968D01ADC15297CD00A
:100310000DDC08297AD005DCF1B303293FD004298C
:100320002DD177E00A2972D0122928D13BE01A3961
:100330000A2924D2DFE801F0433B237A3F23232319
:10034000234B8A297DD00EDC552967D006DC28296D
:100350004CD02A2950D02F2911D153E05A2932D01C
:1003600088290CD172E0A82968D004DC8F2969D0D3
:100370009E2904D16EE0AA2974D0AF297AD0022038
:10038000FFF745FF607B2022052101F0E9FDBDE874
:1003900070400021012000E024E001F0C1BDBDE873
:1003A000704001F02BBABDE8704001F035B9BDE8EE
:1003B000704001F02FBABDE8704001F02BBABDE8E3
:1003C000704001F069B9BDE8704001F05FB9BDE867
:1003D000704001E056E001E001F0DAB9BDE870409C
:1003E00001F09CB9BDE8704001F018BAD3E90112E0
:1003F000BDE8704001F056B9D3E90112BDE8704084
:1004000001F046BABDE8704002E00BE012E025E0E2
:1004100001F020BABDE8704001F0E6B8BDE87040D8
:1004200001F014B9BDE8704001F010B9BDE87040AA
:1004300001F00CB9BDE8704001F008B9BDE87040AA
:1004400002E013E01AE00DE001F000B9BDE87040F1
:1004500001F0FCB8BDE8704001F0F8B8BDE87040AC
:1004600001F0F4B8BDE8704001F0F0B8BDE87040AC
:1004700001F0ECB8BDE8704001F0E8B8BDE87040AC
:1004800001F0E4B80220FFF7C2FE607B20220521C4
:1004900001F066FDBDE870400021012001F040BD83
:1004A000F0000020504200205553424354010020E8
:1004B0002DE9F041194E1A4F1A4C1B4D28E047F612
:1004C000FF702060288800F00F01317007EB810079
:1004D000D0F8002C92B213040CD5D0F8002C40F6C2
:1004E0008F731A40C0F8002C1048491E50F82100A4
:1004F00080470DE012060BD5D0F8002C48F60F739C
:100500001A40C0F8002C0A48491E50F821008047C4
:10051000206828800004D2D4BDE8F08118000020B3
:1005200000500040445C0040500100203401002095
:10053000180100202DE9F84F002000904BF6BF77FE
:1005400048F28008614E624D40F68F7ADFF8849160
:1005500048F60F7B604C2CE0088800F00F0089F80B
:10056000000078B304EB8001D1F8002C0092BDF8B4
:10057000002012040AD5D1F8002C02EA0A02C1F8C0
:10058000002C5649401E51F820008047BDF800005D
:1005900000060ED599F8000004EB8001D1F8002C7C
:1005A00002EA0B02C1F8002C4D49401E51F8200010
:1005B00080474648443000684A4908800004CBD44C
:1005C000BDE8F88FFFE730682880288800F0300009
:1005D0006880288800F4405028803068384080F4D3
:1005E000005080F0200040EA080030600888C00613
:1005F00020D4306800EA0B00306000F055FB306812
:1006000038402988C90401D580F48050298889049C
:1006100001D580F400506988C90601D580F010002A
:100620006988890601D580F0200080B240EA080080
:100630003060C5E730680090BDF80000000520D5A7
:10064000306800EA0A00306001F09CFC30683840F5
:100650002988C90401D580F480502988890401D5EE
:1006600080F400506988C90601D580F010006988BF
:10067000890601D580F0200080B240EA0800306091
:100680009EE7BDF80000000493D5306800EA0A0038
:10069000306000F025FE306838402988C90401D553
:1006A00080F480502988890401D580F4005069883D
:1006B000C90601D580F010006988890601D580F04F
:1006C000200080B240EA0800306079E7005C00401A
:1006D0002A000020180000200050004034010020B3
:1006E0001801002050010020810008480844D0F87B
:1006F000001C490409D5D0F8001C48F68F7211403F
:100700004CF280021143C0F8001C704700500040BA
:10071000810008480844D0F8001C490609D5D0F8E3
:10072000001C48F68F72114048F2C0021143C0F815
:10073000001C704700500040810006480844D0F873
:10074000001C48F68F62114048F280021143C0F845
:10075000001C7047005000402DE9F047DFF89880FA
:10076000D8F8001001F1100528880E7A234F4FF0B9
:100770003009002801D1042E04D0AC88A04215D83D
:10078000042614E01E480178012903D00726102012
:1007900038802BE01B4A002112681B4B92B2921C3E
:1007A00043F81210A7F8009001701FE0022684425F
:1007B00000D90446A968A0B288478246002000F00C
:1007C00039FA0146A2B2504601F08CFFA1B20020D6
:1007D00001F018FB2888001B288068882044688066
:1007E000A7F8009009494FF440500880D8F800005D
:1007F0000672BDE8F08700001C0000202C000020DD
:1008000014000020505C0040006000402A000020DE
:100810002DE9F041214E346810342088A168002968
:1008200015D0A0B1A588854200D90546A8B2884751
:1008300007462088401B2080608828446080002074
:1008400000F0D8F90146AAB2384600F06FFD2088C2
:10085000134F302538B1134928020880002108467B
:1008600001F0D0FA3D802088A188884204D3316805
:1008700003200872BDE8F08118B1316805200872C4
:10088000F8E7316806200872074800210068074A27
:1008900080B2801C42F810103D80EBE71C00002065
:1008A0002C0000202A000020505C00400060004026
:1008B0002DE9F843634E306842780024624D062AE1
:1008C000296801D08AB117E00278520669D1807890
:1008D000012804D0022804D0032804D061E0CC69A8
:1008E0005FE00C6A5DE04C6A5BE0438823B9C38833
:1008F000022B01D1037923B1082A39D00A2A3CD02E
:100900004FE00278530601D1838833B102F07F02B1
:10091000012A04D0022A0CD043E04C4C41E08A6901
:1009200040790021904710BB3068807AF8B1474C7D
:1009300037E0417901F00F0001F070020B064449E5
:1009400007D501EB8001D1F8001CC1F301110901A9
:1009500006E001EB8001D1F8001CC1F3013109036D
:100960003C4B1B7883421CD90AB901B1374C18E0C3
:100970000078400615D1384C13E0027802F07F026F
:10098000012A0ED1827A62B1428852B9027942B903
:10099000C288012A05D18A6940790021904700B9AF
:1009A0002E4C09274FF000083CB13068A0F81280A7
:1009B00084610020A047002006E0296830680969AA
:1009C00040788847032816D031680A8AA2F57F4309
:1009D000FF3B0DD0022811D082B1087800062AD53D
:1009E000C8880090009882420CD9009808821AE0CA
:1009F0000F72BDE8F88330680772FAE74FF008001D
:100A00000872F6E70FD22868154B90F82C00824246
:100A100002D283F8008006E0B2FBF0F400FB142061
:100A200008B901201870286890F82C008882BDE869
:100A3000F843FFF791BE032008720A4900030880BB
:100A4000D7E700001C0000202000002079210008CA
:100A500000500040C0010020092100085121000879
:100A6000140000202A000020704700F0FDBA00F0BA
:100A70002BBB000070B586B001218D03284600F025
:100A80009FFC01214CF2080000F0A8FCAC10ADF86E
:100A9000004003228DF8022010228DF80320264EFC
:100AA0006946304600F04EF86200ADF8002018228A
:100AB0008DF803206946304600F044F8ADF8005048
:100AC0006946304600F03EF8E000ADF800006946A7
:100AD000304600F037F82146304600F088F8002014
:100AE000ADF804004FF48271ADF80610ADF80800BF
:100AF0000221ADF80A100121ADF80C104902ADF841
:100B00000E10ADF81000ADF812000720ADF814007B
:100B10000A4C01A9204601F09CF80121204600F072
:100B2000EBFE00F0DBFF0649884202D1002006B050
:100B300070BD0120FBE70000000C014000380040C0
:100B40001840EF002DE9F0410022CC7804F00F03AB
:100B5000E40601D58C7823430C784FF00F0714F08E
:100B6000FF0F4FF0010C1CD005680CFA02F40E8840
:100B70002640A64211D1960007FA06F825EA080594
:100B800003FA06F848EA0505CE78282E02D0482E4A
:100B900002D002E0446100E00461521C082AE4D360
:100BA00005600A88FF2A1ED94568002202F108065E
:100BB0000CFA06F40E882640A64210D1960007FAD9
:100BC00006F825EA080503FA06F848EA0505CE788E
:100BD000282E00D14461CE78482E00D10461521CE9
:100BE000082AE3D34560BDE8F081416170470161A7
:100BF000704700000549096889B201EBC00004494B
:100C0000001D31F8100080B270470000505C0040B9
:100C1000006000400549096889B201EBC000044941
:100C2000801D31F81000C0F309007047505C00408F
:100C3000006000400449096889B201EBC000034923
:100C400031F8100080B27047505C004000600040F6
:100C5000002801D003487047034901200968088231
:100C600000207047540100201C00002010B50B48E4
:100C70000168001D0468001D0068084400280BD0AE
:100C80000822074900F040F8054920460422BDE843
:100C90001040103100F038B810BD0000E8F7FF1F19
:100CA000FE000020FEE7000010B5144C2068017A19
:100CB00002290AD0042908D006290BD0082021686F
:100CC0000872BDE8104000F045BBFFF745FD206805
:100CD000007AF4E74178052909D10178490606D15F
:100CE000C07800F0FDFF06480068006A80470548AC
:100CF0000068806880470820E1E700001C000020B1
:100D00002400002020000020F0B500230A25302612
:100D10003727002412E0B5EB107F04D906EB107CD6
:100D200001F813C003E007EB107C01F813C00001C9
:100D300001EB430C8CF801405B1CDBB29342EAD31D
:100D4000F0BD000038B50121082000F047FB20204D
:100D5000ADF8000010208DF8030003208DF802008C
:100D60000F4C69462046FFF7EDFE0121ADF800105B
:100D700069462046FFF7E6FE0221ADF800106946FD
:100D80002046FFF7DFFE20212046FFF730FF01213C
:100D90002046FFF72CFF02212046FFF728FF38BD31
:100DA000000C0140002000F01FB8000010B5002822
:100DB00013D1FFF75FFE00F091FE094988420CD184
:100DC00008494FF48050086008314FF4A060086073
:100DD000000310390860002010BD012010BD000084
:100DE0001840EF003C00002010B50024002801D07E
:100DF000012010BDFFF73EFE00F070FE0146054ADF
:100E00000548914202D10021016001E00121016009
:100E1000204610BD1840EF003000002010B51446E9
:100E20001A46002801D0012010BD03480144204685
:100E300000F06EFD002010BD0020300070B515469A
:100E40001E46002801D0012070BD06480C1820461F
:100E500000F06AFE32462146284600F085FD00205B
:100E600070BD00000020300000B50D4909680A7807
:100E700002F07F02212A08D1FE2806D1488820B935
:100E8000888810B9C888012801D0022000BD054813
:100E9000886100204882FFF7DBFE002000BD0000D3
:100EA0001C000020510C0008014901F041B900006C
:100EB00060010020014901F03BB900005801002009
:100EC00005490968C978052901D900207047034AF6
:100ED00002EBC10101F02CB91C0000209801002098
:100EE000002901D00220704708B10220704700207D
:100EF0007047000010B50F4909680A7802F07F02B8
:100F0000212A07D1FF2805D1488818B9888808B94F
:100F1000C88808B1022010BD0120FFF7F9FB0220AC
:100F2000FFF7E2FB05490448086005490020087006
:100F300010BD00001C0000205553424350420020C9
:100F4000F000002070B52F48002585722F492E48EB
:100F50000968C0794872002000F0BAFE4FF40071B1
:100F6000002000F075FF2021002000F059FF18211B
:100F7000002000F0D9FE264C0020217800F0E4FE8D
:100F80005821002000F02EFF0020FFF7D5FB0020A5
:100F900000F014FF0021012000F05AFF98210120E9
:100FA00000F020FF2021012000F03AFF0021012065
:100FB00000F0ECFE0021022000F04AFFD8210220C0
:100FC00000F0B2FE2178022000F0BEFE4FF4405146
:100FD000022000F0DBFE0021022000F021FF21783A
:100FE000002000F0B1FE002000F0E8FE002000F03C
:100FF00077FE08490120086008490748086008484A
:10100000057070BDF40100201E2A00081C0000209D
:1010100094010020E8010020555342435042002033
:10102000F00000207047704710B5FFF71FFE05481D
:1010300000240068847200F0ADF901F01DFB024845
:10104000046010BD1C000020E80100200448054990
:101050000068884202D00220FFF7D9B8704700002C
:10106000504200205553424310B5154B18780228C2
:101070000FD04FF44054032816D0042801D005287F
:101080001CD1002018702146BDE81040022000F05D
:101090007DBE0C48C17B282910D1D3E90112407BC9
:1010A000BDE8104000F0FEBA0121002000F038FF3A
:1010B0002146BDE81040022000F068BE10BD0000CF
:1010C000F00000205042002070B51B4CE57BA4F1DD
:1010D0004001022001F0E0FA18494880087878B110
:1010E000012811D00220FFF792F8607B242205210D
:1010F00000F036FFBDE870400021022000F010BF74
:10110000BDE87040FFF7AAB82A2D0DD00120FFF7E7
:101110007EF8607B2422052100F022FFBDE87040AC
:101120000021022000F0FCBE8A68607B4968BDE8AF
:10113000704000F0ADBB000050420020F0000020E5
:1011400010B509480068807A00280BD007490520AF
:1011500008600120FFF7DCFA0220FFF7C5FA044916
:101160000020087010BD00001C000020E8010020D5
:10117000F00000200149042008607047E8010020C9
:10118000FEE770477047000070B50F23C278012654
:101190000178002A1ED0144A126802F4E062C2F5F7
:1011A000E062120AC2F10404D3404578A540827877
:1011B0001A402A43120101F1E02181F8002400784D
:1011C00000F01F018E404009800000F1E020C0F8CF
:1011D000006170BD01F01F0086404809800000F1E9
:1011E000E020C0F8806170BD0CED00E002490843CA
:1011F00002490860704700000000FA050CED00E0AD
:1012000070B50220314D29684C780A78530606D013
:1012100002F07F0101292ED0022931D03AE0092CB9
:1012200006D0052C07D0032C12D0012C18D031E0A9
:1012300001F000F82EE0C8787F2805D8887818B922
:10124000888808B9887A08B108203CE0002021E0AD
:10125000CA78012A1ED18988E1B901F007F819E09E
:10126000CA78012A16D18A88A2B9497A890611D585
:1012700000F0C2FE0EE00B2C0CD101F053F809E097
:10128000012C02D0032C03D004E000F0B5FE01E0F5
:1012900000F0FEFF30B10E49E0B2096849698847A5
:1012A000032802D018B108200DE009200BE0062029
:1012B000084900220968084B89B2891C43F81120AB
:1012C000064A302111802968087270BD1C00002078
:1012D00020000020505C0040006000402C000020F6
:1012E00010B5104C2068007A02280ED004280CD0CB
:1012F00003280CD005280AD007280DD00820216823
:101300000872BDE8104000F025B80820F7E7FFF7A5
:101310007FFA2068007AF2E703480068C0688047D7
:101320000820ECE71C00002020000020521C52087E
:10133000064B03EB4101002A06D031F8043B20F8AC
:10134000023B521E002AF8D17047000000600040A6
:101350007047000010B50B4890F82C10002000F0EA
:10136000F3FC09480068007A082805D1074A4102C1
:101370001180074A10211180092801D0002010BDDA
:10138000012010BD680100201C0000202A00002060
:101390002C00002010B5012001F0E6F801210648DC
:1013A0000160064A00210160031D19604FF4E051FD
:1013B00011800160002010BD405C0040280000202A
:1013C000054A002903D0D1690143D1617047D16931
:1013D0008143D1617047000000100240054A002996
:1013E00003D0916901439161704791698143916193
:1013F000704700000010024010B5264A516801F005
:101400000C01254B002927D0042927D0082927D0F3
:101410000360516801F0F0010909204B5C5C016830
:10142000E1404160546804F4E064240A1C5D21FA40
:1014300004F48460546804F46054E40A1B5DD940E9
:10144000C160526802F44042920B144B1B1F9A5C1D
:10145000B1FBF2F1016110BD0360DAE70360D8E788
:10146000516801F47011536803F48033022404EBD3
:10147000914133B153689B0307D5094B5943016030
:10148000C7E7074B59430160C3E7034B594301606A
:10149000BFE700000010024000127A0004000020A4
:1014A00000093D000149086070470000D800424231
:1014B00070B50546274C284E2078002807D156F8ED
:1014C00025004143E16050432061012020702078D5
:1014D000012820D1606848B32048E16940220144D6
:1014E000812001F0EBF8606840386060E0694030CE
:1014F000E0614021012000F085FC3021012000F056
:101500008FFCE0684030E06020694038206114487A
:101510008168403981602069002806D16060E061FF
:10152000E060104A03211170207070BD36F825006C
:101530000A4A83B22846E168FFF770FC4022074957
:10154000812001F0BBF856F825004038606040204B
:10155000E061CEE74C0000203C000020100200209B
:1015600070420020F000002070B50446D0181B4ADD
:1015700052F82420904212D92A2902D10220FEF7E3
:1015800046FE0020FEF743FE21220521204600F002
:10159000E7FC0021012000F0C3FC002070BD1148D1
:1015A0000F4D50F82400AA685843824213D02A29CC
:1015B0000DD00020FEF72BFE687B2422052100F0D1
:1015C000CFFC0021012000F0ABFC002070BD022008
:1015D000FEF71DFEF0E7012070BD00004400002072
:1015E000504200203C00002010B5FFF7DFFB002830
:1015F0000ED008483A220221407B00F0B1FC0121C4
:10160000084600F08DFCBDE810400020FEF7FFBD4D
:1016100010BD00005042002008490A7CD20702D0C9
:101620000748052105E030B10648C97C242900D9C6
:10163000242100F0C7BE0448F7E700005042002014
:1016400070000020990000207500002010B50E4C9D
:10165000A068002806D0207B000607D50020FEF7F2
:10166000D6FD06E00020FEF7D2FD02E00220FEF7E4
:10167000CEFD607B2022052100F072FC0021BDE838
:101680001040012000F04CBC5042002008210148CD
:1016900000F098BEC10000200421014800F092BE75
:1016A000BD0000202DE9F04180460E461746194D39
:1016B0002878002808D0022829D13A4631464046E9
:1016C000BDE8F041FFF7F4BE134C3B463246607B69
:1016D0002821FFF749FF002819D0207B000608D5F4
:1016E000022028703A4631464046BDE8F041FFF7F7
:1016F000DFBE0220FEF78BFD607B2422052100F077
:101700002FFCBDE8F0410121084600F009BCBDE80E
:10171000F0810000F00000205042002010B5044687
:101720002046FFF743FB70B115483A220221407B67
:1017300000F016FC0121084600F0F2FBBDE8104065
:101740000020FEF764BD0F480F4950F82420521EB8
:10175000100E0870100C4870100A8870CA700B4880
:1017600050F82400020E0A71020C4A71020A8A71B2
:10177000C871BDE810400821034800F023BE0000F6
:101780005042002044000020DB0000203C000020EC
:1017900010B504462046FFF709FB70B113483A2202
:1017A0000221407B00F0DCFB0121084600F0B8FB81
:1017B000BDE810400020FEF72ABD0D480D4950F845
:1017C0002420100E0871100C4871100A8871CA711B
:1017D000094850F82400020C4A72020A8A72C87240
:1017E000BDE810400C21034800F0ECBD5042002041
:1017F00044000020E30000203C0000200348C17C9E
:10180000122900D91221024800F0DCBD504200200C
:10181000C90000200121002000F082BB10B5FFF7B5
:10182000C5FA70B10A483A220221407B00F098FBC9
:101830000121084600F074FBBDE810400020FEF7CF
:10184000E6BC0121BDE81040002000F069BB0000AB
:101850005042002010B50D4CA068002808D1207C13
:10186000400705D40121BDE81040002000F058BB1E
:101870000220FEF7CCFC607B2422052100F070FBE7
:101880000021BDE81040012000F04ABB504200207A
:1018900070B51346164D2A78002A06D0012A26D1A3
:1018A000BDE870401A4600F033BF124C0A462A21A8
:1018B000607BFFF759FE002819D0207B000608D472
:1018C00001202870BDE870404FF44051022000F024
:1018D0005DBA0020FEF79BFC607B2422052100F00E
:1018E0003FFBBDE870400021012000F019BB70BD36
:1018F000F000002050420020002904D0018841F06F
:10190000400101807047018821F04001018070474B
:101910002DE9F041044688461546124F4FF4805693
:1019200031463846FFF761F9032000F023F9C8F388
:10193000074000F01FF9C8F3072000F01BF908F07A
:10194000FF0000F017F904E0FF2000F013F904F89D
:10195000010B6D1EADB2F7D231463846BDE8F041FD
:10196000FFF745B9000C01402DE9F04706460D464A
:10197000E8B24142CFB2140A02F0FF094FF4807876
:10198000002812D0E8B24042C0B205EB000A34B3DE
:10199000D01B80B2040A00F0FF093A4629463046BF
:1019A00000F04CF855463E4439E074B929463046BB
:1019B000BDE8F04700F042B842462946304600F004
:1019C0003DF805F5807506F58076641EE4B2F3D225
:1019D0004A4629463046BDE8F04700F02FB8B945E1
:1019E0000ED9A9EB0700C4B23A462946304600F0AA
:1019F00025F85146F0192246BDE8F04700F01EB820
:101A000029463046BDE8F04700F018B8424629465E
:101A1000304600F013F805F5807506F58076641EF3
:101A2000E4B2F3D2B9F1000F06D04A462946304657
:101A3000BDE8F04700F002B8BDE8F0872DE9F041BD
:101A400005468846144600F0E5F8164F4FF48056D8
:101A500031463846FFF7C9F8022000F08BF8C8F38A
:101A6000074000F087F8C8F3072000F083F808F07B
:101A7000FF0000F07FF83011844208D904460AA024
:101A800000F0ACFE03E0287800F074F86D1C641ED2
:101A9000A4B2F8D231463846FFF7A9F8BDE8F041C4
:101AA00000F0A0B8000C01403C3C2D464C4153488E
:101AB0002D4552524F522D3E3E205350495F464CC9
:101AC0004153485F50616765577269746520746F50
:101AD0006F206C61726765210A0000002DE9F041FA
:101AE000DFF840804FF4805739464046FFF77DF8D5
:101AF0009F2000F03FF8FF2000F03CF80446FF2054
:101B000000F038F80546FF2000F034F80646394664
:101B10004046FFF76CF8200440EA05203043BDE85A
:101B2000F0810000000C014070B5044600F072F82E
:101B300000F058F80E4E4FF4805529463046FFF716
:101B400054F8202000F016F8C4F3074000F012F813
:101B5000C4F3072000F00EF8E0B200F00BF82946BD
:101B60003046FFF744F8BDE8704000F03BB8000095
:101B7000000C01402DE9F0410746184C4FF4805508
:101B80002560174E09E02068411E216005D2002023
:101B900000F07CF8C0B2BDE8F0810221304600F0D0
:101BA0004DF80028EFD03946304600F050F8256057
:101BB00008E021684A1E226004D2012000F066F885
:101BC000C0B2E8E70121304600F038F80028F0D034
:101BD000304600F03AF8C0B2DDE70000EC0100202A
:101BE0000038004070B50A4D4FF480542146284615
:101BF000FEF7FBFF0520FFF7BDFFFF20FFF7BAFF51
:101C0000C007FAD121462846BDE87040FEF7EFBF75
:101C1000000C014070B5084D4FF480542146284611
:101C2000FEF7E3FF0620FFF7A5FF21462846BDE8A3
:101C30007040FEF7DCBF0000000C014002460020AF
:101C400012890A4200D00120704780897047818143
:101C5000704730B5028802F441530A884C88CD8819
:101C600022438C882C4322430C8922434C892243F3
:101C70008C892243CC8922431A430280828B22F42E
:101C800000628283098A018230BD000010B50146DE
:101C900002A000F0A3FD002010BD00003C3C2D463A
:101CA0004C4153482D4552524F522D3E3E205350E9
:101CB0004920B5C8B4FDB3ACCAB1216572726F7268
:101CC000436F6465203D2025640A000070470000D2
:101CD000024920F00700086070470000505C004097
:101CE000F0B50E490E7800210D4F48F68F7C48F272
:101CF00080050BE0CBB207EB8302D2F8004C04EA7C
:101D00000C041C432C43C2F8004C491CB142F1D3D3
:101D1000044940F080000860F0BD0000C0010020D0
:101D2000005000404C5C0040054A21F0010112685F
:101D300092B202EBC000034A001D42F81010704737
:101D4000505C0040006000400E4A126892B202EB04
:101D5000C0000D4A801D02EB40023E290AD9480905
:101D6000C90601D1401E80B24FF4004141EA8020F3
:101D7000106070474808C90701D0401C80B280023B
:101D800010607047505C00400060004082000A48CC
:101D90000244D2F8000C4BF68F731840CB0401D5E7
:101DA00080F48050890401D580F4005048F280010D
:101DB0000843C2F8000C70470050004081000848FA
:101DC0000844D0F8001C4BF68F72114081F480510A
:101DD00081F4005148F280021143C0F8001C7047A2
:101DE00000500040054A21F00101126892B202EB56
:101DF000C000034A42F8101070470000505C0040D9
:101E000000600040044A126892B202EBC000034A2C
:101E1000801C42F810107047505C00400060004089
:101E200082000A480244D2F8000C48F6BF731840FA
:101E3000CB0601D580F01000890601D580F0200086
:101E400048F280010843C2F8000C7047005000407F
:101E5000820005481044D0F8002C48F68F131A4031
:101E60000A43C0F8002C704700500040AFF30080D8
:101E70000CB50022019200922748016841F480319C
:101E800001604FF4A063016801F4003100910199F1
:101E9000491C0191009911B901999942F3D1016846
:101EA000890302D50121009100E0009200990129E7
:101EB00030D11A490A6842F010020A600A6822F01A
:101EC00003020A600A6842F002020A604168416047
:101ED00041684160416841F480614160416821F49A
:101EE0007C114160416841F4E8114160016841F0B2
:101EF0008071016001688901FCD5416821F003010E
:101F00004160416841F0020141604168C1F38101D3
:101F10000229FAD10CBD000000100240002002404E
:101F200010B50C460C4A0B4B136010730D220A4976
:101F3000812000F0C3FB094805220270002C07D065
:101F4000042101703021BDE810400120FFF768BF77
:101F500010BD00005553425370420020F000002095
:101F60000148817002737047C9000020FEF71ABF54
:101F700010B50020FFF796FA0121BDE81040C80512
:101F8000FFF71EBA38B51948006880B2001D41003D
:101F90001748095A89B200EB41040094154D28688E
:101FA000017A092913D0217801706178241D4170CC
:101FB0002088FEF74DF929684880A088A41DFEF707
:101FC00047F929688880A41C00942088C880286864
:101FD00001210172C08828B1FEF76AFCBDE83840D3
:101FE000FFF7B8B9FFF70CF9F8E70000505C0040C4
:101FF000006000401C0000202DE9F0413D480068D1
:10200000017801F07F01002904D0022908D00220C4
:10201000BDE8F081417A01F0DF0141720020F7E76D
:10202000418809B9017909B10220F1E7324B4179C0
:1020300021F08004314E0A0607D506EB8402D2F85F
:10204000002CC2F30112120106E006EB8402D2F862
:10205000002CC2F3013212031D78A5420DD962B1E2
:10206000807A50B1080612D506EB8400D0F8000C37
:10207000C0F30110012802D024E00220C8E7E0B23A
:10208000FEF746FBE0B23021FFF7CAFE1AE006EB8E
:102090008405D5F8000CC0F30130012812D14BF6AD
:1020A0008F7848F280079CB1E0B2FEF71DFBD5F8AF
:1020B000000C00EA080080F4805080F4005038439F
:1020C000C5F8000C0E4800684069804700209FE773
:1020D0000C4890F82C100020FFF736FED6F8000CC4
:1020E00000EA080080F4805080F400503843C6F8BD
:1020F000000CE7E71C000020C00100200050004059
:10210000240000206801002010B5074C002806D0EC
:10211000064800680068804720680A3010BD2168C2
:1021200001200882002010BD1C0000202400002097
:10213000064A13685A8A002802D00868104470477B
:102140008888801A18820020704700001C00002038
:1021500010B5074C002806D0064800688068804704
:1021600020680C3010BD216801200882002010BDBD
:102170001C0000202400002010B52A49002809680E
:102180000DD02948002202800A7853060BD002F0B5
:102190007F02012A1FD0022A1FD0002010BD02207A
:1021A0000882002010BD497A8A0604D5027842F0E0
:1021B0000202027003E0027802F0FD02027049069A
:1021C00004D5017841F00101017025E0017801F0AA
:1021D000FE01017020E0144810BD4A7902F00F01A1
:1021E0001306124A0CD502EB8101D1F8001CC1F391
:1021F0000111012910D1017841F0010101700BE0BA
:1022000002EB8101D1F8001CC1F30131012903D196
:10221000017841F0010101700548006800698047BC
:10222000014810BD1C000020160000200050004096
:102230002400002010B50A480A4A00685278C17884
:10224000914203D882780AB982880AB1022010BD6F
:1022500081720548006840688047002010BD00007A
:102260001C000020C00100202400002010B50648FA
:102270000068417A41F02001417204480068C06959
:102280008047002010BD00001C000020240000201A
:1022900070B520480268517921F080041E4B21F06E
:1022A00080000D0603EB800005D5D0F8003CC3F399
:1022B00001131B0104E0D0F8003CC3F301331B03FE
:1022C000164D2D78A54213D954888CB983B1927AD2
:1022D00072B1090648F280020CD5D0F8001C48F60D
:1022E000BF73194081F010011143C0F8001C0BE0CE
:1022F000022070BDD0F8001C4BF68F73194081F49A
:1023000080511143C0F8001C05480068806980476F
:10231000002070BD1C00002000500040C0010020C3
:102320002400002010B50F4C0F4A20681268C178B5
:1023300092694079904721688A7A8AB118B90879F8
:1023400008B9887808B1022010BD08480068C06844
:10235000804720684179C172C1780173002010BDA7
:10236000022010BD1C0000202000002024000020BE
:102370007047000010B50F48016841F0010101608D
:1023800041680D4A1140416001680C4A11400160EA
:10239000016821F480210160416821F4FE0141605F
:1023A0004FF41F018160FFF761FD05494FF00060A8
:1023B000086010BD001002400000FFF8FFFFF6FEAD
:1023C00008ED00E010B50C4601462246812000F0E1
:1023D00075F930210120FFF723FD0549032008701E
:1023E00004488168091B81600021017310BD000051
:1023F000F000002070420020002904D0818941F4BF
:10240000005181817047818921F400518181704799
:1024100010B586B001210420FEF7E0FF01218803FA
:10242000FEF7DCFF4FF40070ADF8140018208DF8B3
:10243000170003208DF81600144C05A92046FEF75E
:1024400081FB2115ADF8141004218DF8171005A992
:102450002046FEF777FB4FF4E13001900020ADF805
:102460000800ADF80A00ADF80C00ADF810000C2023
:10247000ADF80E00064C01A9204600F013F801212A
:102480002046FFF7B9FF06B010BD0000000801406C
:10249000003801400246002012880A4200D0012084
:1024A0007047000030B585B004460D46208A4CF6D2
:1024B000FF710840E98801432182A0894EF6F3119B
:1024C0000840A9882A8911436A8902431143A181DE
:1024D000A08A4FF6FF410840A9890143A1826846BE
:1024E000FEF78AFF1D48844201D1039800E002985C
:1024F000A189090408D500EBC00101EB001029688F
:102500004900B0FBF1F007E000EBC00101EB001067
:1025100029688900B0FBF1F06422B0FBF2F10901F7
:102520000B096FF018056B4300EB8300A3891D04B2
:102530004FF0320307D503EBC000B0FBF2F000F020
:102540000700084306E003EB0010B0FBF2F000F0D8
:102550000F000843208105B030BD00000038014065
:10256000C1F308018180704738B50446012120205D
:10257000FEF734FF0821ADF8001003218DF802109A
:1025800014218DF80310084D69462846FEF7DAFA43
:1025900024B108212846FEF728FB38BD082128462B
:1025A000FEF725FB38BD00000014014001B502E034
:1025B0000098401E009000980028F9D108BDFDF752
:1025C00077BF0000064905480860022202720548EC
:1025D0004860054A8A60006800470000F401002056
:1025E0001C00002068010020C401002038B54FF411
:1025F000C060FEF7FBFD14208DF8000001248DF86B
:1026000001408DF802408DF803406846FEF7BCFD9E
:1026100013208DF800008DF8014000208DF8020095
:102620008DF803406846FEF7AFFD38BD70B50D4E1E
:1026300030680D4C208020880C4D2988084000040B
:1026400001D5FDF777FF208829880840400507D588
:102650004FF6FF30306006484068BDE870400047E4
:1026600070BD0000445C00405001002028000020A4
:1026700068010020FFF7DABF05490020086005491E
:102680004FF4044008800249091F08600020704789
:10269000445C00402800002070B50E4600F07F0525
:1026A0002846FEF7B7FA04462846FEF7A3FA014685
:1026B00022463046FEF73AFE204670BD70B50E4603
:1026C000144600F07F052846FEF7B4FA0146A2B290
:1026D000304600F007F8A1B22846FFF793FB002030
:1026E00070BDFEE710B5521C5208084B03EB4101C8
:1026F000002A09D003784478801C43EA042321F897
:10270000043B521E002AF5D110BD000000600040BD
:102710002DE9F0412A4CA36840332578294E002D3D
:1027200007D156F82050694361615543A5610121E5
:10273000217021780025012934D12562224FDFF84C
:102740008CC009E0216A4A1C2262795CA2680CF8FC
:102750000210A168491CA160A1689942F2D31C4FE4
:1027600062692346398802EB010CC4F814C09A69E7
:10277000521A9A6156F82010B2FBF1F601FB1622AC
:1027800032B99D608BB2ACEB0101104AFEF756FBEB
:1027900010483A888168891A81604FF440510220BC
:1027A000FFF7F4FAA06918B10B480078042805D1A6
:1027B000A56001210020FFF7B3FB2570BDE8F08183
:1027C0004C0000203C00002010420020100200209D
:1027D000F200002070420020F00000200FB4054BF2
:1027E00010B503A9044A029800F018F810BC5DF86F
:1027F00014FB000071290008F001002002E008C865
:10280000121F08C1002AFAD170477047002001E06A
:1028100001C1121F002AFBD1704700002DE9FF4FB4
:1028200089B09B460446002506E025280BD05A4671
:102830000B999047641C6D1C20780028F5D10DB0D1
:102840002846BDE8F08F0027B8460122474900E03E
:10285000074314F8013F203B02FA03F00842F7D186
:1028600020782E2819D114F8010F47F004072A28E0
:102870000ED06FF02F022078A0F1300109290CD87A
:1028800008EB880102EB410100EB0108641CF2E750
:102890000A98641C50F8048B0A9020780028CED047
:1028A000642808D0692806D075281ED05A460B998E
:1028B00090476D1C58E00A994FF00A0901C90A9126
:1028C000002802DA40422D2102E0390504D52B21EF
:1028D0008DF82010012103E0F90704D02021F7E74B
:1028E0008A4608AE0DE00021FAE70A994FF00A097E
:1028F00001C90A91F7E74946FDF736FC303106F881
:10290000011D0028F7D1ADEB060000F12009780782
:1029100001D44FF00108C84502DDA8EB090000E032
:1029200000208046002706E008A85A46C05D0B99A3
:1029300090476D1C7F1C5745F6DB04E030205A465B
:102940000B9990476D1CB8F10001A8F10108F5DC66
:1029500005E016F8010B5A460B9990476D1CB9F12A
:102960000001A9F10109F4DC641C65E709280100F4
:1029700070B50446064DE1B22846FFF7F1FD80210F
:102980002846FFF787FD0028F9D0204670BD0000DB
:1029900000380140FFF73CFDFEF7D4F9FFF7E6FAF7
:1029A000FFF7E6FAFFF722FEFFF70CFE0848016882
:1029B0000529FCD107A0FFF711FF124C124D216829
:1029C00081F0010121602846FFF7F0FDF7E70000E4
:1029D000E80100200D0A20D2B0BBF0204631303390
:1029E0002DB0D4B5C02053544D333220555342201E
:1029F0004D4153532053544F5241474520CAB5D1FE
:102A0000E90D0A000C0C0140FFFF0F00120100024B
:102A10000000004083042057000201020301090264
:102A20002000010100C03209040000020806500421
:102A30000705810240000007050202400000040370
:102A400009042603530054004D006900630072001E
:102A50006F0065006C0065006300740072006F0019
:102A60006E006900630073002603530054004D009C
:102A70003300320020004D0061007300730020001D
:102A8000530074006F00720061006700650010035E
:102A90005300540020004D006100730073000000DB
:102AA000C02A000800000020F4010000B80100085E
:102AB000802B0008F40100208C4400000C28000842
:102AC00045020406082D01020304040562060708F6
:102AD0000935800202202D53544D2001180E534415
:102AE00020466C617368204469736B10ED312E30A1
:102AF0002024BC4E414E2629244203620662700205
:102B0000150A39E3021002141A03531254124D121B
:102B10003312321231D230136B0A0C1808851104AB
:102B20000A156F2081130C2A3308121A1E0829C7B0
:102B30001329101408450F1B0825081A27041369C8
:102B40000E1B08F5041AE1041AB5041AA9041AC1E7
:102B5000044132401A3E3832041A420832265A687A
:102B60000822FC33201A1A8E103210230301297810
:102B7000DA41881A4D64690C6A759862A0000000F9
:0400000508000131BD
:00000001FF
