:020000040800F2
:1000000060270020F9010008611600080B1600089F
:100010005D1600089F1400087D1D00080000000008
:10002000000000000000000000000000151B000898
:10003000A314000800000000D5160008291C0008C1
:10004000130200081302000813020008130200083C
:10005000130200081302000813020008130200082C
:10006000130200081302000813020008130200081C
:10007000130200081302000813020008130200080C
:1000800013020008130200081302000813020008FC
:1000900013020008130200081302000813020008EC
:1000A00013020008130200081302000813020008DC
:1000B00013020008130200081302000813020008CC
:1000C00013020008130200081302000813020008BC
:1000D00013020008130200081302000813020008AC
:1000E000130200081302000813020008130200089C
:1000F000130200081302000813020008130200088C
:10010000130200081302000813020008130200087B
:10011000130200081302000813020008130200086B
:10012000130200081302000813020008130200085B
:1001300000F002F800F050F80AA090E8000C8244A9
:100140008344AAF10107DA4501D100F045F8AFF286
:10015000090EBAE80F0013F0010F18BFFB1A43F0A5
:1001600001031847602B0000802B0000103A24BFC9
:1001700078C878C1FAD8520724BF30C830C144BF0C
:1001800004680C607047000000230024002500264E
:10019000103A28BF78C1FBD8520728BF30C148BFEA
:1001A0000B607047662902F0D784642900F0A280B2
:1001B000782900F0DB80732900F01C840020704750
:1001C0001FB500F02DFC04000020002102F05EF9B4
:1001D000E0601FBD10B510BD00F03AFD1146FFF7FD
:1001E000EFFF01F061FF00F058FD03B4FFF7F2FFED
:1001F00003BC01F000FF00000948804709480047A0
:10020000FEE7FEE7FEE7FEE7FEE7FEE7FEE7FEE7C6
:10021000FEE7FEE704480549054A064B7047000023
:100220002D1C0008310100086021002060270020FB
:100230006023002060230020704700000FB40449B1
:1002400010B503AA029800F0D9FB10BC5DF814FBAE
:100250003000002070B5044685690068C10601D5EC
:10026000302600E02026C00707D070BDD4E9012168
:1002700030469047206A401C20626D1EF6D570BD46
:1002800070B5044685690078C00707D170BDD4E910
:10029000012120209047206A401C20626D1EF6D567
:1002A00070BD70B50C460546012A05D02878800639
:1002B00000D5EA69002302E0012305E05B1C9342BC
:1002C00002D2E05C0028F9D1A869E618C01AA8613A
:1002D000286A184428622846FFF7BCFF04E0D5E9E5
:1002E000012114F8010B9047B442F8D32846FFF7D8
:1002F000C7FF70BD2DE9F04106460024106875293E
:10030000314616A510D0AFF30080002802DA404233
:1003100013A507E031688A0701D512A502E0490755
:1003200004D511A5012401E0AFF3008000210A22C9
:1003300006F1240709E0B0FBF2FCB0FBF2F302FB8C
:100340001C00303078541846491C0028F3D123464D
:100350002A463046BDE8F04100F0D4B80000000065
:100360002D0000002B0000002000000070B50446A6
:100370000D4621461068AFF300802188090502D59B
:100380000F4A7A4402E00E4A7A440E32002104F108
:10039000240305E000F00F060009965D5E54491C39
:1003A0000028F7D120780023000704D5702D02D053
:1003B00009B1022311322046BDE8704000F0A2B816
:1003C000D62700002DE9F05F894604464FF0000A69
:1003D000DFF824B1FB44C0F820A02046E16888473C
:1003E00000287DD0252806D0D4E901219047206A35
:1003F000401C2062F1E700255F462046E1688847FF
:100400002028064607DB312E05D2B81910F8200C3B
:1004100008B10543F1E7A80701D525F00405C4F8A4
:100420001CA00027C4F818A02A2E09D0304601F0DD
:10043000DBFD38B304EB8708303EC8F8186019E0DC
:1004400059F8041B204604EB87029161E168884754
:10045000012F064618D1E069002820DA25F0200592
:100460001DE0D8F8180000EB800006EB40003038A3
:10047000C8F818002046E1688847064601F0B4FD38
:100480000028EED1012F0AD02E2E08D12046E16897
:1004900088477F1C0646022F45F02005C4DBA06973
:1004A000002803DA404245F00105A061E80701D0C9
:1004B00025F01005A6B1A6F14100192802D8203672
:1004C00045F400654A463146204625604D46FFF713
:1004D00069FE60B1012807D0ED1D25F0070000E09E
:1004E00007E000F1080978E705F1040975E73046EF
:1004F0007AE7206ABDE8F09FAC270000704770479C
:10050000704770472DE9F0470D46994692460446DC
:1005100000F124080168880604D5E06921F0100183
:10052000216000E00120A84201DD471B00E0002718
:10053000A1697A1902EB0900081AA0612078C006A7
:1005400002D42046FFF786FE002608E0D4E9012108
:100550001AF806009047206A401C761C20624E451F
:10056000F4DB2078C0060AD52046FFF773FE06E0CC
:10057000D4E9012130209047206A401C2062381EB7
:10058000A7F10107F4DC07E0D4E9012118F8050020
:100590009047206A401C2062281EA5F10105F3DC6B
:1005A0002046FFF76DFE2078000602D50220BDE848
:1005B000F0870120FBE770472DE9FF4F0C461E46F0
:1005C0004FF0FF378BB0D2E90001DDF860800A9070
:1005D0008A46C1F30A5505B93D46002108464FF049
:1005E0000000BAF1000F00F4400005DA00EB8000D3
:1005F0004FF4400101EA50004FEA9059B9F1010F60
:1006000000DDB9460A9850EA4A000ED044F6105070
:10061000A5F2FF3545432F14B8F1000F1ED07542E7
:10062000291E1EDDC9F100021CE0B8F1010F4FF0D8
:10063000000001D0302103E0F24305E02154401CCA
:10064000B042FBDB30460022002121540B99C1F857
:100650000880C1E900200FB0BDE8F08FBD1B6D1C04
:10066000DEE74A4600DA694206A800F07BFA06ABEC
:1006700093E8070003AB83E8070050460A9900F0AF
:1006800053FB8DE80700A0F500501F380090039839
:10069000002D09DD42F21F014A46084403A90390D8
:1006A000684600F0B2FD08E0A0F500504A461F3849
:1006B00003A90390684600F0BCFD8DE80700000424
:1006C000000C03D04FF0FF30410800E01046B8F1B5
:1006D000000F03D00022009215461EE0751E05D4BF
:1006E00000F0A2F9303262556D1EF9D5B3460122F1
:1006F000084302D000227F1C04E02078302801D17A
:1007000000227F1E002A099786D01DE0112D07DAEE
:1007100000F08AF9303262556D1C50EA0102F5D1C1
:10072000084302D00098C8B10EE00021681E05E021
:10073000235C625C63542254401E491C8142F7DBF7
:10074000AB46A81B401E0990002004F80B000B9834
:10075000099AC0F80880C0E9002B7CE711264FF009
:10076000000859E72DE9F04F88460446D21D22F0D3
:10077000070191B0D1E90001CDE90A0101F020FCA7
:1007800002460B98C00F01D02D2007E0206881079A
:1007900001D52B2002E0202101EAC000032A0990A4
:1007A00001D0072A05DB03464146204600F09AF9AE
:1007B0000BE12078800601D5E06900E00620B8F161
:1007C000650F814606D0B8F1660F18D0B8F1670FF3
:1007D00070D131E00020B9F1110F009001DB11233D
:1007E00001E009F101030AAA01A90CA8FFF7E4FE40
:1007F000DDE90C70002609F10105834647E0012080
:100800004B4600904FF000470AAA01A90CA8FFF739
:10081000D3FEDDE90DB00C995D46002610B909F153
:1008200001000D18B9EB050003D4C0F1FF3609F142
:100830000105A5EB09002BE0B9F1010F01DA4FF03A
:1008400001090020B9F1110F0090484601DD112384
:1008500000E003460AAA01A90CA8FFF7ADFEDDE9F6
:100860000C704D4600268346207800070AD4AB451D
:1008700000DA5D4601A8012D04DD411911F8011CC3
:10088000302907D04F4502DA17F1040F04DA0120AE
:1008900082460FE06D1EEEE7002F02DCED1B3E44AA
:1008A00003E0781CA84200DD7D1CB81B00F1010AA2
:1008B0004FF000472078000703D4AA4501DB4FF032
:1008C000FF3A0021B7F1004F0DF143088DF84310B6
:1008D00024D002202B23002F01DA7F422D230A216E
:1008E000021EA0F1010000DC5FB197FBF1FC97FB59
:1008F000F1F201FB1C7C17460CF1300C08F801CD1D
:10090000EEE7A8F1010003702188090501D5452112
:1009100000E06521A0F1010800F8011C09980FA969
:10092000A1EB0807FF1D00B10120411901EBEA709E
:10093000A1693844081A401EA0612078C00602D47C
:100940002046FFF787FC099828B1D4E90121904798
:10095000206A401C20622078C00622D52046FFF77E
:1009600079FC1EE0002E04DBB34502DD01A8805DAA
:1009700000E03020D4E901219047206A401C206229
:10098000761CAAF101005FEA000A0AD100F048F8DB
:10099000C0680168405CD4E901219047206A401C8E
:1009A0002062281EA5F10105DCDC07E0D4E9012165
:1009B00018F8010B9047206A401C2062381EA7F1EE
:1009C0000107F3DC2046FFF75BFC032011B043E690
:1009D00010B5436913B1AFF3008001E0FFF761FC8C
:1009E000012010BD127800F124010A7000224A7023
:1009F0000122EDE711684FF0FF32E9E7074B70B5D0
:100A00000D467B4400F05BF80446284600F018F9D8
:100A100010B14FF0FF3070BD204670BD871600004A
:100A2000004870472021002030B5B0F10A024FEA9B
:100A3000900E71F100034EEA817EB0EB0E0061EB87
:100A400091014FEA101E4EEA017E10EB0E0041EBC1
:100A500011114FEA102E4EEA016E10EB0E0041EB21
:100A600011214FEA104E4EEA014E10EB0E0041EB01
:100A70001141401841F100014FEAD00040EA4170B5
:100A80004FEAD10110EB80054FEA810444EA9074EB
:100A900044EB01046D1944EB0404521BA3414FF0D5
:100AA000000348BF0A3200D530BD401C41F10001AF
:100AB00030BD000001694A1C02610878704700B52A
:100AC0008FB0CDE901310021059105497944CDE987
:100AD000031011466846FFF775FC0FB000BD00001B
:100AE000E5FFFFFF2DE9F0411F460446032601689C
:100AF000072A01F4006004DB08B116A505E016A57D
:100B000003E008B115A500E015A521F01000206054
:100B1000A069C01EA0610FB1401EA0612046FFF772
:100B200099FB4FB1D4E9012138469047206A401C17
:100B30002062C01C206206E0206AFAE7D4E90121A5
:100B400015F8010B9047761EF8D22046FFF798FB68
:100B5000BDE8F0814E414E006E616E00494E460088
:100B6000696E66002DE9F047814616468AB0334823
:100B700078440DC88DE80D0030487844801C03ACE3
:100B80000DC884E80D0041F69B300844372190FBE6
:100B9000F1F290FBF1F5A5F1800501FB12041B3C7D
:100BA00002D56442012000E00020DFF890A08046DA
:100BB0000027FA44AAF1BE0A0DE0E00709D0324648
:100BC000684607EB47010AEB810100F032FB8DE834
:100BD000070064107F1C002CEFD1184F7F44AC3FFE
:100BE00018E0E80714D007EB04100DF1180A90E89C
:100BF0000E008AE80E00C068F04201D198190890F2
:100C0000324606A903A800F014FB03AB83E80700F3
:100C10006D10641C002DE4D132466946B8F1000F16
:100C200003A802D000F0F1FA01E000F002FBC9E9EC
:100C30000001C9F808200AB0BDE8F087A020000034
:100C4000007B00F0800070470048704700210020C2
:100C50007546FFF7F9FFAE4605006946534620F09A
:100C60000700854618B020B5FFF7D4FABDE820404C
:100C70004FF000064FF000074FF000084FF0000B58
:100C800021F00701AC46ACE8C009ACE8C009ACE80B
:100C9000C009ACE8C0098D4670470446AFF3008038
:100CA0002046FFF7A2FA00004FF0013C50F8042B59
:100CB00051F8043B9A4221D1A2EB0C03934313EA6F
:100CC000CC1317D150F8042B51F8043B9A4215D19C
:100CD000A2EB0C03934313EACC130BD150F8042B73
:100CE00051F8043B9A4209D1A2EB0C03934313EA57
:100CF000CC13DBD04FF00000704700BFD01A01BA10
:100D0000B1FA81F101F0180122FA01F0CB40C1F1F2
:100D10002001DBB2C0B2C01A2CFA01F3D11A914300
:100D200011EAC311E6D170475FEA400C08BF91F0A9
:100D3000000F4FEA8C234FEAC12243EA51514FEA98
:100D40001C5018BF00F5F0404FEA300018BF41F0CA
:100D500000415FEA6C5C00F02980BCF1FF3F08BFF6
:100D600040F080407047130C06BF12044FF0100C87
:100D70004FF0000C130E04BF12020CF1080C130FFD
:100D800004BF12010CF1040C930F04BF92000CF18C
:100D9000020CD30F04BF52000CF1010C11464FF0AE
:100DA0000002A0F11F00A0EB0C00704711F0004FF3
:100DB00008BF704731F000413FF4D5AF0B0C06BFC0
:100DC00009044FF0100C4FF0000C0B0E04BF090289
:100DD0000CF1080C0B0F04BF09010CF1040C8B0F74
:100DE00004BF89000CF1020CCB0F04BF49000CF1C9
:100DF000010CCCF12003A0EB0C0022FA03F302FA61
:100E00000CF241EA030100F10100704720F07F4C31
:100E100080EA030023F07F47ACEB070303F57C5324
:100E200000F0004003F1FF032DE980494FEA154B24
:100E300009B44FEA144325EA0B4E24EA03480FF2A3
:100E4000042606EB132749083E785FEA320203FBCB
:100E50000667C7F5000707FB06F64FEA54374FEA67
:100E6000D64606F1020607FB066CCCF1005C4FEAA1
:100E70001C472CEA074C07FB06F40CFB06F504EBB9
:100E800015464FEA961634BF00204FF000404FEA57
:100E9000D13706FB07FC4FEA1C4C0CFB0BF7D21BAF
:100EA00003FB0CF761EB07010CFB0EF7B0EB0740FF
:100EB00072EB17420CFB08F734BFA2EB0742B2EB10
:100EC000074261EB17414FEA0C444FEA910706FBDA
:100ED00007FC4FEA1C4C0CFB0BF7B0EBC74072EB66
:100EE000573203FB0CF734BFA2EBC742B2EBC74249
:100EF00061EB57310CFB0EF7B0EBC70072EB57728A
:100F00000CFB08F734BFA2EBC702B2EBC70261EBE0
:100F10005771039F4FEA816141EA921104EBCC04BF
:100F20004FEAD1374FEA826206FB07FC42EA901291
:100F30004FEA80604FEA1C4C0CFB0BF7D21B03FB03
:100F40000CF761EB07010CFB0EF7B0EB074072EBFF
:100F500017420CFB08F734BFA2EB0742B2EB074283
:100F600061EB17414FEA8C554FEA910704EB9C2443
:100F700006FB07FC4FEA1C4C0CFB0BF7B0EBC74021
:100F800072EB573203FB0CF734BFA2EBC742B2EB54
:100F9000C74261EB57310CFB0EF7B0EBC70072EBA9
:100FA00057720CFB08F734BFA2EBC702B2EBC702C3
:100FB00061EB577115EB4C254FEA816141EA9211C3
:100FC0004FEA82624FEAD13742EA901206FB07FCF1
:100FD00044F100044FEA80604FEA1C4C0CFB0BF715
:100FE000D21B03FB0CF761EB07010CFB0EF7B0EB18
:100FF000074072EB17420CFB08F734BFA2EB074225
:10100000B2EB074261EB174115EB1C154FEA81313A
:1010100041EA92414FEA823242EA90424FEA8030FE
:101020004FEA0C7644F1000448EA03434EEA0B48C9
:101030004FF0000EB2EB080C71EB030724BF6246C1
:1010400039464EEB0E0E4FF0000B0018524149414D
:101050004BEB0B0BB2EB080C71EB03077BF1000BB6
:1010600024BF624639464EEB0E0E4FF0000B0018BF
:10107000524149414BEB0B0BB2EB080C71EB0307F0
:101080007BF1000B24BF624639464EEB0E0E51EA4F
:10109000020718BF46F0010616EB0E7655F1000266
:1010A00054F1000103D5BDE88901BDE80088BDE821
:1010B0008901BDE80048B619524141EB0101A3F195
:1010C0000103704780807F7E7D7C7B7A797877769C
:1010D00076757473727171706F6E6E6D6C6C6B6A15
:1010E0006A696868676666656464636362616160B3
:1010F000605F5F5E5E5D5D5C5C5B5B5A5A59595830
:101100005857575656555555545453535252525199
:10111000515050504F4F4F4E4E4D4D4D4C4C4C4BEF
:101120004B4B4A4A4A494949484848474747474636
:101130004646454545444444444343434342424272
:1011400042414141002B26D4770021D01CB54FEA03
:10115000370703B44FF010004FF010014FF00000BC
:101160000FBCBDE810400BF1010BBBF1010F08BF34
:101170005FEA170722BF12F1010211F101014FF0DE
:10118000004143F1000300F0004043EA00007047D3
:10119000F9D35708DAE746EA064613F1400F4FEA5B
:1011A00016461FDD13F1200FDFBF16430A4600214C
:1011B00020335B42C8D0C3F1200746EA064602FA54
:1011C00007F74FEA164646EA0706C3F1200722FA58
:1011D00003F201FA07F721FA03F14FF0000342EAA4
:1011E0000702B1E746EA020646EA06464FEA164615
:1011F00046EA0106BCBF46EA0646360C4FF000033D
:101200004FF000024FF000019EE72DE9C0489346E1
:1012100030B491E8380007C831EA400C48BF34EADE
:10122000430C03D5FFF7F2FDFFF78CFFF0BCBDE8E0
:1012300000882DE9C048934630B491E8380007C8CB
:1012400010F0804F08BF13F0804F03D100F005F875
:10125000FFF778FFF0BCBDE8008820F07F4780EA08
:10126000030023F07F4C07EB0C03A3F57C5300F045
:101270000040A3F1FE0392F0000F00F0B38095F060
:10128000000F00F077802DE901494FEA11404FEA45
:10129000144621EA004800FB06FC24EA064708FB46
:1012A00006F607FB08F800FB07F718EB06484CEBBF
:1012B000164C4FEA124B18EB07484FEA15464CEB19
:1012C000174022EA0B4E0BFB06FC25EA06470EFBF5
:1012D00006F607FB0EFE0BFB07F71EEB064E4CEB6C
:1012E000164C4FF000061EEB074E4CEB174B18EB5D
:1012F0000B0840F1000018EB0E0B58EB000840F112
:1013000000008F1A4FF000013CBFC943661B14BF99
:10131000B5EB040C00213CBFC943F61B4FEA174450
:101320004EEA8E0E27EA04454FEA1C4704FB07628B
:101330002CEA074C05FB07F70CFB05F604FB0CFC3D
:1013400016EB074642EB174216EB0C4642EB1C42EB
:101350001BEB060658EB0202414146EA9E0601D508
:10136000BDE80189B619524141EB0101A3F1010326
:10137000BDE801894FEA14454FEA114724EA0546C2
:1013800021EA074C05FB07F406FB07F70CFB06F107
:1013900005FB0CFC11EB074144EB17444FEA1247E5
:1013A00011EB0C4144EB1C4422EA074C05FB07F20D
:1013B00006FB07F70CFB06F605FB0CFC16EB0746D5
:1013C00042EB174216EB0C4642EB1C456A1854F1EF
:1013D000000148BF7047B619524141EB0101A3F12A
:1013E0000103704795F0000F37D04FEA11424FEAE2
:1013F000144721EA024624EA074C02FB07F106FBE8
:1014000007F70CFB06F402FB0CFC14EB074441EB62
:1014100017414FEA154714EB0C4441EB1C4125EAF8
:10142000074C02FB07F506FB07F70CFB06F602FB71
:101430000CFC16EB074645EB174516EB0C4645EB47
:101440001C42121951F1000148BF7047B6195241B0
:1014500041EB0101A3F1010370474FEA14454FEA44
:10146000114724EA054621EA074C05FB07F106FB74
:1014700007F70CFB06F24FF0000605FB0CFC12EB25
:10148000074241EB174112EB0C4251EB1C4148BFA4
:101490007047921841EB0101A3F10103704700BFAF
:1014A000FEE7704710B5044600F0BCFA00F068FC97
:1014B0004FF480510C4800F0A4F8202000F040FACE
:1014C000C4F3074000F03CFAC4F3072000F038FAF8
:1014D000E0B200F035FA4FF48051034800F093F881
:1014E00000F04EFC10BD0000000C01402DE9F04161
:1014F000024600250026002000230024002791F842
:1015000003C00CF00F0591F803C00CF0100CBCF1F7
:10151000000F03D091F802C04CEA050591F800C015
:10152000BCF1000F31D0146800202BE04FF0010C0B
:101530000CFA00F3B1F800C00CEA03069E4220D179
:1015400083004FF00F0C0CFA03F7BC4305FA03FCC1
:101550004CEA040491F803C0BCF1280F06D14FF007
:10156000010C0CFA00FCC2F814C00AE091F803C0A8
:10157000BCF1480F05D14FF0010C0CFA00FCC2F889
:1015800010C0401C0828D1D31460B1F800C0BCF1D1
:10159000FF0F34DD546800202EE000F1080C4FF0FE
:1015A000010808FA0CF3B1F800C00CEA03069E42E9
:1015B00021D183004FF00F0C0CFA03F7BC4305FA5E
:1015C00003FC4CEA040491F803C0BCF1280F05D1D8
:1015D00000F1080C08FA0CF8C2F8148091F803C066
:1015E000BCF1480F07D100F1080C4FF0010808FAD0
:1015F0000CF8C2F81080401C0828CED35460BDE817
:10160000F081416170470161704700BFFEE7000053
:1016100008B50121482000F06FF82020ADF8000047
:1016200010208DF8030003208DF802006946094858
:10163000FFF75CFF20210748FFF7E5FF2020ADF80A
:10164000000069460448FFF751FF20210248FFF7D8
:10165000DAFF08BD000C01400018014000BFFEE7A2
:101660007047000070B5002100230F22C47804B336
:10167000154C246804F4E064C4F5E064210AC1F167
:101680000403CA40447804FA03F1847814402143E7
:1016900009010E4C0678A155047804F01F050124B9
:1016A000AC4005786D11AD0005F1E025C5F80041AD
:1016B00009E0047804F01F050124AC40044D0678CD
:1016C000761145F8264070BD0CED00E000E400E026
:1016D00080E100E07047000029B1064AD269024368
:1016E000044BDA6104E0034AD2698243014BDA61B8
:1016F000704700000010024029B1064A9269024377
:10170000044B9A6104E0034A92698243014B9A6157
:10171000704700000010024030B500210022002474
:1017200000232D4D6D6805F00C0121B1042905D071
:10173000082923D105E0294D056022E0274D0560E9
:101740001FE0254D6D6805F47012234D6D6805F49A
:101750008034022505EB92421CB9214D55430560AA
:101760000BE01D4D6D6805F400351DB11C4D554352
:10177000056002E0194D5543056002E0174D056014
:1017800000BF00BF144D6D6805F0F0010909154D4B
:101790006B5C0568DD4045600F4D6D6805F4E061E8
:1017A000090A104D6B5C4568DD4085600A4D6D6827
:1017B00005F46051C90A0B4D6B5C4568DD40C5609E
:1017C000054D6D6805F44041890B074D6B5CC5689C
:1017D000B5FBF3F5056130BD0010024000127A0040
:1017E00000093D00360000204600002070B5044688
:1017F0000D4616464FF480511048FFF702FF0320B4
:1018000000F09EF8C4F3074000F09AF8C4F30720F4
:1018100000F096F8E0B200F093F804E0002000F049
:101820008FF828706D1C3000A6F10106F6D14FF438
:1018300080510248FFF7E7FE70BD0000000C014038
:1018400021B1028842F04002028004E002884FF693
:10185000BF731A400280704710B500F0F5F800F031
:1018600001F810BD00B585B001218803FFF734FFF2
:101870000020ADF80C00ADF80800ADF80600ADF89A
:101880001000ADF80400ADF80000ADF80E004FF404
:101890008270ADF802004FF40070ADF80A0069469E
:1018A000044800F019F901210248FFF7C9FF05B00B
:1018B00000BD00000038004010B54FF480510D48C5
:1018C000FFF79FFE9F2000F03BF8002000F038F863
:1018D00004462402002000F033F8044324020020D0
:1018E00000F02EF804434FF480510248FFF78BFEBE
:1018F000204610BD000C014010B54FF480510F4838
:10190000FFF77FFE902000F01BF8002000F018F891
:10191000002000F015F8002000F012F8002000F080
:101920000FF804462402002000F00AF804434FF4A4
:1019300080510248FFF767FE204610BD000C0140B1
:1019400070B504464FF480501C4908600DE01B49F7
:101950000868411E194A116038B90023752218A180
:101960001FA0FEF76BFC002070BD02212C4800F088
:10197000A5F80028EBD02146294800F0ABF84FF439
:1019800080500E4908600DE00C490868411E0B4A62
:10199000116038B90123832209A111A0FEF74EFC82
:1019A0000020E1E701211E4800F088F80028EBD074
:1019B0001B4800F08CF80546E8B2D5E72800002067
:1019C0002E2E5C48415244574152455C5350494683
:1019D0006C6173685C535049466C6173682E630098
:1019E0000D0A44656275673A2046696C655B25732C
:1019F0005D20204C696E655B25645D202053504955
:101A000020B5C8B4FDB3ACCAB1216572726F724320
:101A10006F6465203D2025642020200D0A00000011
:101A20000038004010B54FF480510648FFF7E9FD3B
:101A30000620FFF785FF4FF480510248FFF7E3FDD2
:101A400010BD0000000C014008B501210820FFF77F
:101A500053FE10208DF803000002ADF800000320B3
:101A60008DF8020069461448FFF740FD18208DF8F4
:101A700003004FF40050ADF8000069460E48FFF730
:101A800035FD04208DF803000003ADF80000694621
:101A90000948FFF72BFD18208DF803004FF4004094
:101AA000ADF8000069460448FFF720FD4FF480516F
:101AB0000148FFF7A8FD08BD000C014002460020C8
:101AC00013890B400BB1012000E000207047014654
:101AD000888970478181704710B50022028802F41E
:101AE00041520B884C8823438C882343CC88234362
:101AF0000C8923434C8923438C892343CC8923437A
:101B00001A430280838B4FF2FF74234083830B8A36
:101B1000038210BD704710B500F002F810BD000040
:101B20000CB50020019000903348006840F48030EC
:101B30003149086000BF3048006800F40030009070
:101B40000198401C0190009818B90198B0F5A06F59
:101B5000F1D12948006800F4003010B10120009054
:101B600001E0002000900098012843D1234800683C
:101B700040F01000214908600846006820F003008A
:101B800008600846006840F0020008601A48406893
:101B9000194948600846406848600846406840F473
:101BA000806048600846406820F47C104860084621
:101BB000406840F4E81048600846006840F08070D3
:101BC000086000BF0C48006800F000700028F9D0E1
:101BD0000948406820F0030007494860084640680B
:101BE00040F00200486000BF0348406800F00C006D
:101BF0000828F9D10CBD000000100240002002406E
:101C0000042808D14FF0E021096941F004014FF0A8
:101C1000E022116107E04FF0E021096921F00401A1
:101C20004FF0E022116170477047000010B5134873
:101C3000006840F0010011490860084640681049FA
:101C400008400E494860084600680E4908400B49A4
:101C500008600846006820F4802008600846406854
:101C600020F4FE0048604FF41F008860FFF753FF28
:101C70004FF000600449086010BD000000100240F1
:101C80000000FFF8FFFFF6FE08ED00E021B18289B9
:101C900042F40052828104E082894DF6FF731A40BB
:101CA000828170472DE9F04786B005460E46002434
:101CB000A24600BFA1460027B08900B100BF2F4651
:101CC0002C8A4CF6FF700440F08804432C82AC89C7
:101CD0004EF6F3100440B0883189084371890843F7
:101CE0000443AC81AC8A4FF6FF400440B089044302
:101CF000AC8201A8FFF710FD1F48874202D1DDF832
:101D000010A001E0DDF80CA0A88900F4004040B16B
:101D10000AEBCA0000EB0A1031684900B0FBF1F889
:101D200007E00AEBCA0000EB0A1031688900B0FB3B
:101D3000F1F86420B8FBF0F004012009642101FBF4
:101D40001089A88900F4004040B1322000EBC9009E
:101D5000B0FBF1F000F00700044308E0322000EB94
:101D600009106421B0FBF1F000F00F0004432C8156
:101D700006B0BDE8F08700000038014000BFFEE774
:101D800010B500244FF480501149086001461148F5
:101D9000FFF737FC0520FFF7D3FD00BF0020FFF75A
:101DA000CFFD04460A490868411E094A116028B956
:101DB00040F20D1208A110A0FEF740FA04F0010055
:101DC0000028EBD14FF480510248FFF71CFC10BDF6
:101DD00028000020000C01402E2E5C484152445740
:101DE0004152455C535049466C6173685C5350499D
:101DF000466C6173682E63000D0A44656275673A2C
:101E00002046696C655B25735D20204C696E655BBF
:101E100025645D2020536563746F725F4572617342
:101E200065204552524F522020200D0A000000002C
:101E300070B504460D461646FFF7F4FDFFF7A0FF08
:101E40004FF480511648FFF7DCFB0220FFF778FDC6
:101E5000C4F30740FFF774FDC4F30720FFF770FDDC
:101E6000E0B2FFF76DFDB6F5807F07D94FF4BC7285
:101E70000CA11448FEF7E2F9002070BD03E02878B9
:101E8000FFF75EFD6D1C3000A6F10106F7D14FF49F
:101E900080510348FFF7B7FBFFF772FF0120ECE723
:101EA000000C01402E2E5C48415244574152455C83
:101EB000535049466C6173685C535049466C61737A
:101EC000682E63007C2C00082DE9F05F05460F4664
:101ED00016464FF00008C1460024A246A34605F06E
:101EE000FF0ACAF10000C4B2C6F3072806F0FF09D2
:101EF000BAF1000F20D1B8F1000F05D132463946B2
:101F00002846FFF795FF59E009E04FF48072394603
:101F10002846FFF78DFF05F5807507F580775FEAA6
:101F20000800A8F1010101F0FF08EED14A46394648
:101F30002846FFF77DFF41E0B8F1000F18D1A14519
:101F400010DDA9EB040000F0FF0B224639462846BD
:101F5000FFF76EFF254427445A4639462846FFF7C7
:101F600067FF2BE04A4639462846FFF761FF25E028
:101F7000361BC6F3072806F0FF09224639462846D5
:101F8000FFF756FF2544274409E04FF48072394695
:101F90002846FFF74DFF05F5807507F580775FEA66
:101FA0000800A8F1010101F0FF08EED1B9F1000F1E
:101FB00004D04A4639462846FFF73AFFBDE8F09F6D
:101FC000490050EAC12018BF04204A0D18BF40F054
:101FD000010040F2FF72B2EB515F08BF40F0020017
:101FE000012808BF0520704730380A2801D2012097
:101FF00070470020704700BF7047000010B56FF0B9
:102000000400FFF7FDFD0A4800680A49B0FBF1F043
:10201000094908700846007800EB4001C1EBC01088
:102020004FF6FF7101EAC0000449088010BD0000AE
:102030001400002000127A002C0000202E00002046
:102040000146114A12884A434FF0E0235A610022A8
:102050009A611A46126942F001021A6100BF4FF0FC
:10206000E022106900F001021AB100F48032002A67
:10207000F5D04FF0E022126922F001024FF0E02388
:102080001A6100229A6170472E00002000BF054AA5
:10209000128802F04002002AF9D0C2B2014B1B1D87
:1020A0001A8070470038014086B0FFF7D5FBFFF774
:1020B000A5FF4FF4E13000F09FF9FFF7A9FA7B4844
:1020C000FEF7BCF8FFF75CFE0020FFF7EBF9FFF727
:1020D000F3FB8346FFF710FC0490594674A0FEF70B
:1020E000ADF878A00499FEF7A9F80020FFF7DAF917
:1020F0007AA0FEF7A3F800240CE0A146B9F1FF0F87
:1021000004DD484609EBD0714FEA6109774901F8CF
:102110000490641CB4F5FA7FEFDB75A0FEF78EF82F
:1021200000240FE07148015D78A0FEF787F80A20CF
:1021300094FBF0F100FB1140092802D172A0FEF7D8
:102140007DF8641CB4F5FA7FECDB4FF4FA72674952
:102150001520FFF7B9FE4FF4FA726E491520FFF70C
:1021600045FB6DA0FEF76AF800240FE06948015DA9
:1021700066A0FEF763F80A2094FBF0F100FB114023
:10218000092802D160A0FEF759F8641CB4F5FA7F63
:10219000ECDB0020FFF786F965A0FEF74FF84FA0B3
:1021A000FEF74CF86E496FA0FEF748F813226C4911
:1021B0000020FFF73DFE132272490020FFF716FBB7
:1021C000704971A0FEF73AF80020FFF76BF958A0AC
:1021D000FEF734F800241AE0204600F047FA714A6E
:1021E000714BCDE9000100F059FA074688462046B8
:1021F00000F03CFA3A464346CDE9020100F08EF980
:10220000054600F059F9694941F82400641C142C72
:10221000E2DB67A0FEF712F800240BE0634951F8F7
:10222000240000F023FC05462A460B4668A0FEF772
:1022300005F8641C142CF1DB50225C490020FFF7E8
:1022400043FE502264490020FFF7D0FA63A0FDF757
:10225000F5FF00240BE0604951F8240000F006FC73
:1022600005462A460B465AA0FDF7E8FF641C142CCD
:10227000F1DB1AE00AF1010000F0FF0A4FF4FA70F6
:10228000FFF7DEFE5B48006808B9012000E000208F
:10229000584908600A209AFBF0F100FB11A020B910
:1022A0004FF0000A0148FDF7C9FFE3E72C2C0008B6
:1022B0000D0A204A454445435F49443A2030782579
:1022C000580000000D0A204465766963655F494443
:1022D0003A20307825580D0A000000000D0A0D0A3A
:1022E0000D0A0D0A0D0A0D0A000000005F10002003
:1022F0000D0A20CDF9466C617368B4E6B4A2B5C48A
:10230000B5C4CAFDBEDDCEAA0D0A00003078253066
:10231000345820005F0000200D0A20466C6173686D
:10232000B6C1C8A1B5C4CAFDBEDDCEAA0D0A000063
:102330002D2D2D2D2D2D2D2D2D2D2D2D2D2D2D2DCD
:10234000CDF9466C617368D0B4C8EBD7D6B7FBB48F
:10235000AE2D2D2D2D2D2D2D2D2D2D2D2D0D0A009C
:10236000000000200D0A20CDF9466C617368B4E6C8
:10237000B4A2B5C4B5C4CAFDBEDDCEAA3A0D0A25C5
:10238000730D0A004C0000200D0A20466C61736832
:10239000B6C1C8A1B5C4CAFDBEDDCEAA3A0D0A2594
:1023A000730D0A009A9999999999B93F6020002074
:1023B0000D0A20CDF9466C617368B4E6B4A2B5C4C9
:1023C000D0A1CAFDB5C4CAFDBEDDCEAA0D0A00006B
:1023D0002566200D0A000000B02000200D0A20B65E
:1023E000C1C8A1B5C4D0A1CAFDB5C4CAFDBEDDCE69
:1023F000AA0D0A009401234210B586B004460121BB
:1024000044F20400FFF778F94FF40070ADF81400BF
:1024100003208DF8160018208DF8170005A919481B
:10242000FFF764F84FF48060ADF8140004208DF8D5
:10243000170005A91348FFF759F825208DF800006B
:1024400003208DF801008DF8020001208DF80300B3
:102450006846FFF707F901940020ADF80800ADF8D1
:102460000A00ADF80C00ADF810000C20ADF80E001D
:1024700001A90548FFF716FC01210348FFF706FCF8
:1024800006B010BD000801400038014010B5002919
:102490000AD00878002807D005487844FEF704FCE5
:1024A000002801D0002010BD0248784410BD000073
:1024B0004A0800004208000021F00042A2F16052E8
:1024C000B2F5801F01F0004328BFD2F17F6C0BD919
:1024D0005FEA001C43EAC20242EB507018BF70472B
:1024E00028BF20F001007047B2F5801FBCBF18461E
:1024F00070474FEA410C1CF5001F02D2084600F05D
:1025000026BB70B500F074F900000089FFF7F6BF34
:102510004FF00040A0F580007047000010B591EA30
:10252000030F48BF83F0004300F1BE81841A71EBB2
:10253000030C05D2121943EB0C03001B61EB0C01D9
:10254000DFF824E14FEA1154A4EB135C1EEA430FB9
:1025500018BF9EEA445F73D023EA0E03DCF1200E1D
:1025600021EA045143F4801332D322FA0CFE10EB1B
:102570000E0023FA0CFE41EB0E01CCF1200E03FA03
:102580000EFE10EB0E0051F10001B1F5801FCCF1F1
:10259000200E32D201EB045112FA0EF2BDE81040C7
:1025A00058BF7047401C38BF5FEA420218BF7047EF
:1025B000002814BF20F0010041F100014FEA41035F
:1025C00013F5001F38BF7047A1F1C04100F05EB99C
:1025D000012A43EB0302ACF1200CDCF11F0E32BFE9
:1025E0004FF0000E23FA0CF310EB030041EB045103
:1025F000B4EB115FD0D0A1EB045101F58011490873
:102600005FEA300001EB04510ED350F1000038BFF7
:1026100012FA0EFE08D1BDE81040C9E7401C38BFD1
:102620005FEA4202CAD1C3E7BDE810404FEA410366
:1026300013F5001F38BF7047A1F1C04100F026B963
:102640009EEA445F08D011EA5E0FBDE8104004BF67
:1026500001F0004100207047BDE8104070B500F067
:10266000C7F800BF64FBBE3E0000E0FF10F0004270
:1026700048BF4042B0FA80F310FA03F10AD0C3F128
:102680001D0303F580634FEA415002EB035202EB56
:10269000D12170474FF0000070470000DFF848C1BB
:1026A00070B51CEA111E1EBF1CEA13159EEA0C0F22
:1026B00095EA0C0F00F06F8081EA030423EA4C13C3
:1026C0004EEAD47E21EA4C1141F4801143F4801388
:1026D000AE44A1FB024CA0FB0365AEF17F7E361930
:1026E00055EB0C05A1FB034C4CF10003A0FB021CB5
:1026F00016EB0C06654153F10003094218BF46F082
:10270000010613F4007F0BD14FEA03314FEA053085
:10271000340341EA155140EA16506FF003020AE013
:102720004FEAC3214FEAC520F40241EA555140EA7D
:1027300056506FF0020202EB2E4201EB025585EA81
:10274000CE710AD05FEA440C18BF24F0004450F167
:10275000000041F1000120EAD47040F2FE7C6245A5
:1027600000D270BDA84214BF4FF080444FF04044E7
:10277000002E08BF0024BEF1806FA8BFA1F1C041A8
:10278000BDE8704080F282804FF0000001F1C0414E
:1027900001F0004170479EEA0C0F0CEA131518BFB8
:1027A00095EA0C0F06D04FF0000081EA030E0EF000
:1027B000004170BD00F01CF88900013E00F007B830
:1027C00000F009B84FEA430C5FEA5C5C08D081EA8C
:1027D000030100F05BB84FEA410C5FEA5C5CF6D1A4
:1027E0004FF00000014970470000FF070000F87F2C
:1027F0000EF1020E2EF0030E5EF8046B364205D485
:10280000012A43EB030515F5001F12D8012841EBFF
:10281000010C1CF5001F0CD80ED14FEAD17C15F528
:10282000001F0CEB4C0C0CF1020C08BF4CEBD37CE2
:1028300004E04FF0080C01E04FEAD37C0CEB4C05B0
:1028400026FA05F606F00706B6F1040C06D20EEBE2
:10285000860CBDE870404CF0010C6047DFE80CF0DE
:10286000090B02024FF000414FF00000A1F50021DA
:1028700070BD19461046012851EB010418BFD4F56C
:10288000001484BF002001F0004170BD0808A0F5CD
:1028900000114FEA3101704710B591EA030F48BFAC
:1028A00083F000433FF542AE841A71EB030C07D26C
:1028B00012198CF0004C43EB0C03001B61EB0C0174
:1028C000DFF8A4E14FEA1154A4EB135C1EEA430FB6
:1028D00018BF9EEA445F00F0B08023EA6E035242C4
:1028E00021EA0451C3EB6E0338BF5B1EDCF1200EFE
:1028F00025D322FA0CFE10EB0E0043FA0CFE41EB3E
:102900000E01CCF1200E03FA0EFE10EB0E0051F179
:102910000001CCF1200E29D412FA0EF201EB045181
:10292000BDE8104058BF7047401C1CBFB2F1004FBB
:10293000704700280CBF491C20F00100704712EBC3
:10294000020E43EB030218BF4FF0010E4EEA4202A3
:10295000ACF1200CDCF11E0E54D943FA0CFE10EB46
:102960000E0051F1FF31CCF11E0ED5D50EF1010E46
:1029700012FA0EFE404141EB010101EB445C5FEABB
:102980005C5C10D910EBDE7001EB045138BFBEF176
:10299000004FBDE8104018BF704700280CBF491C0D
:1029A00020F00100704730D24FEAD42C11F500110D
:1029B00024F400641BD0B1FA81F20B3AA41AA41ECD
:1029C000D2F12003914030FA03F31943904001EB18
:1029D000CC71002C01EB0451BDE81040A8BF70473A
:1029E00001F1C0414FF0000001F000417047B0FA22
:1029F00080F310FA03F100D110BDE41A173C48052A
:102A0000C90AE4E701EB045110BD491001EB045180
:102A1000BDE810404FEA300002E04FF0000170477F
:102A20004A0008BF0042F8D0B2F5001F28BF704727
:102A300001F000414FF0000070479EEA445F07D06C
:102A400011EA5E0FBDE8104004BF0021002070476E
:102A5000BDE8104070B5FFF7CBFE00BF40DFF63E8B
:102A600083F00041104670470000E0FF43004FEA4A
:102A7000D30C4FEA3C0C43401FBF40070CF16051A0
:102A800013F0FE4F70471CF0006F03D100200CF0D4
:102A9000004170470CF0004343EA507010B540EA23
:102AA000CC0000F00EF800BF000000924FEA0001D9
:102AB000FFF7ECBE4FF000414FF00000A1F5002100
:102AC00070470EF1020E2EF0030E5EF8044B244206
:102AD00004D44FEA4102B2F17F4F11D84FEA4003CC
:102AE000B3F17F4F0CD80ED14FEAD07CB2F17F4FBB
:102AF0000CEB4C0C0CF1020C08BF4CEBD17C04E04D
:102B00004FF0080C01E04FEAD17C0CEB4C0324FAA7
:102B100003F404F00704B4F1040C06D20EEB840CA9
:102B2000BDE810404CF0010C6047DFE80CF00708EE
:102B300002024FF00040A0F5800010BD08464200A0
:102B400018BFD2F1807288BF00F0004010BDFF2195
:102B500041EAD050C0057047FDF704BE3031323332
:102B600034353637383941424344454640305800C1
:102B700030313233343536373839616263646566F3
:102B8000403078000400000800000000000000024F
:102B9000000100001000000002400000000000A042
:102BA0000000000005400000000000C80000000018
:102BB0000C4000000000409C000000001940000094
:102BC0000020BCBE0000000034400000BFC91B8EC6
:102BD00000000004B5400000504BCFD06607E2CFA4
:102BE000010000006C4100003E8251AADFEEA734D4
:102BF00001000000D9420000DCB5A0E23A301F9786
:102C0000FFFFFFFFB4450000FD25A0C8E9A3C14FA9
:102C1000FFFFFFFFFF3F00000000008000000000FA
:102C2000FF3F000000000080000000000D0A20B3FC
:102C3000CCD0F2D3C94E6F4D617828CEDEBCAB2923
:102C4000CBF9D3D0200D0A20B9A9B4F3BCD2B2CEAF
:102C5000BFBC0D0A20D5E2CAC7D2BBB8F653504953
:102C6000464C415348CAB5D1E920535049322D2D25
:102C7000573235513132380D0A2000000D0A4465B3
:102C80006275673A2046696C655B25735D20204C50
:102C9000696E655B25645D20205350492077726919
:102CA00074652062767465206E756D62657220743D
:102CB00068616E2032353620627974652020200DDF
:102CC0000A000000002D0008000000204C00000059
:102CD0006C0100084C2D00084C0000201427000057
:102CE000880100081C00000043000000F8FFFFFFFF
:102CF0000C0000000E0000000F0000002E0000007D
:102D0000BCD3D3CDA3A120B0C2C0FBB8F8A3A1A36C
:102D1000A1A3A10000A24A040000000000000000DE
:102D2000010203040607080900A0000000000000DB
:102D30000000000000000000000001020304010286
:0C2D40000304060708090204060800004E
:0400000508000131BD
:00000001FF
