:020000040800F2
:1000000060070020D9080008810300088303000866
:10001000870300088B0300088F030008000000001E
:100020000000000000000000000000009303000832
:1000300095030008000000009703000899030008DA
:10004000F3080008F3080008F3080008F3080008A4
:10005000F3080008F3080008F3080008F308000894
:10006000F3080008F3080008F3080008F308000884
:10007000F3080008F3080008F3080008F308000874
:10008000F3080008F3080008F3080008F308000864
:10009000F3080008F3080008F3080008F308000854
:1000A000F3080008F3080008F3080008F308000844
:1000B000F3080008F3080008F3080008F308000834
:1000C000F3080008F3080008F3080008F308000824
:1000D000F30800084D080008F3080008F3080008BA
:1000E000F3080008F3080008F3080008F308000804
:1000F000F3080008F3080008F3080008F3080008F4
:10010000F3080008F3080008F3080008F3080008E3
:10011000F3080008F3080008F3080008F3080008D3
:10012000F3080008F3080008F3080008F3080008C3
:1001300000F002F800F047F80AA090E8000C8244B2
:100140008344AAF10107DA4501D100F03CF8AFF28F
:10015000090EBAE80F0013F0010F18BFFB1A43F0A5
:10016000010318471846000038460000103A24BF23
:1001700078C878C1FAD8520724BF30C830C144BF0C
:1001800004680C607047000000230024002500264E
:10019000103A28BF78C1FBD8520728BF30C148BFEA
:1001A0000B607047662904F0C780002070471FB5B8
:1001B00001F014FC04000020002103F041FAE0608B
:1001C0001FBD10B510BD01F025FD1146FFF7EFFF73
:1001D00000F032F801F043FD03B4FFF7F2FF03BC77
:1001E00000F0DAFA2DE9F04704465849204603F0BA
:1001F000D7FF814603F0A8FF07460022544B03F0C7
:1002000017FB054603F032FABDE8F0872DE9F04709
:100210008246504603F098FF804600224C4B03F084
:10022000B9FC06464FF0C0424A4B03F001FB0446BE
:1002300003F01CFABDE8F08700F044FA4FF4A06028
:1002400000F06AFB4FF4E13000F0B4FA00F096F9E8
:1002500000F0BAF94048FFF7C5FF804603F074FF8D
:10026000064603F0F7F8044622460B463BA001F091
:1002700047F93948FFF7B6FF804603F065FF0646A9
:1002800003F036F9044622460B4634A001F038F953
:100290003148FFF7A7FF804603F056FF064603F0FC
:1002A0009DF9044622460B462CA001F029F90020B6
:1002B0002C4902F049FD074603F0D8F98146FFF7C3
:1002C000A5FF044603F040FF05462A460B4623A03F
:1002D00001F016F92448254902F074FE074603F0A0
:1002E000C5F98146FFF792FF044603F02DFF05464E
:1002F0002A460B4619A001F003F91D481D4902F0DA
:1003000099FF074603F0B2F98146FFF77FFF0446E5
:1003100003F01AFF05462A460B4610A001F0F0F83C
:1003200013E00120144908601449C1F894014FF406
:10033000FA7000F004FA00200F4908600F49C1F874
:1003400094014FF4FA7000F0FAF9EAE7DB0F494044
:1003500000806640FB2109400000704225660D0ABE
:10036000000000000000E03FBC96900F7AB6EB3F23
:10037000C710001C7BB6FB3F948121420000234242
:10038000704700BFFEE700BFFEE700BFFEE700BF0B
:10039000FEE7704770477047704700000CB50020BB
:1003A000019000906C48006840F480306A49086011
:1003B00000BF6948006800F4003000900198401CBC
:1003C0000190009818B90198B0F5A06FF1D162487A
:1003D000006800F4003010B10120009001E000201E
:1003E00000900098012843D15C48006840F010005C
:1003F0005A4908600846006820F003000860084673
:10040000006840F002000860534840685249486064
:100410000846406848600846406840F4806048608C
:100420000846406820F47C1048600846406840F464
:10043000E81048600846006840F08070086000BF1F
:100440004548006800F000700028F9D04248406834
:1004500020F00300404948600846406840F0020030
:10046000486000BF3C48406800F00C000828F9D103
:100470000CBD10B5FFF792FF10BD10B536480068EF
:1004800040F001003449086008464068344908409B
:100490003149486008460068324908402E490860E2
:1004A0000846006820F4802008600846406820F470
:1004B000FE0048604FF41F008860FFF7DAFF4FF03E
:1004C00000602949086010BD10B5002100200022FD
:1004D000214B5B6803F00C0121B1042906D00829E7
:1004E00028D107E0214B224C236027E01F4B204CF2
:1004F000236023E0184B5B6803F47010164B5B68B5
:1005000003F48032022303EB904022B9194B43439A
:10051000174C23600DE0104B5B6803F4003323B1EC
:10052000144B4343124C236003E0104B4343104CE5
:10053000236003E00D4B0E4C236000BF00BF064B51
:100540005B68C3F303130C4CE15C094B1B68CB40A5
:10055000074C236010BD0000001002400020024044
:100560000000FFF8FFFFF6FE08ED00E000127A0041
:100570000000002000093D000400002008B5012112
:10058000482000F053FD2020ADF8000010208DF829
:10059000030003208DF802006946094800F08AFA3A
:1005A0002021074800F033FB2020ADF80000694609
:1005B000044800F07FFA2021024800F028FB08BD23
:1005C000000C01400018014008B50121442000F052
:1005D0002DFD1C20ADF8000048208DF80300694671
:1005E000354800F067FA0120ADF8000028208DF8AA
:1005F00003006946314800F05DFA08BD10B50446B5
:1006000014B101202E4908702D480078002837D0F9
:100610001021294800F0E1FA78B10821264800F0BD
:10062000DCFA50B10421244800F0D7FA28B10121A6
:10063000224800F0D2FA012822D10A2000F07FF8E7
:1006400000201F49087010211B4800F0C6FA08B9A5
:10065000012010BD0821184800F0BFFA08B9022097
:10066000F7E70421144800F0B8FA08B90320F0E7CE
:100670000121124800F0B1FA01281BD10420E8E75B
:1006800010210D4800F0A9FA012813D108210A48C9
:1006900000F0A3FA01280DD10421074800F09DFACB
:1006A000012807D10121054800F097FA10B901206F
:1006B000034908700020CCE7001801400008014001
:1006C0001400002010B56FF0040000F074F92E48FB
:1006D00000682E49B0FBF1F02D49087008460078FB
:1006E00000EB4001C1EBC0104FF6FF7101EAC00002
:1006F0002849088010BD0146254A12784A434FF028
:10070000E0235A6100229A611A46126942F00102FE
:100710001A6100BF4FF0E022106900F001021AB127
:1007200000F48032002AF5D04FF0E022126922F066
:1007300001024FF0E0231A6100229A6170470146DE
:10074000144A12884A434FF0E0235A6100229A610A
:100750001A46126942F001021A6100BF4FF0E0220E
:10076000106900F001021AB100F48032002AF5D0BD
:100770004FF0E022126922F001024FF0E0231A61EB
:1007800000229A61704700000000002000127A00E9
:10079000160000201800002000BF704700BF4A4A22
:1007A000128802F04002002AF9D0C2B2464B1B1D4B
:1007B0001A80704710B586B00446012144F2040047
:1007C00000F034FC4FF40070ADF8140003208DF8F5
:1007D000160018208DF8170005A93C4800F06AF9AA
:1007E0004FF48060ADF8140004208DF8170005A9BF
:1007F000364800F05FF925208DF8000003208DF8C1
:1008000001008DF8020001208DF80300684600F019
:1008100088F801940020ADF80800ADF80A00ADF8A2
:100820000C00ADF810000C20ADF80E0001A9264810
:1008300000F0A3FC012240F22551234800F035FDD1
:100840000121214800F025FD06B010BD10B540F291
:1008500025511D4800F00EFE10B31B4800F08AFD24
:10086000C4B21B48008800F40040C8B9184800888A
:1008700000F4804060B10A2C03D0002014490880A5
:1008800020E01348008840F400401149088019E036
:100890000D2C06D10E48008840F480400C49088099
:1008A00010E00B480088C0F30D000A490C540848BA
:1008B0000088401C0649088008460088C72801DDDA
:1008C0000020088010BD00000038014000080140F1
:1008D00020000020380000200948804709480047D0
:1008E000FEE7FEE7FEE7FEE7FEE7FEE7FEE7FEE7E0
:1008F000FEE7FEE704480549054A064B704700003D
:100900007B0400083101000860010020600700201E
:10091000600300206003002031490143314A116027
:10092000704770B5002100230F22C47804B32D4C0A
:10093000246804F4E064C4F5E064210AC1F104030E
:10094000CA40447804FA03F1847814402143090131
:10095000254C0678A155047804F01F050124AC400D
:1009600005786D11AD0005F1E025C5F8004109E0FD
:10097000047804F01F050124AC401C4D0678761164
:1009800045F8264070BD1A4A0A400243154B1B1F0A
:100990001A60704739B1134A121D12680243114B95
:1009A0001B1D1A6006E00F4A121D126882430D4B90
:1009B0001B1D1A607047042808D14FF0E021096917
:1009C00041F004014FF0E022116107E04FF0E02117
:1009D000096921F004014FF0E02211617047000025
:1009E0000000FA050CED00E000E400E080E100E02A
:1009F00080FFFF1F10B50446CC48844208D1012176
:100A0000042000F02DFB0021042000F029FB46E02B
:100A1000C748844208D10121082000F021FB0021B1
:100A2000082000F01DFB3AE0C248844208D10121B1
:100A3000102000F015FB0021102000F011FB2EE02B
:100A4000BD48844208D10121202000F009FB00218B
:100A5000202000F005FB22E0B848844208D10121A3
:100A6000402000F0FDFA0021402000F0F9FA16E0E5
:100A7000B348844208D10121802000F0F1FA00211E
:100A8000802000F0EDFA0AE0AE48844207D101214F
:100A9000801500F0E5FA0021A01500F0E1FA10BD84
:100AA00010B50121084600F0DBFA0021012000F01A
:100AB000D7FA10BD2DE9F04102460025002600209E
:100AC00000230024002791F803C00CF00F0591F8D3
:100AD00003C00CF0100CBCF1000F03D091F802C061
:100AE0004CEA050591F800C0BCF1000F31D0146844
:100AF00000202BE04FF0010C0CFA00F3B1F800C01D
:100B00000CEA03069E4220D183004FF00F0C0CFA32
:100B100003F7BC4305FA03FC4CEA040491F803C054
:100B2000BCF1280F06D14FF0010C0CFA00FCC2F802
:100B300014C00AE091F803C0BCF1480F05D14FF092
:100B4000010C0CFA00FCC2F810C0401C0828D1D3DC
:100B50001460B1F800C0BCF1FF0F34DD5468002010
:100B60002EE000F1080C4FF0010808FA0CF3B1F880
:100B700000C00CEA03069E4221D183004FF00F0C07
:100B80000CFA03F7BC4305FA03FC4CEA040491F8A1
:100B900003C0BCF1280F05D100F1080C08FA0CF8CD
:100BA000C2F8148091F803C0BCF1480F07D100F1DE
:100BB000080C4FF0010808FA0CF8C2F81080401C2D
:100BC0000828CED35460BDE8F0814FF6FF71018054
:100BD000022181700421C170704702460020936891
:100BE0000B400BB1012000E00020704701468868EF
:100BF00080B2704702460020D3680B400BB1012041
:100C000000E0002070470146C86880B2704701616B
:100C10007047416170470AB1016100E0416170476E
:100C2000C16070474FF480320A4382618161826102
:100C300082698269704702460020434B18684FF66C
:100C40008073184040EA021008433F4B1860704719
:100C50003E49C8617047F0B50A46002300240021D0
:100C6000002500F00046B6F1004F02D1364EF16982
:100C700001E0354E7168C0F3034583B200F44016BD
:100C8000B6F5401F08D121F070612F4E766826F02E
:100C900070662D4F7E6012E000F48016B6F5801F5E
:100CA00006D1032606FA05F4A14341F0706106E07F
:100CB000460D360103FA06F6B14341F0706122B1E8
:100CC000460D360103FA06F6314300F00046B6F150
:100CD000004F02D11C4EF16101E01B4E7160F0BD6E
:100CE00030B500228B071C0F0F2303FA04F2164BBA
:100CF00008338C1053F824309343134C08348D1070
:100D000044F8253023468C1053F824308C07240FE8
:100D100000FA04F423430C4C08348D1044F82530B9
:100D200030BD0A49DC31086070470000000801400E
:100D3000000C014000100140001401400018014067
:100D4000001C014000200140000001400000204242
:100D5000DF48006840F00100DD490860084640684F
:100D6000DC490840DA49486008460068DA4908402A
:100D7000D74908600846006820F4802008600846CB
:100D8000406820F4FE0048604FF41F008860704700
:100D9000CF49096821F48031CD4A116011460968B4
:100DA00021F480211160B0F5803F03D0B0F5802F91
:100DB0000ED106E0C649096841F48031C44A116089
:100DC00007E0C349096841F4A021C14A116000E06D
:100DD00000BF00BF704710B501460022002300206D
:100DE0004A11012A02D1BA4C236806E0022A02D134
:100DF000B74C236A01E0B64C636A01F01F0201247C
:100E000094401C400CB1012000E0002010BD38B51A
:100E1000002000900024002500BF3120FFF7DBFFF9
:100E200005460098401C00900098B0F5A06F01D0D6
:100E3000002DF2D03120FFF7CEFF08B1012400E0F1
:100E40000024204638BD01460020A14A106820F049
:100E5000F80040EAC10010607047A0490860704780
:100E6000024600209A4B586820F47C1042EA0103A5
:100E70001843974B58607047984908667047014679
:100E80000020934A506820F00300084350607047E8
:100E90008F48406800F00C007047014600208C4AE3
:100EA000506820F0F0000843506070470146002071
:100EB000874A506820F4E06008435060704701465C
:100EC0000020834A506820F4605040EAC10050601E
:100ED000704729B17E4A527A02437D4B5A7204E030
:100EE0007B4A527A82437A4B5A7270477B49D83197
:100EF0000860704701460020754A506820F4404061
:100F00000843506070470021714A20321170704AC6
:100F100082F82010012802D004280AD104E001211F
:100F20006B4A2032117005E00521694A20321170A8
:100F300000E000BF00BF704769490860704764491E
:100F4000096A0143624A1162704765494439086081
:100F5000704730B500210022002400235C4D6D68ED
:100F600005F00C0121B1042905D0082923D105E0A1
:100F70005C4D056022E05B4D05601FE0544D6D68DF
:100F800005F47012524D6D6805F48034022505EBAE
:100F900092421CB9544D554305600BE04C4D6D68B1
:100FA00005F400351DB1504D5543056002E04D4D2F
:100FB0005543056002E04B4D056000BF00BF444D46
:100FC0006D6805F0F0010909484D6B5C0568DD406E
:100FD00045603F4D6D6805F4E061090A434D6B5C67
:100FE0004568DD4085603A4D6D6805F46051C90A79
:100FF0003E4D6B5C4568DD40C560354D6D6805F460
:101000004041890B3A4D6B5CC568B5FBF3F5056152
:1010100030BD29B12E4A526902432D4B5A6104E07A
:101020002B4A526982432A4B5A61704729B1284A98
:1010300092690243264B9A6104E0254A92698243F1
:10104000234B9A61704729B1214AD2690243204B50
:10105000DA6104E01E4AD26982431D4BDA617047AF
:1010600029B11B4AD2680243194BDA6004E0184ADE
:10107000D2688243164BDA60704729B1144A12696C
:101080000243134B1A6104E0114A12698243104B68
:101090001A61704712494039086070470F49C864A7
:1010A00070470B49C87170470948406A40F080702A
:1010B00007494862704701460020054A92680A4085
:1010C0000AB1012000E00020704701498872704792
:1010D000001002400000FFF8FFFFF6FE0000424251
:1010E0008004424200127A0000093D0022000020E4
:1010F0003200002010B50446FB48844209D101218A
:101100008803FFF7ADFF00214FF48040FFF7A8FFF1
:1011100032E0F648844209D101214804FFF7ADFFCF
:1011200000214FF40030FFF7A8FF25E0F04884428B
:1011300009D101218804FFF7A0FF00214FF480208E
:10114000FFF79BFF18E0EB48844209D10121C80456
:10115000FFF793FF00214FF40020FFF78EFF0BE015
:10116000E548844208D101210805FFF786FF0021E8
:101170004FF48010FFF781FF10BD2DE9F04786B0D6
:1011800005460E460024A24600BFA1460027B089AE
:1011900000B100BF2F462C8A4CF6FF700440F08847
:1011A00004432C82AC894EF6F3100440B088318998
:1011B0000843718908430443AC81AC8A4FF6FF4071
:1011C0000440B0890443AC8201A8FFF7C2FEC648C0
:1011D000874202D1DDF810A001E0DDF80CA0A8895B
:1011E00000F4004040B10AEBCA0000EB0A1031687D
:1011F0004900B0FBF1F807E00AEBCA0000EB0A1067
:1012000031688900B0FBF1F86420B8FBF0F004010C
:101210002009642101FB1089A88900F4004040B135
:10122000322000EBC900B0FBF1F000F007000443EE
:1012300008E0322000EB09106421B0FBF1F000F06F
:101240000F0004432C8106B0BDE8F0874FF416511F
:10125000016000218180C18001810C214181002138
:101260008181704710B502460020108A4FF2FF03BB
:1012700018400B884C8823438C882343CC88234315
:101280001843108210BD0021018041808180C180FF
:10129000704721B1828942F40052828104E0828940
:1012A0004DF6FF731A4082817047F0B50346002463
:1012B00000260025002040F66A17B94200D100BF81
:1012C0001846C1F3421401F01F06012707FA06F57C
:1012D000012C01D10C3004E0022C01D1103000E0CF
:1012E00014301AB107682F43076002E00768AF4364
:1012F0000760F0BD1AB1838A0B43838202E0838AC0
:101300008B4383827047028A4FF6F0731A40028241
:10131000028A0A430282704782894FF2FF731A40A1
:10132000828182890A438281704721B1828942F099
:101330000202828104E082894FF6FD731A408281A5
:101340007047028A4FF6DF731A400282028A0A430C
:101350000282704721B1028A42F48042028204E094
:10136000028A4BF6FF731A4002827047C1F30802EB
:101370008280704701468888C0F3080070478189E1
:1013800041F0010181817047028BD2B20283028B4E
:1013900042EA012202837047028B02F47F420283F9
:1013A000028B0A430283704721B1828A42F02002F5
:1013B000828204E0828A4FF6DF731A40828270478D
:1013C00021B1828A42F01002828204E0828A4FF6C2
:1013D000EF731A408282704721B1828A42F008027C
:1013E000828204E0828A4FF6F7731A408282704745
:1013F00021B1828942F40042828103E08289C2F3F2
:101400000E028281704721B1828A42F40062828298
:1014100004E0828A4FF2FF731A4082827047828A08
:101420004FF6FB731A408282828A0A438282704797
:1014300021B1828A42F00202828204E0828A4FF65F
:10144000FD731A408282704702460020B1F5007F8A
:1014500000D100BF13880B400BB1012000E0002039
:10146000704701F40072B2F5007F00D100BFCA439B
:101470000280704770B5024600240023002500203A
:1014800040F66A16B14200D100BFC1F3421501F027
:101490001F03012606FA03F3012D02D1968933407A
:1014A00006E0022D02D1168A334001E0968A3340CD
:1014B0000C12012606FA04F41688344013B10CB15C
:1014C000012000E0002070BD10B50022002340F68E
:1014D0006A14A14200D100BF0A1201249440A3B2B1
:1014E000DC43048010BD000000380140004400408F
:1014F00000480040004C0040005000407047000091
:101500000FB4044910B503AA029800F055FA10BCB4
:101510005DF814FB1C0000202DE9F0410E46044646
:10152000002020622046E168884730B3252805D096
:10153000D4E901219047206A401CF2E7E168204687
:1015400000278847050018D0A5F14100192802D8C6
:1015500020354FF400673246294620462760FEF7C3
:1015600021FE40B1012804D0F61D26F007060836FA
:10157000D8E7361DD6E72846DAE7206ABDE8F081CD
:10158000704770477047704710B500F02BFA00683D
:1015900010BD10B5044600F025FA046010BD704778
:1015A0002DE9FF4F0C461E464FF0FF378BB0D2E9B6
:1015B0000001DDF860800A908A46C1F30A5505B93A
:1015C0003D46002108464FF00000BAF1000F00F43C
:1015D000400005DA00EB80004FF4400101EA5000C2
:1015E0004FEA9059B9F1010F00DDB9460A9850EA67
:1015F0004A000ED044F61050A5F2FF3545432F1493
:10160000B8F1000F1ED07542291E1EDDC9F100027F
:101610001CE0B8F1010F4FF0000001D0302103E0D1
:10162000F24305E02154401CB042FBDB304600226F
:10163000002121540B99C1F80880C1E900200FB0A6
:10164000BDE8F08FBD1B6D1CDEE74A4600DA69423B
:1016500006A800F069FA06AB93E8070003AB83E83D
:10166000070050460A9900F041FB8DE80700A0F5FD
:1016700000501F3800900398002D09DD42F21F0131
:101680004A46084403A90390684600F0A0FD08E01C
:10169000A0F500504A461F3803A90390684600F0A1
:1016A000AAFD8DE807000004000C03D04FF0FF30C6
:1016B000410800E01046B8F1000F03D0002200926C
:1016C00015461EE0751E05D400F090F930326255C3
:1016D0006D1EF9D5B3460122084302D000227F1CBB
:1016E00004E02078302801D100227F1E002A0997CB
:1016F00086D01DE0112D07DA00F078F930326255FE
:101700006D1C50EA0102F5D1084302D00098C8B11F
:101710000EE00021681E05E0235C625C63542254E5
:10172000401E491C8142F7DBAB46A81B401E0990B6
:10173000002004F80B000B98099AC0F80880C0E953
:10174000002B7CE711264FF0000859E72DE9F04FF8
:1017500088460446D21D22F0070191B0D1E900016C
:10176000CDE90A0100F07DFE02460B98C00F01D0C2
:101770002D2007E02068810701D52B2002E02021E1
:1017800001EAC000032A099001D0072A05DB0346BD
:101790004146204600F088F90BE12078800601D50B
:1017A000E06900E00620B8F1650F814606D0B8F187
:1017B000660F18D0B8F1670F70D131E00020B9F191
:1017C000110F009001DB112301E009F101030AAAC6
:1017D00001A90CA8FFF7E4FEDDE90C70002609F171
:1017E0000105834647E001204B4600904FF000473B
:1017F0000AAA01A90CA8FFF7D3FEDDE90DB00C99E8
:101800005D46002610B909F101000D18B9EB05007D
:1018100003D4C0F1FF3609F10105A5EB09002BE067
:10182000B9F1010F01DA4FF001090020B9F1110FF0
:101830000090484601DD112300E003460AAA01A9F1
:101840000CA8FFF7ADFEDDE90C704D46002683467F
:10185000207800070AD4AB4500DA5D4601A8012DC7
:1018600004DD411911F8011C302907D04F4502DA77
:1018700017F1040F04DA012082460FE06D1EEEE737
:10188000002F02DCED1B3E4403E0781CA84200DD83
:101890007D1CB81B00F1010A4FF0004720780007BB
:1018A00003D4AA4501DB4FF0FF3A0021B7F1004F06
:1018B0000DF143088DF8431024D002202B23002F74
:1018C00001DA7F422D230A21021EA0F1010000DC73
:1018D0005FB197FBF1FC97FBF1F201FB1C7C174613
:1018E0000CF1300C08F801CDEEE7A8F1010003700F
:1018F0002188090501D5452100E06521A0F10108F5
:1019000000F8011C09980FA9A1EB0807FF1D00B101
:101910000120411901EBEA70A1693844081A401E00
:10192000A0612078C00602D42046AFF30080099859
:1019300028B1D4E901219047206A401C2062207818
:10194000C00622D52046AFF300801EE0002E04DB47
:10195000B34502DD01A8805D00E03020D4E901211B
:101960009047206A401C2062761CAAF101005FEAC1
:10197000000A0AD100F032F8C0680168405CD4E97E
:1019800001219047206A401C2062281EA5F1010514
:10199000DCDC07E0D4E9012118F8010B9047206A4C
:1019A000401C2062381EA7F10107F3DC2046AFF38C
:1019B0000080032011B043E6074B70B50D467B4411
:1019C00000F05FF80446284600F01CF910B14FF013
:1019D000FF3070BD204670BDDBEDFFFF0048704753
:1019E00020010020004870470001002030B5B0F110
:1019F0000A024FEA900E71F100034EEA817EB0EBCD
:101A00000E0061EB91014FEA101E4EEA017E10EBD1
:101A10000E0041EB11114FEA102E4EEA016E10EB51
:101A20000E0041EB11214FEA104E4EEA014E10EB31
:101A30000E0041EB1141401841F100014FEAD00086
:101A400040EA41704FEAD10110EB80054FEA810472
:101A500044EA907444EB01046D1944EB0404521BF6
:101A6000A3414FF0000348BF0A3200D530BD401CEF
:101A700041F1000130BD000001694A1C0261087893
:101A8000704700B58FB0CDE90131002105910549BE
:101A90007944CDE9031011466846FFF73DFD0FB0CC
:101AA00000BD0000E5FFFFFF2DE9F0411F460446A1
:101AB00003260168072A01F4006004DB08B116A5BB
:101AC00005E016A503E008B115A500E015A521F075
:101AD00010002060A069C01EA0610FB1401EA0616F
:101AE0002046AFF300804FB1D4E90121384690473A
:101AF000206A401C2062C01C206206E0206AFAE7CF
:101B0000D4E9012115F8010B9047761EF8D2204642
:101B1000AFF30080BDE8F0814E414E006E616E0073
:101B2000494E4600696E66002DE9F047814616462B
:101B30008AB0334878440DC88DE80D0030487844A9
:101B4000801C03AC0DC884E80D0041F69B300844AE
:101B5000372190FBF1F290FBF1F5A5F1800501FB37
:101B600012041B3C02D56442012000E00020DFF893
:101B700090A080460027FA44AAF1BE0A0DE0E007D3
:101B800009D03246684607EB47010AEB810100F0B5
:101B900032FB8DE8070064107F1C002CEFD1184F3A
:101BA0007F44AC3F18E0E80714D007EB04100DF1B8
:101BB000180A90E80E008AE80E00C068F04201D1D1
:101BC00098190890324606A903A800F014FB03AB4D
:101BD00083E807006D10641C002DE4D1324669468D
:101BE000B8F1000F03A802D000F0F1FA01E000F014
:101BF00002FBC9E90001C9F808200AB0BDE8F08776
:101C00002C2C0000007B00F08000704700487047DB
:101C1000000100207546FFF7F9FFAE460500694652
:101C2000534620F00700854618B020B5FEF762FE47
:101C3000BDE820404FF000064FF000074FF00008CD
:101C40004FF0000B21F00701AC46ACE8C009ACE84E
:101C5000C009ACE8C009ACE8C0098D46704704462D
:101C6000AFF300802046FEF7B7FA00004FF0013CCA
:101C700050F8042B51F8043B9A4221D1A2EB0C03FB
:101C8000934313EACC1317D150F8042B51F8043BBB
:101C90009A4215D1A2EB0C03934313EACC130BD158
:101CA00050F8042B51F8043B9A4209D1A2EB0C03E3
:101CB000934313EACC13DBD04FF00000704700BF12
:101CC000D01A01BAB1FA81F101F0180122FA01F03B
:101CD000CB40C1F12001DBB2C0B2C01A2CFA01F333
:101CE000D11A914311EAC311E6D170475FEA400C63
:101CF00008BF91F0000F4FEA8C234FEAC12243EA5C
:101D000051514FEA1C5018BF00F5F0404FEA300027
:101D100018BF41F000415FEA6C5C00F02980BCF123
:101D2000FF3F08BF40F080407047130C06BF12040D
:101D30004FF0100C4FF0000C130E04BF12020CF108
:101D4000080C130F04BF12010CF1040C930F04BF15
:101D500092000CF1020CD30F04BF52000CF1010CE5
:101D600011464FF00002A0F11F00A0EB0C007047DD
:101D700011F0004F08BF704731F000413FF4D5AF7C
:101D80000B0C06BF09044FF0100C4FF0000C0B0EAB
:101D900004BF09020CF1080C0B0F04BF09010CF180
:101DA000040C8B0F04BF89000CF1020CCB0F04BF95
:101DB00049000CF1010CCCF12003A0EB0C0022FA3D
:101DC00003F302FA0CF241EA030100F1010070474B
:101DD00020F07F4C80EA030023F07F47ACEB070341
:101DE00003F57C5300F0004003F1FF032DE9804927
:101DF0004FEA154B09B44FEA144325EA0B4E24EA87
:101E000003480FF2042606EB132749083E785FEAE1
:101E1000320203FB0667C7F5000707FB06F64FEA29
:101E200054374FEAD64606F1020607FB066CCCF1A2
:101E3000005C4FEA1C472CEA074C07FB06F40CFB3E
:101E400006F504EB15464FEA961634BF00204FF016
:101E500000404FEAD13706FB07FC4FEA1C4C0CFB55
:101E60000BF7D21B03FB0CF761EB07010CFB0EF722
:101E7000B0EB074072EB17420CFB08F734BFA2EB44
:101E80000742B2EB074261EB17414FEA0C444FEABD
:101E9000910706FB07FC4FEA1C4C0CFB0BF7B0EB61
:101EA000C74072EB573203FB0CF734BFA2EBC742BB
:101EB000B2EBC74261EB57310CFB0EF7B0EBC7003A
:101EC00072EB57720CFB08F734BFA2EBC702B2EB00
:101ED000C70261EB5771039F4FEA816141EA92119A
:101EE00004EBCC044FEAD1374FEA826206FB07FCD1
:101EF00042EA90124FEA80604FEA1C4C0CFB0BF751
:101F0000D21B03FB0CF761EB07010CFB0EF7B0EBE8
:101F1000074072EB17420CFB08F734BFA2EB0742F5
:101F2000B2EB074261EB17414FEA8C554FEA91073C
:101F300004EB9C2406FB07FC4FEA1C4C0CFB0BF744
:101F4000B0EBC74072EB573203FB0CF734BFA2EB88
:101F5000C742B2EBC74261EB57310CFB0EF7B0EB57
:101F6000C70072EB57720CFB08F734BFA2EBC70235
:101F7000B2EBC70261EB577115EB4C254FEA81615B
:101F800041EA92114FEA82624FEAD13742EA901257
:101F900006FB07FC44F100044FEA80604FEA1C4C4A
:101FA0000CFB0BF7D21B03FB0CF761EB07010CFBDF
:101FB0000EF7B0EB074072EB17420CFB08F734BF8B
:101FC000A2EB0742B2EB074261EB174115EB1C1580
:101FD0004FEA813141EA92414FEA823242EA90422D
:101FE0004FEA80304FEA0C7644F1000448EA03439C
:101FF0004EEA0B484FF0000EB2EB080C71EB0307F2
:1020000024BF624639464EEB0E0E4FF0000B00180F
:10201000524149414BEB0B0BB2EB080C71EB030740
:102020007BF1000B24BF624639464EEB0E0E4FF09B
:10203000000B0018524149414BEB0B0BB2EB080C63
:1020400071EB03077BF1000B24BF624639464EEB70
:102050000E0E51EA020718BF46F0010616EB0E7687
:1020600055F1000254F1000103D5BDE88901BDE836
:102070000088BDE88901BDE80048B619524141EB2E
:102080000101A3F10103704780807F7E7D7C7B7A14
:102090007978777676757473727171706F6E6E6D14
:1020A0006C6C6B6A6A6968686766666564646363BA
:1020B00062616160605F5F5E5E5D5D5C5C5B5B5A40
:1020C0005A595958585757565655555554545353AD
:1020D00052525251515050504F4F4F4E4E4D4D4D08
:1020E0004C4C4C4B4B4B4A4A4A4949494848484753
:1020F0004747474646464545454444444443434391
:102100004342424242414141002B26D4770021D034
:102110001CB54FEA370703B44FF010004FF0100121
:102120004FF000000FBCBDE810400BF1010BBBF1FC
:10213000010F08BF5FEA170722BF12F1010211F178
:1021400001014FF0004143F1000300F0004043EA79
:1021500000007047F9D35708DAE746EA064613F15C
:10216000400F4FEA16461FDD13F1200FDFBF164365
:102170000A46002120335B42C8D0C3F1200746EA5B
:10218000064602FA07F74FEA164646EA0706C3F183
:10219000200722FA03F201FA07F721FA03F14FF0C0
:1021A000000342EA0702B1E746EA020646EA0646AB
:1021B0004FEA164646EA0106BCBF46EA0646360C1A
:1021C0004FF000034FF000024FF000019EE72DE9B1
:1021D000C048934630B491E8380007C831EA400C53
:1021E00048BF34EA430C03D5FFF7F2FDFFF78CFF3D
:1021F000F0BCBDE800882DE9C048934630B491E8B2
:10220000380007C810F0804F08BF13F0804F03D18B
:1022100000F005F8FFF778FFF0BCBDE8008820F07B
:102220007F4780EA030023F07F4C07EB0C03A3F504
:102230007C5300F00040A3F1FE0392F0000F00F089
:10224000B38095F0000F00F077802DE901494FEA47
:1022500011404FEA144621EA004800FB06FC24EA3C
:10226000064708FB06F607FB08F800FB07F718EB24
:1022700006484CEB164C4FEA124B18EB07484FEA56
:1022800015464CEB174022EA0B4E0BFB06FC25EAE9
:1022900006470EFB06F607FB0EFE0BFB07F71EEBD1
:1022A000064E4CEB164C4FF000061EEB074E4CEB67
:1022B000174B18EB0B0840F1000018EB0E0B58EB16
:1022C000000840F100008F1A4FF000013CBFC943E5
:1022D000661B14BFB5EB040C00213CBFC943F61BC1
:1022E0004FEA17444EEA8E0E27EA04454FEA1C4790
:1022F00004FB07622CEA074C05FB07F70CFB05F60D
:1023000004FB0CFC16EB074642EB174216EB0C469F
:1023100042EB1C421BEB060658EB0202414146EA27
:102320009E0601D5BDE80189B619524141EB010174
:10233000A3F10103BDE801894FEA14454FEA1147B3
:1023400024EA054621EA074C05FB07F406FB07F7DC
:102350000CFB06F105FB0CFC11EB074144EB1744A9
:102360004FEA124711EB0C4144EB1C4422EA074CA4
:1023700005FB07F206FB07F70CFB06F605FB0CFC5A
:1023800016EB074642EB174216EB0C4642EB1C4598
:102390006A1854F1000148BF7047B619524141EB29
:1023A0000101A3F10103704795F0000F37D04FEA08
:1023B00011424FEA144721EA024624EA074C02FB85
:1023C00007F106FB07F70CFB06F402FB0CFC14EB11
:1023D000074441EB17414FEA154714EB0C4441EB1E
:1023E0001C4125EA074C02FB07F506FB07F70CFB2F
:1023F00006F602FB0CFC16EB074645EB174516EB01
:102400000C4645EB1C42121951F1000148BF7047C0
:10241000B619524141EB0101A3F1010370474FEAA4
:1024200014454FEA114724EA054621EA074C05FB0B
:1024300007F106FB07F70CFB06F24FF0000605FB61
:102440000CFC12EB074241EB174112EB0C4251EB33
:102450001C4148BF7047921841EB0101A3F10103F1
:102460007047490050EAC12018BF04204A0D18BF28
:1024700040F0010040F2FF72B2EB515F08BF40F044
:102480000200012808BF0520704700002DE9F74F22
:10249000144694B00021C4E902111599079121F066
:1024A0000045C9498D4206DC1599C4E9000117B001
:1024B0000020BDE8F08FC549DFF814A3A9423CDD38
:1024C0000799C44E0029C44FC44A1599534619DDD3
:1024D00001F050FD554506D0C14AC24B01F04AFDFE
:1024E000C4E900010AE04FF0D352BE4B01F042FDB7
:1024F00032463B4601F03EFDC4E9000117B0012021
:10250000BDE8F08F01F0E4F8554506D0B44AB54B6C
:1025100001F0DEF8C4E900010AE04FF0D352B14BFC
:1025200001F0D6F832463B4601F0D2F8C4E900018A
:1025300017B04FF0FF30BDE8F08FAB49A9421599B5
:1025400078DB21F0004183468846A84AA84B01F079
:1025500021FB0022A74B01F0BBF801F0C1FA099062
:1025600001F0EDFA06460F469C4A534601F012FB75
:1025700043465A4601F00CFC80468A46984A994BDD
:102580003046394601F006FB2A0D01250B924246E2
:10259000534601F0FDFB032DC4E9000139D00B982F
:1025A000C1F30A51401A05EB45111139814230DA65
:1025B0009148C346784400EB0510CDF80CA00C9070
:1025C000D0E900233046394601F0E4FA02460B46D2
:1025D000049106905846039901F0CCFC80468A4647
:1025E00002460B465846039901F0C4FC049B069A28
:1025F00001F0C0FC83460C9803913946D0E90223D0
:10260000304601F0C7FA5A46039B01F0B3FC6D1C3B
:10261000BDE707980028A2BF099817B0BDE8F08F62
:10262000616881F000416160099817B04042BDE8DF
:10263000F08FFFE784461598C1F31301C0F30A50E9
:10264000A0F2F5304FEA601800F01F06C6F1200036
:10265000139000200690079041F4801E05206D46DF
:1026600076B1664A08EB00017A4452F8213002EB59
:102670008101B3404A68139922FA01F1194305E038
:102680005F4908EB0002794451F82210A1FB0E27A4
:10269000A1FB0C131A449A4234BF0123002303EB1D
:1026A000070A05EB8003D3E901B70F448F4234BF1B
:1026B0000121002193448B4411B1934502D903E0D9
:1026C000934501D2012100E00021C3E901B7514443
:1026D00045F82010011EA0F10100C1DC0298059F01
:1026E00000F10050800F12900298DDE9035680003F
:1026F00001F025FA834628460D9101F037FA6FF074
:102700001D0201F04DFECDE90E01304601F02EFA1A
:102710006FF03D0201F044FE80468A46384601F0E3
:1027200025FA6FF05D0201F03BFE07464246534634
:10273000119100F0CDFFDDE90E2300F0C9FF5A46EC
:102740000D9B00F0C5FF00250E465A4628460D9BFE
:1027500001F010FCDDE90E2301F00CFC424653466B
:1027600001F008FC3A46119B01F012FBDFF898A03B
:10277000244A534601F00EFA07468846234A244B62
:102780003146284601F006FA3A46434600F0A0FFDB
:10279000074688464FF0A84253463146284601F086
:1027A000F9F93A46434600F093FF159A12F0004FAC
:1027B00004D0129A81F0004152421292C4E9000101
:1027C000129817B0BDE8F08FFB21E93F7CD9024099
:1027D000FB21F93F7370032E8A19A33B000040547C
:1027E0003163621A61B4D03DFB21394183C8C96DA0
:1027F000305FE43F0000E03FE01F00005C1F00008E
:102800003E1F0000182D4454FB21F93D3326A6112C
:10281000460B113C2DE9FF4D21F0004807460C46C0
:10282000B8F1795F08DA01F05BF9002801BF0020F8
:10283000324904B0BDE8F08D3A46234610461946A9
:1028400001F0A8F9054602462D480E460B46062122
:10285000784400F05DF82A46334601F09BF9DDE943
:10286000022382468B463846214601F093F90446FE
:102870000F4652465B462846314601F08BF9224608
:102880003B4601F077FB07468A464FF0FF32284669
:10289000314601F085FD1B4A90450ADA3A46534617
:1028A00001F068FB04B00022BDE8F04D134B01F0CD
:1028B0006FBA154A4245A8BFA8F500154FF00004AD
:1028C000B8BF124D22462B4601F054FB06468846FF
:1028D00022462B460020094901F04CFB04460D46D8
:1028E0003A4653463046414601F044FB04B0224686
:1028F0002B46BDE8F04D01F04BBA00000000F03F60
:10290000141D00003333D33F0000E93F0000D23FE5
:102910002DE9F0414F1E00EBC7010446D1E900014B
:1029200015461E4637F006020DD02A46334601F002
:1029300031F97F1E04EBC703D3E9002300F0C8FE82
:1029400037F00602F1D1022F25D0042F13D0062F25
:1029500018BFBDE8F0812A46334601F01BF9D4E9DF
:102960000A2300F0B5FE2A46334601F013F9D4E9F4
:10297000082300F0ADFE2A46334601F00BF9D4E9F6
:10298000062300F0A5FE2A46334601F003F9D4E9F8
:10299000042300F09DFE2A46334601F0FBF8D4E9FB
:1029A000022300F095FE2A46334601F0F3F8D4E9FD
:1029B0000023BDE8F04100F08BBE00002DE9FF4D83
:1029C000054621F0004084B00C46B0F1795F0BDA87
:1029D0002846FFF746FD042808BF00F0ADF9284659
:1029E00008B02146BDE8F08D2A460B46104601F09E
:1029F000D1F806460F462A46234601F0CBF880461A
:102A000026488A4632463B4605217844FFF780FF38
:102A100083461098029160B3214A224B40465146AA
:102A200001F0B8F8CDE900015A4640465146029BF4
:102A300001F0B0F882468846DDE906014FF0FF322A
:102A400001F0AEFC5246434601F094FA32463B4652
:102A500001F0A0F8DDE9062301F08CFADDE900239E
:102A600001F088FA08B02A462346BDE8F04D01F08F
:102A70008FB90B465A463046394601F08BF8084A62
:102A8000084B00F025FE4246534601F083F808B09B
:102A90002A462346BDE8F04D00F01ABE521C000045
:102AA000495555555555C5BF2DE9F04D04468CB0D7
:102AB000904821F00047164698460D4609918742F6
:102AC00006DA2046294601F00BF8002800F0AE8017
:102AD0008948B8421CDC09980028BCBF85F0004535
:102AE00088F00048854A864B2046294601F050F977
:102AF00004460D46324643468248834901F03AFA7D
:102B000022462B4600F0E4FD002604460D46B04662
:102B100022462B461046194601F03CF88B46824669
:102B200002460B4601F036F80246089077480B46FD
:102B3000009106217844FFF7EBFECDE903107448BD
:102B400006217844009B089AFFF7E2FE52465B4656
:102B500001F020F8CDE9051052465B462046294693
:102B600001F018F807910090DDE90310DDE9053266
:102B700000F0AEFD079B009A01F00CF83246434688
:102B800000F0A6FD52465B4601F004F8324643468B
:102B900000F09EFD80460E465E4A5F4B0799009806
:102BA00000F0F8FF4246334600F092FD82468B4625
:102BB00022462B4600F08CFD80464F480E46B84218
:102BC00014985BDC00F0BBFF074642463346059194
:102BD00000F07EFDCDE9011042463346104619460D
:102BE00000F0D8FFDDE9013200F022FE52465B46DC
:102BF00001F0C0F922462B4601F0CAF8012201F08B
:102C0000CFFB3A46059B01F0C3F804460D460998F0
:102C1000022101EAA070C0F1010000F090FF0CB0A9
:102C200022462B46BDE8F04D00F0B4BF1498401C7E
:102C3000384320430BD01498012812D00CB0224600
:102C40002B46BDE8F04D0020344900F0F1BD0CB03A
:102C500025F000432246BDE8F04D0020304900F049
:102C6000E7BD20462946FFF7FCFB042808BF00F01B
:102C700063F820460CB02946BDE8F08D012802BF5C
:102C800040460CB0BDE8F08D00270B463A46204682
:102C9000294601F07DF852465B4601F079F804467A
:102CA0000D464246334600201C4900F0C1FD8346D4
:102CB0003A4688463346104600F06CFF0022184B17
:102CC00000F006FD06468A4622462B463846414617
:102CD00000F060FF3246534600F0FAFC5A46434685
:102CE00000F058FF0CB03A464346BDE8F04D00F006
:102CF000EFBC00000000303E2894E53F182D4454FE
:102D0000FB21E93F075C143326A6813C501B0000E1
:102D1000721B0000635555555555D53F0000F0BF57
:102D20000000F03F012201F03BBB00221346104699
:102D3000114600F07DBD0000024A0020110701F09D
:102D40002FBB000001FDFFFF2DE9F04D0546DFF828
:102D5000388221F000408D4F82B00C46404520DB88
:102D6000A0EB080129430BD08949884201DC10D12E
:102D70007DB102B028462146BDE8F04DFFF7D2BF35
:102D8000002CC7BF002001468248394602B0BDE88A
:102D9000F08D0120FEF7FDFB02B0BDE8F04DFFF71E
:102DA000C4BF7D49884244DA7C498142A1BF794849
:102DB0007B4902B0BDE8F08D2A46234610461946ED
:102DC00000F0E8FE8346024676480E460B46062192
:102DD0007844FFF79DFD5A46334600F0DBFE074678
:102DE00071488A465A46334604217844FFF790FDDD
:102DF0005A46334600F0CEFE0022434600F068FCFF
:102E000002460B463846514600F012FD2A4623463C
:102E100000F0C0FE654A664B00F0BAFF2A46234622
:102E200000F0B6FF02B05B4ABDE8F04D5C4B00F02D
:102E3000AFBF002C4FF000024BDA4646434628460F
:102E4000214600F045FC4FF0FF3201F0A9FA04469C
:102E5000024658480D460B4606217844FFF758FDB8
:102E600022462B4600F096FE804653488A4622466C
:102E70002B4604217844FFF74BFD22462B4600F0F9
:102E800089FE0022334600F023FC06468B4620468E
:102E9000294600F07DFB04460D4632465B4640461F
:102EA000514600F0C5FC22462B4600F073FE3F4A17
:102EB0003F4B01F05FF822462B4600F009FC01224F
:102EC00001F06EFA02B03B46BDE8F04D314A00F029
:102ED0005FBF2D4B2846214600F05AFF4FF0FF32CE
:102EE00001F05EFA05460E4600F052FB00270C4644
:102EF00080463A460B4600F0EBFB82468B463A464C
:102F000023461046194600F045FE2A46334600F097
:102F10003FFF52465B4600F08BFC824627488B46BB
:102F20002A46334606217844FFF7F2FC2A46334608
:102F300000F030FECDE9000121482A463346042145
:102F40007844FFF7E5FC2A46334600F023FE0022D2
:102F50000D4B00F0BDFB02460B46DDE9000100F021
:102F600067FC4246234600F015FE52465B4600F0E1
:102F7000AFFB3A46234600F0ABFB02B00122BDE8AE
:102F8000F04D01F00DBA00000000F03FFB210940B8
:102F90000000F07F182D44540000E03F0000603C2A
:102FA000FB21F93F5C16000072160000075C143329
:102FB00026A6913CD2150000E81500000615000079
:102FC0001C1500002DE9F04D8D4F21F0004A86B010
:102FD00005460C46BA452ADBAAEB070028430AD06F
:102FE0008848824501DC1AD1CDB106B02846BDE83B
:102FF000F04DFFF797BE844A844B284600F0CAFD87
:1030000007460E46824A834B2846214600F0C2FD01
:1030100006B03A463346BDE8F04D00F059BB0120FA
:10302000FEF7B7FA06B0BDE8F04DFFF77EBE7A486E
:10303000824542DABAF1795F0BDA2846FFF711FAD6
:10304000042808BFFFF778FE284606B02146BDE8F1
:10305000F08D2A460B46104600F09CFD8346024642
:103060006E480E460B4606217844FFF751FC5A463F
:10307000334600F08FFD804669488A465A463346FB
:1030800004217844FFF744FC5A46334600F082FDA1
:1030900000223B4600F01CFB02460B4640465146D0
:1030A00000F0C6FB2A46234600F074FD06B02A460F
:1030B0002346BDE8F04D00F00BBB284624F000414C
:1030C00000223D463B4600F063FE4FF0FF3201F028
:1030D00067F90646024653480F460B4606217844D8
:1030E000FFF716FC32463B4600F054FDCDE90001E7
:1030F0004D4832463B4604217844FFF709FC3246EE
:103100003B4600F047FD00222B4600F0E1FA8346E3
:1031100002913046394600F03BFA804643480D465E
:10312000504517DCDDE900015A46029B00F080FBA8
:1031300042462B4600F02EFD42462B4600F0C8FAD0
:10314000012201F02DF9304A304B00F013FF304AD4
:10315000304B4CE04FF0000A52460B46404600F020
:10316000B7FACDE9031052462B461046194600F037
:1031700011FD32463B4600F00BFEDDE9033200F064
:1031800057FB06460F46DDE900015A46029B00F058
:103190004FFB8346009101223046394601F000F989
:1031A000194A1A4B00F0F4FD06460F46012240462C
:1031B000294601F0F5F85A46009B00F0EBFC324638
:1031C0003B4600F0D7FE06460F46012250462946F0
:1031D00001F0E6F80E4DDFF858802A46434600F02D
:1031E000D7FD32463B4600F0D3FD2A46434600F069
:1031F000CFFD002CD8BF81F0004106B0BDE8F08DB6
:103200000000F03F0000F07F075C143326A6913CDD
:10321000182D4454FB21F93F0000E03F1414000036
:103220002A1400009E130000B41300003333EF3F54
:10323000FB21E93F2DE9F84F04460D4621F00040FF
:1032400000917349814211DC7249884201DC06D148
:103250002CB120462946BDE8F84FFFF763BD6E4804
:10326000002DCCBF6D496E49BDE8F88F6D49814294
:1032700011DD6D498142D8BF4FF0FF366DDD20462C
:103280002946FFF7EEF8042808BFFFF755FD204652
:103290002946BDE8F88F6549654F25F00045814214
:1032A00033DD6449814219DD002632464FF0804308
:1032B0002046294600F00CFA80468A460122204624
:1032C000294601F06DF800223B4600F053FE4246CD
:1032D000534600F0ADFA04460D463EE001260022BA
:1032E000BA463B462046294600F0F2F980460F4692
:1032F000002253462046294600F03CFE42463B460B
:1033000000F096FA04460D4627E04B4981421BDD4A
:10331000DFF828A10226002253462046294600F065
:1033200039FC00223B4600F0D3F980460F460022CC
:1033300053462046294600F01DFE42463B4600F01B
:1033400077FA04460D4608E0032622462B46002065
:103350003B4900F06DFA04460D4622462B461046C6
:10336000194600F017FC8B46824602460B4600F0D9
:1033700011FC07460246334888460B46062178442E
:10338000FFF7C6FA52465B4600F004FC82462E4820
:103390008B463A46434605217844FFF7B9FA3A4648
:1033A000434600F0F7FB02460B46002E50465946B6
:1033B0000CDA00F08DF922462B4600F0EBFB01B051
:1033C00022462B46BDE8F04F00F0E2BC00F080F949
:1033D00022462B4600F0DEFB1C4A7A4402EBC60371
:1033E000D3E9002300F0C6FD22462B4600F0C2FDC3
:1033F000174A7A4402EBC603D3E9002300F0C8FC65
:10340000009A002AB8BF81F00041BDE8F88F0000A3
:10341000000010440000F07F182D4454FB21F93FB8
:10342000FB21F9BF0000DC3F0000203E0000F33F1D
:103430000000F03F0000E63F008003400000F83F3E
:103440000000F0BFB611000074110000121100005E
:10345000DA10000000B5244B21F0004287B09A42F8
:10346000DCBF0022134629DD204B9A4208D140B927
:103470004FF00100FEF78DF8FFF757FC07B000BDD5
:1034800003DBFFF74FFC07B000BD02AAFEF7FEFF0B
:1034900010F0030104BF0DF1080C9CE80F000DD0E3
:1034A000012001290ED0022914D00DF1080C009042
:1034B0009CE80F00FFF782FA07B000BDFFF7AAF9FA
:1034C00007B000BD0DF1080C00909CE80F00FFF75D
:1034D00075FA05E00DF1080C9CE80F00FFF79AF96A
:1034E00007B081F0004100BDFB21E93F0000F07F03
:1034F00000B5254B21F0004287B09A4203DC002240
:10350000134600922BE0214B9A4208D140B94FF06C
:103510000100FEF73EF8FFF708FC07B000BD03DB33
:10352000FFF700FC07B000BD02AAFEF7AFFF10F0E6
:1035300003014FF001000DD0012914D002291AD047
:103540000DF1080C9CE80F00FFF764F907B081F05B
:10355000004100BD0DF1080C00909CE80F00FFF742
:103560002DFA07B000BD0DF1080C9CE80F00FFF725
:1035700051F907B000BD0DF1080C00909CE80F0058
:10358000FFF71CFAE2E70000FB21E93F0000F07FB3
:103590002DE9F04106460F4600F006FC04000D46FA
:1035A00018BF0120284320F00040C0F17F6000F1E7
:1035B000E040C00F0ED0301C18BF0120384320F06F
:1035C0000040C0F17F6000F1E040C00F04BF012067
:1035D000FDF7DFFF20462946BDE8F08110B5164B08
:1035E00021F00042012486B09A4203DC00221346F7
:1035F00000941CE0114B9A4208D140B94FF00100F1
:10360000FDF7C7FFFFF791FB06B010BD03DBFFF727
:1036100089FB06B010BD02AAFEF738FF00F00100DA
:10362000A4EB40000DF1080C00909CE80F00FFF7A0
:103630003BFA06B010BD0000FB21E93F0000F07F1F
:1036400010B500290AD00878002807D0054878442A
:10365000FEF70CFB002801D0002010BD0248784482
:1036600010BD00004E1100004611000021F0004284
:10367000A2F16052B2F5801F01F0004328BFD2F1E1
:103680007F6C0BD95FEA001C43EAC20242EB507028
:1036900018BF704728BF20F001007047B2F5801FA7
:1036A000BCBF184670474FEA410C1CF5001F02D200
:1036B000084600F03CBE70B500F016FB0000008923
:1036C000FFF7F6BF4FF00040A0F580007047000004
:1036D00010B591EA030F48BF83F0004300F1528414
:1036E000841A71EB030C05D2121943EB0C03001B77
:1036F00061EB0C01DFF824E14FEA1154A4EB135CF9
:103700001EEA430F18BF9EEA445F73D023EA0E03FC
:10371000DCF1200E21EA045143F4801332D322FA63
:103720000CFE10EB0E0023FA0CFE41EB0E01CCF167
:10373000200E03FA0EFE10EB0E0051F10001B1F560
:10374000801FCCF1200E32D201EB045112FA0EF29E
:10375000BDE8104058BF7047401C38BF5FEA4202C6
:1037600018BF7047002814BF20F0010041F100018C
:103770004FEA410313F5001F38BF7047A1F1C04164
:1037800000F000BB012A43EB0302ACF1200CDCF19A
:103790001F0E32BF4FF0000E23FA0CF310EB0300A4
:1037A00041EB0451B4EB115FD0D0A1EB045101F512
:1037B000801149085FEA300001EB04510ED350F14B
:1037C000000038BF12FA0EFE08D1BDE81040C9E76C
:1037D000401C38BF5FEA4202CAD1C3E7BDE81040CF
:1037E0004FEA410313F5001F38BF7047A1F1C041F4
:1037F00000F0C8BA9EEA445F08D011EA5E0FBDE847
:10380000104004BF01F0004100207047BDE81040A7
:1038100070B500F069FA00BF64FBBE3E0000E0FF37
:1038200002494FF0000000F089BD00BF0000F87FA2
:103830002DE9C04130B4DFF8A0C23CEA111418BF32
:103840003CEA131400F0EC8081EA03051CEA111431
:1038500044EAD57418BF1CEA131500F0C780A4EB26
:1038600005044FF0004545EAC12145EAC32341EA7A
:10387000505143EA525304F17F74994204F50034E5
:103880004FEAC0204FEAC22208BF904200F09C805D
:103890004FEA13650FF24016765D4FEA134506FBBB
:1038A00005F7C7F1807706FB07F74FEAD737A7FB85
:1038B00003687642C8F58038A7FB06CE38BFA8F16A
:1038C000010807FB08E64FF0000EA6FB028CE6FBA2
:1038D00003CEDCF1000CCEF1004E38BFAEF1010E8C
:1038E000A6FB0C584FF000074FF00005E6FB0E87D3
:1038F000A1FB08C6A0FB07CE16EB0E0645F100059E
:10390000E1FB076515F1E04E7EBFA4F580345FEA68
:1039100046066D4116F1800745F100054FEA17276D
:103920004FEA066647EA0567A6F1DE46B6F1805F14
:103930004FEA15251FD9384624F0010C05EBC47158
:10394000BCF1FE6F01EB0C1102D8F0BCBDE80081A8
:1039500024425CBF01F5801E9EEAC47F02D4F0BC05
:10396000BDE80081244238D4F0BCA1F1C041BDE8DB
:10397000004100F007BA4FEAD22242EA43524FEA2E
:10398000D323A7FB02864FEAD02040EA415007FB31
:1039900003661EEA0E0F4FEAD12105FB026658BFEF
:1039A000A6EB0056B6EB00564FEA520E4EEAC37E27
:1039B00018EB0E0E56EB530EBDD518EB02085E4108
:1039C0007F1C55F10005B6E74FF480154FF0000756
:1039D0004FF000064FF00008ADE7F0BC4FF00000DC
:1039E00001F1C04101F00041BDE8008111EA0C1F66
:1039F0000CEA131500D00CE013EA0C1F00F0258030
:103A00004FF00000F0BC81EA030101F00041BDE885
:103A10000081F0BCBDE8004181EA030100F0B2B9C9
:103A2000F0BCBDE8004170B500F05EF9097EFC3ED7
:103A300000F007B881EA03014FF0000001F00041F7
:103A4000704781EA030100F09DB9F0BCBDE8004178
:103A50004FF0000021497047FFFDFBF9F7F5F4F244
:103A6000F0EEEDEBE9E8E6E4E3E1E0DEDDDBDAD819
:103A7000D7D5D4D3D1D0CFCDCCCBCAC8C7C6C5C477
:103A8000C2C1C0BFBEBDBCBBBAB9B8B7B6B5B4B38E
:103A9000B2B1B0AFAEADACABAAA9A8A8A7A6A5A479
:103AA000A3A3A2A1A09F9F9E9D9C9C9B9A9999983D
:103AB0009797969595949393929191908F8F8E8EE0
:103AC0008D8C8C8B8B8A898988888787868585846D
:103AD00084838382828181800000FF070000F87F59
:103AE0004FEA41034FEA5353A3F58063D3F11E031A
:103AF000C8BFD3F1210C0CDD4FF0004242EAC122D5
:103B000042EA505232FA03FC8CEAE17CACEBE17001
:103B10007047102BC4BF0020704703F5787CBCF1C0
:103B2000FF3F04D06FF0004282EA2100704770B579
:103B300000F0DAF84992248000207047F2E710F094
:103B4000004248BF4042B0FA80F310FA03F10AD0B5
:103B5000C3F11D0303F580634FEA415002EB0352AA
:103B600002EBD12170474FF000007047B0FA80F3AC
:103B700010FA03F10AD0C3F11D0303F580634FEA85
:103B800041504FEA035202EBD12170474FF0000041
:103B900070470000DFF848C170B51CEA111E1EBF57
:103BA0001CEA13159EEA0C0F95EA0C0F00F06F80CB
:103BB00081EA030423EA4C134EEAD47E21EA4C1135
:103BC00041F4801143F48013AE44A1FB024CA0FBEE
:103BD0000365AEF17F7E361955EB0C05A1FB034C56
:103BE0004CF10003A0FB021C16EB0C06654153F1DF
:103BF0000003094218BF46F0010613F4007F0BD101
:103C00004FEA03314FEA0530340341EA155140EAE7
:103C100016506FF003020AE04FEAC3214FEAC520B5
:103C2000F40241EA555140EA56506FF0020202EBAD
:103C30002E4201EB025585EACE710AD05FEA440CB0
:103C400018BF24F0004450F1000041F1000120EAC7
:103C5000D47040F2FE7C624500D270BDA84214BF11
:103C60004FF080444FF04044002E08BF0024BEF1C6
:103C7000806FA8BFA1F1C041BDE8704080F2828092
:103C80004FF0000001F1C04101F0004170479EEA91
:103C90000C0F0CEA131518BF95EA0C0F06D04FF065
:103CA000000081EA030E0EF0004170BD00F01CF828
:103CB0008900013E00F007B800F009B84FEA430C54
:103CC0005FEA5C5C08D081EA030100F05BB84FEA70
:103CD000410C5FEA5C5CF6D14FF00000014970478F
:103CE0000000FF070000F87F0EF1020E2EF0030E19
:103CF0005EF8046B364205D4012A43EB030515F543
:103D0000001F12D8012841EB010C1CF5001F0CD834
:103D10000ED14FEAD17C15F5001F0CEB4C0C0CF1C9
:103D2000020C08BF4CEBD37C04E04FF0080C01E020
:103D30004FEAD37C0CEB4C0526FA05F606F0070695
:103D4000B6F1040C06D20EEB860CBDE870404CF0C8
:103D5000010C6047DFE80CF0090B02024FF0004154
:103D60004FF00000A1F5002170BD19461046012852
:103D700051EB010418BFD4F5001484BF002001F0FA
:103D8000004170BD0808A0F500114FEA31017047ED
:103D900091EA030F10B581F000413FF5A1AC83F02B
:103DA000004300F0EFB800002DE9F04101F5801C60
:103DB000BCF5001FC0F2C3804FEA115C21EA0C5130
:103DC0000CF1FD0C41F480115FEA5C0C0CF5C07C39
:103DD00001D3400049413DA4890241EA9051870244
:103DE0008E0E0A0CA45D04FB04F602FB06F6C6F177
:103DF0004046A4FB0662F60D46EA422606FB06F4A0
:103E0000A4FB01235242C3F1404338BF5B1EA6FB13
:103E100002420024E6FB0324D20B42EA4446A6FBFE
:103E20000623A1FB02E2A3FB07E4A4184FF0000263
:103E300052F10002E3FB01426442C2F1404E38BF3E
:103E4000AEF1010EA6FB04234FF00002E6FB0E329A
:103E5000A2FB03464FF00004B61954F10004E2FB44
:103E60000264A1FB06E6A4FB07E816EB08064FF088
:103E7000000858F10008E4FB01687642C8F1405898
:103E800038BFA8F10108A2FB06E4A3FB08E52D1941
:103E90004FF0000454F10004E2FB0854A1FB05E6D6
:103EA000A7FB04E818EB06084FF0000656F10006E1
:103EB000E1FB048618F1200556F10006A809A8F1D7
:103EC0001B08B10908F03F08B8F10A0F40EA866004
:103ED0001CD901EB0C51BDE8F08100BFFCF5EEE808
:103EE000E2DDD8D3CFCBC7C3C0BDB9B6B4B1AEAC99
:103EF000A9A7A5A3A19F9D9B9A9896959392908F11
:103F00008D8C8B898887868584838281A0FB00685D
:103F100000FB01F208EB4208B8EB872807D53418FC
:103F200058EB0104D5D5401C51F10001D1E7341AFA
:103F300078EB0104CDD4401E71F10001C9E75FEABE
:103F40004C0C5FEA9C5C0DD105D34FF0000001F0F2
:103F50000041BDE8F081BDE8F04170B5FFF7C4FE57
:103F60006DDBFFBEBDE8F0414FF000000049704737
:103F70000000F87F10B591EA030F48BF83F00043BB
:103F80003FF5AEAB841A71EB030C07D212198CF01B
:103F9000004C43EB0C03001B61EB0C01DFF8A4E1C8
:103FA0004FEA1154A4EB135C1EEA430F18BF9EEABC
:103FB000445F00F0B08023EA6E03524221EA0451CC
:103FC000C3EB6E0338BF5B1EDCF1200E25D322FA53
:103FD0000CFE10EB0E0043FA0CFE41EB0E01CCF18F
:103FE000200E03FA0EFE10EB0E0051F10001CCF191
:103FF000200E29D412FA0EF201EB0451BDE8104054
:1040000058BF7047401C1CBFB2F1004F70470028DA
:104010000CBF491C20F00100704712EB020E43EB6D
:10402000030218BF4FF0010E4EEA4202ACF1200C21
:10403000DCF11E0E54D943FA0CFE10EB0E0051F1C8
:10404000FF31CCF11E0ED5D50EF1010E12FA0EFE87
:10405000404141EB010101EB445C5FEA5C5C10D93B
:1040600010EBDE7001EB045138BFBEF1004FBDE82C
:10407000104018BF704700280CBF491C20F00100F9
:10408000704730D24FEAD42C11F5001124F40064AB
:104090001BD0B1FA81F20B3AA41AA41ED2F120036C
:1040A000914030FA03F31943904001EBCC71002C9E
:1040B00001EB0451BDE81040A8BF704701F1C041B9
:1040C0004FF0000001F000417047B0FA80F310FAA1
:1040D00003F100D110BDE41A173C4805C90AE4E712
:1040E00001EB045110BD491001EB0451BDE8104033
:1040F0004FEA300002E04FF0000170474A0008BF6D
:104100000042F8D0B2F5001F28BF704701F000410F
:104110004FF0000070479EEA445F07D011EA5E0F3F
:10412000BDE8104004BF002100207047BDE81040EA
:1041300070B5FFF7D9FD00BF40DFF63E83F00041C8
:10414000104670470000E0FF43004FEAD30C4FEAEF
:104150003C0C43401FBF40070CF1605113F0FE4F71
:1041600070471CF0006F03D100200CF00041704735
:104170000CF0004343EA507010B540EACC0000F068
:1041800090F800BF000000924FEA0001FFF7FABD6F
:104190004FF000414FF00000A1F5002170470000F2
:1041A0004FF47F0C1CEAD0121EBF1CEAD11392EA16
:1041B0000C0F93EA0C0F00F0478090EA010F48BF04
:1041C00042F480724FF0004C4CEA00204CEA01218E
:1041D00002EB0302A0FB0113A2F50002002918BFA5
:1041E00043F001035B0028BF4FEA330342EB224256
:1041F0005FEA132C4CEBC2502EBFBCEB436FB2F501
:104200007C0F70474FEA036CBCF1004F08BF20F0F1
:104210000100B2F57C0F38BF70470BD582F0FF026A
:1042200012F5803FC8BF704700F1C040D8BF00F012
:104230000040704700F5000C5FEA4C0C48BF704727
:10424000B0F1C04000F073B890EA010F0CEAD1134E
:1042500048BF42F48072624538BF634504D280EAA9
:10426000010000F00040704710B500F01AF800BFE0
:104270008900013E00F007B800F009B85FEA410C80
:104280005FEA1C6C08D080EA010000F050B85FEAD9
:10429000400C5FEA1C6CF6D14FF00040A0F58000A6
:1042A00070470EF1020E2EF0030E5EF8044B24420E
:1042B00004D44FEA4102B2F17F4F11D84FEA4003D4
:1042C000B3F17F4F0CD80ED14FEAD07CB2F17F4FC3
:1042D0000CEB4C0C0CF1020C08BF4CEBD17C04E055
:1042E0004FF0080C01E04FEAD17C0CEB4C0324FAB0
:1042F00003F404F00704B4F1040C06D20EEB840CB2
:10430000BDE810404CF0010C6047DFE80CF00708F6
:1043100002024FF00040A0F5800010BD08464200A8
:1043200018BFD2F1807288BF00F0004010BDFF219D
:1043300041EAD050C0057047FDF708BA0CF00F03F2
:10434000092B08BF082000F059800A2B0BD0082B3E
:1043500018BF704708BF1CF0400F0AD04FF0000094
:104360004FF0000170471CF0400F18BF4FF00040A5
:1043700070471CF0100F08D020F0704300F07F420F
:1043800042EAD3014FEA4370704700F0604021F0E9
:104390007F4242EA000201F07F4040EA72707047BB
:1043A0004FF0FF0C4CF4E06C1CEA11531CBF9CEA6C
:1043B000030C9445C2BFDA4201EB02517047002B57
:1043C0000DD0BCF1000F0FD0002A01F00041A4BFB6
:1043D00041F0E04141F07F614FF00000704701F093
:1043E00000414FF00000704750EA01334FF09B0C42
:1043F00018BF4CF0806C7FF413AA70471CF4801F28
:1044000011D01CF4E02F03D06FEACC314900704783
:104410004FF04050EFF3008222F0704242EA000277
:1044200082F3008870474FF00000704700000000E2
:10443000555555555555C53F7D6FEB0312D6D4BF25
:104440005544880E55C1C93F3B8F68B52882A4BF2B
:1044500088B20175E0EF493F09F7FD0DE13D023FEC
:104460004B2D8A1C273A03C0C88A599CE52A004074
:1044700059018D1B6C06E6BF82922EB1C5B8B33FC1
:10448000555555555555C53F7D6FEB0312D6D4BFD5
:104490005544880E55C1C93F3B8F68B52882A4BFDB
:1044A00088B20175E0EF493F09F7FD0DE13D023F9C
:1044B0004B2D8A1C273A03C0C88A599CE52A004024
:1044C00059018D1B6C06E6BF82922EB1C5B8B33F71
:1044D0004FBB610567ACDD3F182D4454FB21E93F1C
:1044E0009BF681D20B73EF3F182D4454FB21F93F0B
:1044F000E2652F227F2B7A3C075C143326A6813C91
:10450000BDCBF07A8807703C075C143326A6913C3B
:10451000C4EB98999999C9BF711623FEC671BCBFA7
:104520006D9A74AFF2B0B3BF9AFDDE522DDEADBF0F
:104530002F6C6A2C44B4A2BF0D5555555555D53F27
:10454000FF8300922449C23F6E204CC5CD45B73F42
:10455000513DD0A0660DB13FEB0D76244B7BA93FBA
:1045600011DA22E33AAD903F4C5555555555A53FCC
:104570007751C1166CC156BF9015CB19A001FA3EF8
:10458000AD529C804F7E92BEC4B1B4BD9EEE213E22
:10459000D43888BEE9FAA8BD00004054FB21F93F99
:1045A0003163621A61B4D03D0000601A61B4D03D3D
:1045B0007370032E8A19A33B0000002E8A19A33BB7
:1045C000C14920259A837B390000000000000000CB
:1045D0006E83F9A22915444ED15727FCC0DD34F56E
:1045E000999562DB4190433CAB6351FE61C5BBDEF4
:1045F0003A6E24B7E0D24D42EA2E49061C92D10908
:104600001CEB1DFE3EA729B1F53582E88444BB2E84
:1046100026709CE9417E5FB439D69139F4395383D1
:104620008B5F849C3B28F9BDFF97F81F0F9805DE30
:104630008B112FEF1F6D0A5ACF7E366DB709CB272E
:10464000663F464F2DEA5F9EC7BA27757BF1E5EBC3
:10465000F739073DEA92528AB15FFB6B085D8D1F07
:10466000A6F810111111813FD561C119A0012ABF0F
:104670007DFEB157E31DC73EEB9C2B8AE6E55ABE93
:104680007CD5CF5A3AD9E53D7AFE10111111C13FC0
:1046900037D60684F464963F280356C9226D6D3FD1
:1046A0000165F2F2D844433FA69237A0887E143FBA
:1046B000735360DBCB75F3BEFE41B31BBAA1AB3FB6
:1046C00093846EE9E326823F1583E0FEC8DB573F03
:1046D00068108D1AF726303FE9A7F0320FB8123F65
:1046E000D47ABF74702AFB3E02400000000000A094
:1046F0000000000005400000000000C800000000AD
:104700000C4000000000409C000000001940000028
:104710000020BCBE0000000034400000BFC91B8E5A
:1047200000000004B5400000504BCFD06607E2CF38
:10473000010000006C4100003E8251AADFEEA73468
:1047400001000000D9420000DCB5A0E23A301F971A
:10475000FFFFFFFFB4450000FD25A0C8E9A3C14F3E
:10476000FFFFFFFFFF3F000000000080000000008F
:10477000FF3F00000000008000000000B847000874
:1047800000000020380000006C010008F04700081D
:104790003800002028070000880100081C000000E5
:1047A00043000000F8FFFFFF0C0000000E000000B7
:1047B0000F0000002E00000000A24A0400000000CC
:1047C00000000000010203040607080901000000C0
:1047D00000000000000000000000000000000102D6
:1047E0000304010203040607080902040608000086
:0400000508000131BD
:00000001FF
