:020000040800F2
:100000003004002045010008F50E0008F70E000836
:10001000FB0E0008FF0E0008030F000800000000A0
:10002000000000000000000000000000070F0008B2
:10003000090F0008000000000B0F00080D0F00085A
:100040005F0100085F0100085F0100085F01000810
:100050005F0100085F0100085F0100085F01000800
:100060005F0100085F0100085F0100085F010008F0
:100070005F0100085F0100085F0100085F010008E0
:100080005F0100085F0100085F0100085F010008D0
:100090005F0100085F0100085F0100085F010008C0
:1000A0005F0100085F0100085F0100085F010008B0
:1000B0005F0100085F0100085F0100085F010008A0
:1000C0005F0100085F0100085F0100085F01000890
:1000D0005F0100085F0100085F0100085F01000880
:1000E0005F0100085F0100085F0100085F01000870
:1000F0005F0100085F0100085F0100085F01000860
:100100005F0100085F0100085F0100085F0100084F
:100110005F0100085F0100085F0100085F0100083F
:100120005F0100085F0100085F0100085F0100082F
:10013000DFF80CD001F004FA00480047510E000827
:10014000300400200648804706480047FEE7FEE7E7
:10015000FEE7FEE7FEE7FEE7FEE7FEE7FEE7FEE777
:1001600047020008310100080CB500200190009002
:100170006C48006840F480306A49086000BF6948F4
:10018000006800F4003000900198401C0190009835
:1001900018B90198B0F5A06FF1D16248006800F479
:1001A000003010B10120009001E000200090009884
:1001B000012843D15C48006840F010005A490860AB
:1001C0000846006820F0030008600846006840F018
:1001D0000200086053484068524948600846406839
:1001E00048600846406840F48060486008464068BF
:1001F00020F47C1048600846406840F4E8104860ED
:100200000846006840F08070086000BF45480068FC
:1002100000F000700028F9D04248406820F0030048
:10022000404948600846406840F00200486000BF0E
:100230003C48406800F00C000828F9D10CBD10B50E
:10024000FFF792FF10BD10B53648006840F001007E
:1002500034490860084640683449084031494860DC
:1002600008460068324908402E4908600846006880
:1002700020F4802008600846406820F4FE004860B2
:100280004FF41F008860FFF7DAFF4FF00060294944
:10029000086010BD10B5002100200022214B5B68D2
:1002A00003F00C0121B1042906D0082928D107E068
:1002B000214B224C236027E01F4B204C236023E07E
:1002C000184B5B6803F47010164B5B6803F48032C4
:1002D000022303EB904022B9194B4343174C236090
:1002E0000DE0104B5B6803F4003323B1144B434320
:1002F000124C236003E0104B4343104C236003E097
:100300000D4B0E4C236000BF00BF064B5B68C3F370
:1003100003130C4CE15C094B1B68CB40074C23607A
:1003200010BD000000100240002002400000FFF855
:10033000FFFFF6FE08ED00E000127A00000000204A
:1003400000093D000400002010B50446CC4884425A
:1003500008D10121042000F02DFB0021042000F031
:1003600029FB46E0C748844208D10121082000F05B
:1003700021FB0021082000F01DFB3AE0C248844226
:1003800008D10121102000F015FB0021102000F001
:1003900011FB2EE0BD48844208D10121202000F04D
:1003A00009FB0021202000F005FB22E0B848844230
:1003B00008D10121402000F0FDFA0021402000F08A
:1003C000F9FA16E0B348844208D10121802000F0F8
:1003D000F1FA0021802000F0EDFA0AE0AE488442F4
:1003E00007D10121801500F0E5FA0021A01500F0E9
:1003F000E1FA10BD10B50121084600F0DBFA00213A
:10040000012000F0D7FA10BD2DE9F0410246002589
:100410000026002000230024002791F803C00CF0E0
:100420000F0591F803C00CF0100CBCF1000F03D0C5
:1004300091F802C04CEA050591F800C0BCF1000F2C
:1004400031D0146800202BE04FF0010C0CFA00F3BF
:10045000B1F800C00CEA03069E4220D183004FF0A1
:100460000F0C0CFA03F7BC4305FA03FC4CEA040436
:1004700091F803C0BCF1280F06D14FF0010C0CFA23
:1004800000FCC2F814C00AE091F803C0BCF1480FA8
:1004900005D14FF0010C0CFA00FCC2F810C0401C52
:1004A0000828D1D31460B1F800C0BCF1FF0F34DDCF
:1004B000546800202EE000F1080C4FF0010808FA03
:1004C0000CF3B1F800C00CEA03069E4221D1830070
:1004D0004FF00F0C0CFA03F7BC4305FA03FC4CEA8F
:1004E000040491F803C0BCF1280F05D100F1080CF9
:1004F00008FA0CF8C2F8148091F803C0BCF1480F58
:1005000007D100F1080C4FF0010808FA0CF8C2F806
:100510001080401C0828CED35460BDE8F0814FF60F
:10052000FF710180022181700421C1707047024671
:10053000002093680B400BB1012000E000207047C1
:100540000146886880B2704702460020D3680B409D
:100550000BB1012000E0002070470146C86880B25E
:10056000704701617047416170470AB1016100E065
:1005700041617047C16070474FF480320A43826125
:100580008161826182698269704702460020434B23
:1005900018684FF68073184040EA021008433F4B3A
:1005A000186070473E49C8617047F0B50A4600239D
:1005B00000240021002500F00046B6F1004F02D1D2
:1005C000364EF16901E0354E7168C0F3034583B2E0
:1005D00000F44016B6F5401F08D121F070612F4E8F
:1005E000766826F070662D4F7E6012E000F480166B
:1005F000B6F5801F06D1032606FA05F4A14341F0A3
:10060000706106E0460D360103FA06F6B14341F08B
:10061000706122B1460D360103FA06F6314300F04F
:100620000046B6F1004F02D11C4EF16101E01B4EB5
:100630007160F0BD30B500228B071C0F0F2303FA49
:1006400004F2164B08338C1053F824309343134CA8
:1006500008348D1044F8253023468C1053F824308C
:100660008C07240F00FA04F423430C4C08348D103B
:1006700044F8253030BD0A49DC310860704700007D
:1006800000080140000C014000100140001401402E
:1006900000180140001C0140002001400000014002
:1006A00000002042DF48006840F00100DD4908609A
:1006B00008464068DC490840DA4948600846006856
:1006C000DA490840D74908600846006820F48020CD
:1006D00008600846406820F4FE0048604FF41F00A0
:1006E00088607047CF49096821F48031CD4A116094
:1006F0001146096821F480211160B0F5803F03D0D4
:10070000B0F5802F0ED106E0C649096841F480316A
:10071000C44A116007E0C349096841F4A021C14AF5
:10072000116000E000BF00BF704710B50146002215
:10073000002300204A11012A02D1BA4C236806E0A6
:10074000022A02D1B74C236A01E0B64C636A01F079
:100750001F02012494401C400CB1012000E0002045
:1007600010BD38B5002000900024002500BF3120C6
:10077000FFF7DBFF05460098401C00900098B0F59D
:10078000A06F01D0002DF2D03120FFF7CEFF08B1CD
:10079000012400E00024204638BD01460020A14A83
:1007A000106820F0F80040EAC10010607047A049CE
:1007B00008607047024600209A4B586820F47C106D
:1007C00042EA01031843974B5860704798490866FE
:1007D000704701460020934A506820F00300084308
:1007E000506070478F48406800F00C007047014629
:1007F00000208C4A506820F0F00008435060704799
:1008000001460020874A506820F4E06008435060A9
:10081000704701460020834A506820F4605040EA47
:10082000C1005060704729B17E4A527A02437D4B25
:100830005A7204E07B4A527A82437A4B5A7270476A
:100840007B49D8310860704701460020754A5068DE
:1008500020F440400843506070470021714A203224
:100860001170704A82F82010012802D004280AD1A1
:1008700004E001216B4A2032117005E00521694A2C
:100880002032117000E000BF00BF70476949086066
:1008900070476449096A0143624A116270476549B9
:1008A00044390860704730B500210022002400233D
:1008B0005C4D6D6805F00C0121B1042905D00829B3
:1008C00023D105E05C4D056022E05B4D05601FE033
:1008D000544D6D6805F47012524D6D6805F4803406
:1008E000022505EB92421CB9544D554305600BE0BF
:1008F0004C4D6D6805F400351DB1504D55430560F4
:1009000002E04D4D5543056002E04B4D056000BFD0
:1009100000BF444D6D6805F0F0010909484D6B5C5E
:100920000568DD4045603F4D6D6805F4E061090AEA
:10093000434D6B5C4568DD4085603A4D6D6805F45C
:100940006051C90A3E4D6B5C4568DD40C560354D60
:100950006D6805F44041890B3A4D6B5CC568B5FB89
:10096000F3F5056130BD29B12E4A526902432D4B82
:100970005A6104E02B4A526982432A4B5A617047FC
:1009800029B1284A92690243264B9A6104E0254A1C
:1009900092698243234B9A61704729B1214AD269F7
:1009A0000243204BDA6104E01E4AD26982431D4BA8
:1009B000DA61704729B11B4AD2680243194BDA60E9
:1009C00004E0184AD2688243164BDA60704729B1B6
:1009D000144A12690243134B1A6104E0114A126966
:1009E0008243104B1A6170471249403908607047C2
:1009F0000F49C86470470B49C87170470948406A7D
:100A000040F0807007494862704701460020054A5F
:100A100092680A400AB1012000E0002070470149B5
:100A200088727047001002400000FFF8FFFFF6FEDA
:100A3000000042428004424200127A0000093D0058
:100A4000140000202400002010B50446FB48844216
:100A500009D101218803FFF7ADFF00214FF4804049
:100A6000FFF7A8FF32E0F648844209D1012148048B
:100A7000FFF7ADFF00214FF40030FFF7A8FF25E09E
:100A8000F048844209D101218804FFF7A0FF00212A
:100A90004FF48020FFF79BFF18E0EB48844209D118
:100AA0000121C804FFF793FF00214FF40020FFF756
:100AB0008EFF0BE0E548844208D101210805FFF7CD
:100AC00086FF00214FF48010FFF781FF10BD2DE954
:100AD000F04786B005460E460024A24600BFA14658
:100AE0000027B08900B100BF2F462C8A4CF6FF705A
:100AF0000440F08804432C82AC894EF6F310044085
:100B0000B08831890843718908430443AC81AC8AB9
:100B10004FF6FF400440B0890443AC8201A8FFF7C0
:100B2000C2FEC648874202D1DDF810A001E0DDF820
:100B30000CA0A88900F4004040B10AEBCA0000EB09
:100B40000A1031684900B0FBF1F807E00AEBCA006F
:100B500000EB0A1031688900B0FBF1F86420B8FBA3
:100B6000F0F004012009642101FB1089A88900F438
:100B7000004040B1322000EBC900B0FBF1F000F0C2
:100B80000700044308E0322000EB09106421B0FBA9
:100B9000F1F000F00F0004432C8106B0BDE8F087AF
:100BA0004FF41651016000218180C18001810C2128
:100BB000418100218181704710B502460020108AD2
:100BC0004FF2FF0318400B884C8823438C88234343
:100BD000CC8823431843108210BD0021018041803E
:100BE0008180C180704721B1828942F400528281A4
:100BF00004E082894DF6FF731A4082817047F0B598
:100C00000346002400260025002040F66A17B9425A
:100C100000D100BF1846C1F3421401F01F0601279E
:100C200007FA06F5012C01D10C3004E0022C01D1A9
:100C3000103000E014301AB107682F43076002E05B
:100C40000768AF430760F0BD1AB1838A0B43838204
:100C500002E0838A8B4383827047028A4FF6F073E7
:100C60001A400282028A0A430282704782894FF246
:100C7000FF731A40828182890A438281704721B1C1
:100C8000828942F00202828104E082894FF6FD737C
:100C90001A4082817047028A4FF6DF731A4002823F
:100CA000028A0A430282704721B1028A42F48042DA
:100CB000028204E0028A4BF6FF731A4002827047F8
:100CC000C1F308028280704701468888C0F308009B
:100CD0007047818941F0010181817047028BD2B256
:100CE0000283028B42EA012202837047028B02F4E4
:100CF0007F420283028B0A430283704721B1828ABA
:100D000042F02002828204E0828A4FF6DF731A40AA
:100D10008282704721B1828A42F01002828204E00E
:100D2000828A4FF6EF731A408282704721B1828A1D
:100D300042F00802828204E0828A4FF6F7731A407A
:100D40008282704721B1828942F40042828103E0AD
:100D50008289C2F30E028281704721B1828A42F4F5
:100D60000062828204E0828A4FF2FF731A4082821C
:100D70007047828A4FF6FB731A408282828A0A4346
:100D80008282704721B1828A42F00202828204E0AC
:100D9000828A4FF6FD731A40828270470246002015
:100DA000B1F5007F00D100BF13880B400BB10120CB
:100DB00000E00020704701F40072B2F5007F00D11E
:100DC00000BFCA430280704770B50246002400236A
:100DD0000025002040F66A16B14200D100BFC1F3E1
:100DE000421501F01F03012606FA03F3012D02D17B
:100DF0009689334006E0022D02D1168A334001E085
:100E0000968A33400C12012606FA04F41688344000
:100E100013B10CB1012000E0002070BD10B500221C
:100E2000002340F66A14A14200D100BF0A12012437
:100E30009440A3B2DC43048010BD000000380140A0
:100E40000044004000480040004C0040005000407A
:100E500010B500F08CFA00F011FB20201649086054
:100E6000012008600220091D086000F0A9FA13A003
:100E700000F098FB00F04CF820B918A000F092FBAD
:100E8000002010BD00F0ECF8012809D120200A490B
:100E900008600120091D08600220091F086008E0A1
:100EA00020200549091D08600120091F0860022053
:100EB000086000BFFEE70000100C0140656570721D
:100EC0006F6D20C8EDBCFEC4A3C4E2693263B2E218
:100ED000CAD4C0FDB3CC200D0A000000C3BBD3D0E0
:100EE000BCECB2E2B5BDB4AED0D0454550524F4D8A
:100EF000210D0A00704700BFFEE700BFFEE700BFFC
:100F0000FEE700BFFEE7704770477047704700007C
:100F100010B5A02000F041FA08B9012010BD00F082
:100F20008DF90020FAE72DE9F04106460F461546F7
:100F300000F06FF9A02000F08FF900F0D4F900B1B3
:100F400025E0384600F088F900F0CDF900B11EE048
:100F500000F05FF9A12000F07FF900F0C4F900B1C2
:100F600015E000240CE000F09FF93055681EA04207
:100F700002D000F0D4F901E000F0E7F9601C84B27F
:100F8000AC42F0DB00F05AF90120BDE8F08100F03E
:100F900055F90020F9E72DE9F047074688469146C4
:100FA000464600242CE014B106F00700E8B900F032
:100FB00045F900250AE000F02CF9A02000F04CF9DA
:100FC00000F091F900B904E0681C85B2B5F57A7FAC
:100FD000F1DB00BFB5F57A7F00D118E0304600F0B4
:100FE0003BF900F080F900B111E0385D00F034F910
:100FF00000F079F900B10AE0701CC6B2601C84B23E
:101000004C45D0DB00F01AF90120BDE8F08700F074
:1010100015F90020F9E710B5C0B0002404E0FF2066
:101020000DF80400601C84B2FF2CF8DD4FF48072D0
:1010300000216846FFF7AFFF20B938A000F0B2FAF0
:1010400040B010BD3AA000F0ADFA00BFF8E701B51E
:1010500002E00098401E009000980028F9D108BDD9
:1010600010B5ADF5007DFFF753FF30B935A000F0A6
:1010700099FA00200DF5007D10BD002403E040A981
:101080000C55601C84B2FF2CF9DD4FF480720021F6
:1010900040A8FFF780FF20B930A000F083FA0020BD
:1010A000E8E733A000F07EFA3648FFF7D0FF4FF4B0
:1010B000807200216846FFF736FF20B932A000F0A9
:1010C00071FA0020D6E735A000F06CFA00241DE08C
:1010D0001DF8040040A9095D884209D01DF80410DC
:1010E00035A000F05FFA36A000F05CFA0020C1E7FE
:1010F0001DF804103BA000F055FA04F00F000F2873
:1011000002D10AA000F04EFA601C84B2FF2CDFDD91
:1011100036A000F047FA0120ACE70000B2C1B3FDF1
:10112000656570726F6DB3F6B4EDA3A10D0A000092
:10113000B2C1B3FD656570726F6DB3C9B9A6A3A1E5
:101140000D0A0000C3BBD3D0BCECB2E2B5BDB4AE57
:10115000D0D0454550524F4D210D0A00D0B46565A1
:1011600070726F6DB3F6B4EDA3A10D0A000000001C
:10117000D0B4656570726F6DB3C9B9A6A3A10D0A2D
:1011800000000000FFFF0F00B6C1656570726F6D53
:10119000B3F6B4EDA3A10D0A00000000B6C1656569
:1011A00070726F6DB3C9B9A6A3ACCAFDBEDDC8E746
:1011B000CFC2A3BA0D0A0000307825303258200083
:1011C000B4EDCEF33A454550524F4DB6C1B3F6D3C8
:1011D000EBD0B4C8EBB5C4CAFDBEDDB2BBD2BBD642
:1011E000C200000020253032580000006565707292
:1011F0006F6DB6C1D0B4B2E2CAD4B3C9B9A60D0AF4
:1012000000000000002001E0411CC8B20A28FBDBFE
:10121000704710B580206949086040200860FFF7DA
:10122000F1FF80206549091D0860FFF7EBFF4020B2
:101230006249091D0860FFF7E5FF10BD10B5802069
:101240005E49091D08604020091F0860FFF7DAFFAA
:1012500080205A49086010BD70B50446002520E082
:1012600004F0800018B180205449086003E0802019
:101270005249091D0860FFF7C5FF40204F4908602B
:10128000FFF7C0FF40204D49091D0860072D02D11E
:101290008020091F08606006040EFFF7B3FF681C7A
:1012A000C5B2082DDCDB70BD70B50024002516E04A
:1012B0006006040E402041490860FFF7A3FF3F4845
:1012C0000838006800F0800008B1601CC4B24020FB
:1012D0003A49091D0860FFF795FF681CC5B2082D43
:1012E000E6DB204670BD10B5802034490860FFF76A
:1012F00089FF402031490860FFF784FF2F480838F4
:10130000006800F0800008B1012400E000244020C3
:101310002A49091D0860FFF775FF204610BD10B56A
:1013200080202649091D0860FFF76CFF40202349F3
:101330000860FFF767FF40202049091D0860FFF79C
:1013400061FF80201D49086010BD10B580201B4939
:101350000860FFF757FF402018490860FFF752FF69
:1013600040201649091D0860FFF74CFF10BD08B565
:1013700001210820FFF704FBC020ADF80000032086
:101380008DF8020014208DF8030069460B481038D0
:10139000FFF73AF8FFF752FF08BD70B50446FFF7B4
:1013A000E6FFFFF736FF2046FFF756FFFFF79BFFEC
:1013B0000546FFF743FF284670BD0000100C0140B2
:1013C00000B585B001210420FFF7DAFA0121880376
:1013D000FFF7D6FA4FF40070ADF8100018208DF822
:1013E000130003208DF8120004A92248FFF70CF81F
:1013F0004FF48060ADF8100004208DF8130004A9AC
:101400001C48FFF701F84FF4E13000900020ADF8E0
:101410000400ADF80600ADF80800ADF80C000C2093
:10142000ADF80A0069461448FFF751FB0121124844
:10143000FFF7D9FB05B000BD70B504460D46E1B21B
:101440000D48FFF73DFC00BF80210B48FFF7A6FCCD
:101450000028F9D0204670BD10B5044600BF2021F9
:101460000548FFF79BFC0028F9D00348FFF72CFC48
:1014700010BD0000000801400038014008B50121FE
:101480000820FFF77DFA2020ADF8000010208DF82D
:10149000030003208DF8020069460F48FEF7B4FFF1
:1014A0000120ADF8000069460B48FEF7ADFF0220B1
:1014B000ADF8000069460848FEF7A6FF202106485F
:1014C000FFF74FF801210448FFF74BF802210248CB
:1014D000FFF747F808BD0000000C01402DE9F05F60
:1014E0000546002092469B46884606468146402493
:1014F0001BE0284641464746224600F042F8534644
:101500005A46C01A914110D311461846224600F09F
:1015100029F82D1A67EB01084F46224601200021C9
:1015200000F020F817EB00094E41201EA4F1010441
:10153000DFDC484631462A464346BDE8F09F0000BE
:10154000064C074D06E0E06840F0010394E8070010
:1015500098471034AC42F6D3FEF7EEFD481A000867
:10156000681A0008202A04DB203A00FA02F1002061
:1015700070479140C2F1200320FA03F319439040D1
:101580007047202A04DB203A21FA02F0002170473C
:1015900021FA02F3D040C2F12002914008431946DB
:1015A000704700000FB4054B10B503A9044A029818
:1015B00000F018F810BC5DF814FB000039140008A6
:1015C0002800002002E008C8121F08C1002AFAD132
:1015D00070477047002001E001C1121F002AFBD1B3
:1015E000704700002DE9FF4F8DB00F4605460026DD
:1015F00006E025280BD0DDE90F1290476D1C761C04
:1016000028780028F5D111B03046BDE8F08F0024CD
:10161000A246A1460122EC4900E0044315F8013F2F
:10162000203B02FA03F00842F7D128782A2810D08C
:101630006FF02F022878A0F13001092914D80AEBA5
:101640008A0102EB410144F0020400EB010A6D1C27
:10165000F0E701CF5FEA000A03D544F40054CAF171
:10166000000A44F002046D1C28782E2817D115F8C2
:10167000010F44F004042A280ED06FF02F022878BE
:10168000A0F1300109290AD809EB890102EB4101D7
:1016900000EB01096D1CF2E757F8049B6D1C2878DC
:1016A0006C280FD006DC4C2817D068280DD06A288B
:1016B00014D104E0742810D07A280FD10DE044F43E
:1016C00000140AE044F4801401E044F44014697802
:1016D000814202D104F580146D1C6D1C2A786E2A9B
:1016E0001FD00CDC632A31D004DC002A8BD0582AAE
:1016F00011D1A3E0642A68D0692A0CD165E0732A6D
:101700002ED004DC6F2A73D0702A04D19BE0752A96
:101710006FD0782A6ED01046DDE90F129047761C04
:1017200050E1C4F30250022806D0032809D004284F
:1017300001CF09D0066045E101CFF117C0E9006192
:1017400040E101CF06803DE106703BE117F8040B54
:101750008DF8000000208DF80100EB46012003E029
:1017600057F804BB4FF0FF3061074FF0000102D47F
:101770000DE008F10101884649450FDA8045F8DBA4
:101780001BF808100029F4D108E008F1010188468F
:101790008142FADB1BF808100029F6D1DDE90F239E
:1017A000AAEB08008146214600F036F9304400EBF0
:1017B000080604E0DDE90F121BF8010B9047B8F1B1
:1017C0000108F7D221464846F7E00A21C4F3025344
:1017D0004FF0000B0891022B04D001CFC117032B4F
:1017E00009D00AE0FF1D27F00707F7E8020108E02B
:1017F00032E01FE020E000B2C117042B01D140B25B
:10180000C117031E71F1000307DA4FF0000CD0EB93
:101810000C006CEB01012D2302E0230504D52B23E2
:101820008DF82430012303E0E30701D02023F7E7FC
:10183000984658E00A2110E010210EE010204FF0E9
:10184000000B08900CE010214FF0000B44F0040452
:101850004FF00809089103E008214FF0000B0891B0
:10186000C4F30253022B04D001CF0021032B06D076
:1018700006E0FF1D27F00707F7E8020103E080B24A
:10188000042B00D1C0B24FF0000823072BD5702ADB
:1018900007D0DDF820C08CF0100C5CEA0B0C05D0F2
:1018A0000EE040238DF82430012308E050EA0103C4
:1018B00006D030238DF824308DF825200223984659
:1018C000DDF820C08CF0080C5CEA0B0C0BD150EA60
:1018D000010301D1630706D530238DF824304FF082
:1018E0000108A9F10109582A04D038A20B9208AACC
:1018F0000A920BE03AA2F9E75B46089AFFF7EEFD81
:101900000B9B9B5C0A9A521E0A92137050EA0102CA
:10191000F2D10A98ADEB000000F1200B600702D570
:1019200024F4803401E04FF00109D94502DDA9EB30
:101930000B0000E0002000EB0B0141440890AAEBF3
:10194000010AE00306D4DDE90F232146504600F0EA
:1019500063F806444FF0000908E009A911F80900EE
:10196000DDE90F12904709F10109761CC145F4DB4E
:10197000E0030CD5DDE90F232146504600F04CF87A
:10198000064404E0DDE90F1230209047761C0899E8
:10199000481E08900029F5DC08E00A980A990078AA
:1019A000491C0A91DDE90F129047761CBBF100013A
:1019B000ABF1010BF1DC21465046DDE90F2300F0CD
:1019C00019F806446D1C1BE609280100303132333A
:1019D000343536373839616263646566000000006B
:1019E0003031323334353637383941424344454655
:1019F000000000002DE9F041044600251E46174670
:101A0000880404D405E039462020B0476D1C641ECC
:101A1000F9D52846BDE8F0812DE9F04104460025BE
:101A20001E469046C80301D5302700E020278804D1
:101A300004D505E041463846B0476D1C641EF9D513
:101A40002846BDE8F0810000681A00080000002068
:101A50002C000000C4150008941A00082C00002077
:101A600004040000D415000800A24A04000000008D
:101A7000000000000102030406070809000000003E
:101A80000102030401020304060708090204060810
:041A90000000000052
:0400000508000131BD
:00000001FF
