:020000040800F2
:1000000098060020E1010008F9080008E50700084B
:10001000F508000889060008190F00080000000014
:10002000000000000000000000000000B10C00080B
:10003000C5060008000000006D090008C50D000895
:10004000FB010008FB010008FB010008FB010008A0
:10005000FB010008FB010008FB010008FB01000890
:10006000FB010008FB010008FB010008FB01000880
:10007000FB010008FB010008FB010008FB01000870
:10008000FB010008FB010008FB010008FB01000860
:10009000FB010008FB010008FB010008FB01000850
:1000A000FB010008FB010008FB010008FB01000840
:1000B000FB010008FB010008FB010008FB01000830
:1000C000FB010008FB010008FB010008FB01000820
:1000D000FB010008FB010008FB010008FB01000810
:1000E000FB010008FB010008FB010008FB01000800
:1000F000FB010008FB010008FB010008FB010008F0
:10010000FB010008FB010008FB010008FB010008DF
:10011000FB010008FB010008FB010008FB010008CF
:10012000FB010008FB010008FB010008FB010008BF
:1001300000F002F800F045F80AA090E8000C8244B4
:100140008344AAF10107DA4501D100F03AF8AFF291
:10015000090EBAE80F0013F0010F18BFFB1A43F0A5
:10016000010318471810000038100000103A24BF8F
:1001700078C878C1FAD8520724BF30C830C144BF0C
:1001800004680C607047000000230024002500264E
:10019000103A28BF78C1FBD8520728BF30C148BFEA
:1001A0000B607047642900F09980782900F0D280B4
:1001B000732900F00682002070471FB51FBD10B5DF
:1001C00010BD00F031FA1146FFF7F7FF00F006FF0F
:1001D00000F04FFA03B4FFF7F2FF03BC00F0A5FEF6
:1001E0000948804709480047FEE7FEE7FEE7FEE7CB
:1001F000FEE7FEE7FEE7FEE7FEE7FEE70448054907
:10020000054A064B70470000C90D0008310100087F
:1002100098000020980600209802002098020020F4
:10022000704700000FB4044910B503AA029800F00B
:10023000CDF910BC5DF814FB1C00002070B504461D
:1002400085690068C10601D5302600E02026C00778
:1002500007D070BDD4E9012130469047206A401C88
:1002600020626D1EF6D570BD70B5044685690078B4
:10027000C00707D170BDD4E9012120209047206A32
:10028000401C20626D1EF6D570BD70B50C4605464B
:10029000012A05D02878800600D5EA69002302E00B
:1002A000012305E05B1C934202D2E05C0028F9D1F7
:1002B000A869E618C01AA861286A18442862284666
:1002C000FFF7BCFF04E0D5E9012114F8010B9047CA
:1002D000B442F8D32846FFF7C7FF70BD2DE9F041BF
:1002E0000646002410687529314616A510D0AFF3D4
:1002F0000080002802DA404213A507E031688A072F
:1003000001D512A502E0490704D511A5012401E099
:10031000AFF3008000210A2206F1240709E0B0FBB8
:10032000F2FCB0FBF2F302FB1C00303078541846AC
:10033000491C0028F3D123462A463046BDE8F04147
:1003400000F0D4B8000000002D0000002B000000D9
:100350002000000070B504460D4621461068AFF33A
:1003600000802188090502D50F4A7A4402E00E4A2E
:100370007A440E32002104F1240305E000F00F0658
:100380000009965D5E54491C0028F7D120780023AF
:10039000000704D5702D02D009B102231132204686
:1003A000BDE8704000F0A2B8820D00002DE9F05FBA
:1003B000894604464FF0000ADFF824B1FB44C0F838
:1003C00020A02046E168884700287DD0252806D057
:1003D000D4E901219047206A401C2062F1E7002502
:1003E0005F462046E16888472028064607DB312E15
:1003F00005D2B81910F8200C08B10543F1E7A80799
:1004000001D525F00405C4F81CA00027C4F818A0E5
:100410002A2E09D0304600F081FD38B304EB87085E
:10042000303EC8F8186019E059F8041B204604EB68
:1004300087029161E1688847012F064618D1E0697B
:10044000002820DA25F020051DE0D8F8180000EB80
:10045000800006EB40003038C8F818002046E168FC
:100460008847064600F05AFD0028EED1012F0AD039
:100470002E2E08D12046E16888477F1C0646022FB1
:1004800045F02005C4DBA069002803DA404245F0AE
:100490000105A061E80701D025F01005A6B1A6F17D
:1004A0004100192802D8203645F400654A463146F5
:1004B000204625604D46FFF775FE60B1012807D044
:1004C000ED1D25F0070000E007E000F1080978E7DE
:1004D00005F1040975E730467AE7206ABDE8F09F28
:1004E000580D000070477047704770472DE9F0477E
:1004F0000D4699469246044600F124080168880694
:1005000004D5E06921F01001216000E00120A8423B
:1005100001DD471B00E00027A1697A1902EB090001
:10052000081AA0612078C00602D42046FFF786FE94
:10053000002608E0D4E901211AF806009047206A55
:10054000401C761C20624E45F4DB2078C0060AD59C
:100550002046FFF773FE06E0D4E9012130209047E2
:10056000206A401C2062381EA7F10107F4DC07E076
:10057000D4E9012118F805009047206A401C206248
:10058000281EA5F10105F3DC2046FFF76DFE20785B
:10059000000602D50220BDE8F0870120FBE710B578
:1005A000436913B1AFF3008001E0FFF76EFE012055
:1005B00010BD127800F124010A7000224A70012255
:1005C000EDE711684FF0FF32E9E70000074B70B527
:1005D0000D467B4400F011F80446284600F020F850
:1005E00010B14FF0FF3070BD204670BDEB09000028
:1005F00001694A1C02610878704700B58FB0CDE9E7
:1006000001310021059105497944CDE903101146D6
:100610006846FFF7CBFE0FB000BD0000E5FFFFFF0F
:10062000007B00F080007047754600F029F8AE4668
:1006300005006946534620F00700854618B020B5EE
:10064000FFF7DCFDBDE820404FF000064FF000074B
:100650004FF000084FF0000B21F00701AC46ACE86A
:10066000C009ACE8C009ACE8C009ACE8C0098D46D7
:1006700070470446AFF300802046FFF7ABFD000053
:10068000004870473800002000BFFEE710B500208A
:1006900000F004F90446214604A0FFF7C3FD482CEE
:1006A00001D1012010BD0020FCE700000D0A414BE4
:1006B000383936335F49443A3078253032580D0A9C
:1006C0000000000070472DE9F04102460025002699
:1006D000002000230024002791F803C00CF00F0530
:1006E00091F803C00CF0100CBCF1000F03D091F88E
:1006F00002C04CEA050591F800C0BCF1000F31D0F2
:10070000146800202BE04FF0010C0CFA00F3B1F854
:1007100000C00CEA03069E4220D183004FF00F0C6C
:100720000CFA03F7BC4305FA03FC4CEA040491F805
:1007300003C0BCF1280F06D14FF0010C0CFA00FCED
:10074000C2F814C00AE091F803C0BCF1480F05D10B
:100750004FF0010C0CFA00FCC2F810C0401C082835
:10076000D1D31460B1F800C0BCF1FF0F34DD546880
:1007700000202EE000F1080C4FF0010808FA0CF3FD
:10078000B1F800C00CEA03069E4221D183004FF06D
:100790000F0C0CFA03F7BC4305FA03FC4CEA040403
:1007A00091F803C0BCF1280F05D100F1080C08FA3C
:1007B0000CF8C2F8148091F803C0BCF1480F07D1BF
:1007C00000F1080C4FF0010808FA0CF8C2F810808C
:1007D000401C0828CED35460BDE8F08141617047C9
:1007E0000161704700BFFEE710B5642000F0C2FB56
:1007F00080216B2000F068F800216B2000F064F885
:100800000021382000F060F806211A2000F05CF882
:100810000721192000F058F801211B2000F054F89E
:1008200000211D2000F050F810211C2000F04CF891
:100830000221372000F048F80A2000F09BFB01213C
:100840000B2000F041F801210A2000F03DF810BD16
:1008500008B50121482000F08BF82020ADF80000F9
:1008600010208DF8030003208DF802006946094826
:10087000FFF729FF20210748FFF7B2FF2020ADF83E
:10088000000069460448FFF71EFF20210248FFF7D9
:10089000A7FF08BD000C01400018014070B50446D8
:1008A00010210848FFF79AFF44F0800000F02CF96F
:1008B000FF2000F029F9054610210248FFF790FFBC
:1008C000284670BD0008014070B505460C46102151
:1008D0000748FFF783FF284600F016F90646204632
:1008E00000F012F910210248FFF77AFF304670BD80
:1008F0000008014000BFFEE77047000070B500210E
:1009000000230F22C47804B3154C246804F4E06477
:10091000C4F5E064210AC1F10403CA40447804FA32
:1009200003F184781440214309010E4C0678A15547
:10093000047804F01F050124AC4005786D11AD006A
:1009400005F1E025C5F8004109E0047804F01F0531
:100950000124AC40044D0678761145F8264070BD60
:100960000CED00E000E400E080E100E070470000F2
:1009700029B1064A92690243044B9A6104E0034A92
:1009800092698243014B9A61704700000010024057
:1009900030B500210022002400232D4D6D6805F0A4
:1009A0000C0121B1042905D0082923D105E0294DE6
:1009B000056022E0274D05601FE0254D6D6805F4B8
:1009C0007012234D6D6805F48034022505EB9242C8
:1009D0001CB9214D554305600BE01D4D6D6805F4B4
:1009E00000351DB11C4D5543056002E0194D5543BE
:1009F000056002E0174D056000BF00BF144D6D6833
:100A000005F0F0010909154D6B5C0568DD40456096
:100A10000F4D6D6805F4E061090A104D6B5C456887
:100A2000DD4085600A4D6D6805F46051C90A0B4DC3
:100A30006B5C4568DD40C560054D6D6805F440415F
:100A4000890B074D6B5CC568B5FBF3F5056130BDDF
:100A50000010024000127A0000093D002200002030
:100A60003200002021B1028842F04002028004E0FE
:100A700002884FF6BF731A400280704710B500F02D
:100A8000B5F800F001F810BD00B585B001210803EC
:100A9000FFF76EFF3020ADF80C000120ADF8080024
:100AA0000220ADF806000020ADF81000ADF80400FB
:100AB000ADF80000ADF80E004FF48270ADF8020002
:100AC0004FF40070ADF80A006946044800F0D2F80F
:100AD00001210248FFF7C6FF05B000BD003001400C
:100AE00010B510210748FFF779FEF52000F00CF84B
:100AF000FF2000F009F8044610210248FFF770FEBD
:100B0000204610BD0008014070B504464FF48050E7
:100B10001C4908600DE01B490868411E194A116014
:100B200038B90023752218A11FA0FFF77BFB002016
:100B300070BD02212C4800F08FF80028EBD0214630
:100B4000294800F095F84FF480500E4908600DE0F8
:100B50000C490868411E0B4A116038B901238322F1
:100B600009A111A0FFF75EFB0020E1E701211E486B
:100B700000F072F80028EBD01B4800F076F805462C
:100B8000E8B2D5E7140000202E2E5C4841524457AD
:100B90004152455C535049466C6173685C535049FF
:100BA000466C6173682E63000D0A44656275673A8E
:100BB0002046696C655B25735D20204C696E655B22
:100BC00025645D202053504920B5C8B4FDB3ACCA9C
:100BD000B1216572726F72436F6465203D20256498
:100BE0002020200D0A0000000030014008B501213E
:100BF0000420FFF7BDFE10208DF80300ADF80000C3
:100C000003208DF8020069461248FFF75CFD1820AA
:100C10008DF803002020ADF8000069460D48FFF76D
:100C200052FD04208DF803004020ADF80000694615
:100C30000848FFF748FD18208DF803008020ADF824
:100C4000000069460348FFF73EFD10210148FFF709
:100C5000C7FD08BD000801400246002013890B4073
:100C60000BB1012000E000207047014688897047E1
:100C70008181704710B50022028802F441520B882E
:100C80004C8823438C882343CC8823430C892343FB
:100C90004C8923438C892343CC8923431A43028004
:100CA000838B4FF2FF74234083830B8A038210BD32
:100CB000704710B500F002F810BD00000CB5002020
:100CC000019000903348006840F48030314908605A
:100CD00000BF3048006800F4003000900198401CCC
:100CE0000190009818B90198B0F5A06FF1D129488A
:100CF000006800F4003010B10120009001E00020F5
:100D000000900098012843D12348006840F010006B
:100D1000214908600846006820F003000860084682
:100D2000006840F0020008601A48406819494860AD
:100D30000846406848600846406840F48060486063
:100D40000846406820F47C1048600846406840F43B
:100D5000E81048600846006840F08070086000BFF6
:100D60000C48006800F000700028F9D0094840687D
:100D700020F00300074948600846406840F0020040
:100D8000486000BF0348406800F00C000828F9D113
:100D90000CBD00000010024000200240042808D1D1
:100DA0004FF0E021096941F004014FF0E0221161A8
:100DB00007E04FF0E021096921F004014FF0E02243
:100DC000116170477047000010B51348006840F08B
:100DD00001001149086008464068104908400E4962
:100DE0004860084600680E4908400B4908600846FC
:100DF000006820F4802008600846406820F4FE0067
:100E000048604FF41F008860FFF753FF4FF0006009
:100E10000449086010BD0000001002400000FFF807
:100E2000FFFFF6FE08ED00E021B1828942F4005296
:100E3000828104E082894DF6FF731A4082817047F7
:100E40002DE9F04786B005460E460024A24600BFB5
:100E5000A1460027B08900B100BF2F462C8A4CF66E
:100E6000FF700440F08804432C82AC894EF6F310E6
:100E70000440B08831890843718908430443AC8138
:100E8000AC8A4FF6FF400440B0890443AC8201A80D
:100E9000FFF77EFD1F48874202D1DDF810A001E078
:100EA000DDF80CA0A88900F4004040B10AEBCA00AC
:100EB00000EB0A1031684900B0FBF1F807E00AEBDB
:100EC000CA0000EB0A1031688900B0FBF1F8642019
:100ED000B8FBF0F004012009642101FB1089A88906
:100EE00000F4004040B1322000EBC900B0FBF1F04B
:100EF00000F00700044308E0322000EB09106421F1
:100F0000B0FBF1F000F00F0004432C8106B0BDE807
:100F1000F08700000038014000BFFEE730380A28A3
:100F200001D2012070470020704700BF70470000C9
:100F300010B56FF00400FFF731FF0A4800680A4956
:100F4000B0FBF1F0094908700846007800EB400159
:100F5000C1EBC0104FF6FF7101EAC00004490880E0
:100F600010BD00000000002000127A0018000020D0
:100F70001A0000200146114A12884A434FF0E0232C
:100F80005A6100229A611A46126942F001021A61FE
:100F900000BF4FF0E022106900F001021AB100F426
:100FA0008032002AF5D04FF0E022126922F00102CF
:100FB0004FF0E0231A6100229A6170471A00002066
:100FC00000BF054A128802F04002002AF9D0C2B2DE
:100FD000014B1B1D1A80704700380140FFF74EFD82
:100FE000FFF7A6FF4FF4E13000F038F8FFF730FCD0
:100FF000FFF7FAFB1248FFF715F920E0601CC4B2B6
:10100000FFF76EFD054629460EA0FFF70BF9FFF727
:101010003DFB4FF4FA70FFF7ADFF0F48006808B9C9
:10102000012000E000200C4908600A2094FBF0F148
:1010300000FB114018B900240148FFF7F3F8DDE781
:101040002C1100080D0A204D5055393235305F49BA
:10105000443A2030782558009401234210B586B0D8
:101060000446012144F20400FFF782FC4FF40070B3
:10107000ADF8140003208DF8160018208DF8170025
:1010800005A91948FFF71FFB4FF48060ADF8140065
:1010900004208DF8170005A91348FFF714FB25203D
:1010A0008DF8000003208DF801008DF8020001206A
:1010B0008DF803006846FFF721FC01940020ADF88D
:1010C0000800ADF80A00ADF80C00ADF810000C20D7
:1010D000ADF80E0001A90548FFF7B2FE0121034853
:1010E000FFF7A2FE06B010BD000801400038014025
:1010F000303132333435363738394142434445464E
:101100004030580030313233343536373839616247
:101110006364656640307800040000080000000049
:101120000000000200010000100000000D0A20B3C2
:10113000CCD0F2D3C94E6F4D617828CEDEBCAB293E
:10114000CBF9D3D0200D0A20B9A9B4F3BCD2B2CECA
:10115000BFBC0D0A20D5E2CAC7D2BBB8F65350496E
:10116000464C415348CAB5D1E920535049322D2D40
:10117000573235513132380D0A2000009C110008D9
:1011800000000020380000006C010008D4110008A5
:1011900038000020600600008801000800A24A0410
:1011A0000000000000000000010203040607080917
:1011B00000A000000000000000000000000000008F
:1011C00000000102030401020304060708090204E7
:0411D000060800000D
:0400000508000131BD
:00000001FF
