:020000040800F2
:1000000098080020DD010008810C0008A7090008FD
:100010007D0C0008090600087510000800000000AB
:100020000000000000000000000000000D0E0008AD
:100030000D06000800000000F50C0008210F000864
:10004000F7010008F7010008F7010008F7010008B0
:10005000F7010008F7010008F7010008F7010008A0
:10006000F7010008F7010008F7010008F701000890
:10007000F7010008F7010008F7010008F701000880
:10008000F7010008F7010008F7010008F701000870
:10009000F7010008F7010008F7010008F701000860
:1000A000F7010008F7010008F7010008F701000850
:1000B000F7010008F7010008F7010008F701000840
:1000C000F7010008F7010008F7010008F701000830
:1000D000F7010008F7010008F7010008F701000820
:1000E000F7010008F7010008F7010008F701000810
:1000F000F7010008F7010008F7010008F701000800
:10010000F7010008F7010008F7010008F7010008EF
:10011000F7010008F7010008F7010008F7010008DF
:10012000F7010008F7010008F7010008F7010008CF
:1001300000F002F800F042F80AA090E8000C8244B7
:100140008344AAF10107DA4501D100F037F8AFF294
:10015000090EBAE80F0013F0010F18BFFB1A43F0A5
:10016000010318476811000088110000103A24BFED
:1001700078C878C1FAD8520724BF30C830C144BF0C
:1001800004680C607047000000230024002500264E
:10019000103A28BF78C1FBD8520728BF30C148BFEA
:1001A0000B607047642900F06F80782900F0A88008
:1001B000002070471FB51FBD10B510BD00F0F4F949
:1001C0001146FFF7F7FF00F0B7FF00F012FA03B493
:1001D000FFF7F2FF03BC00F056FF0000094880471C
:1001E00009480047FEE7FEE7FEE7FEE7FEE7FEE719
:1001F000FEE7FEE7FEE7FEE704480549054A064B31
:1002000070470000250F0008310100089802002007
:1002100098080020980400209804002070470000EF
:100220000FB4044910B503AA029800F08FF910BC6E
:100230005DF814FB1C00002070B504468569006859
:10024000C10601D5302600E02026C00707D070BDCA
:10025000D4E9012130469047206A401C20626D1E7F
:10026000F6D570BD70B5044685690078C00707D122
:1002700070BDD4E9012120209047206A401C2062F3
:100280006D1EF6D570BD00002DE9F0410646002434
:1002900010687529314616A510D0AFF300800028EC
:1002A00002DA404213A507E031688A0701D512A59A
:1002B00002E0490704D511A5012401E0AFF3008055
:1002C00000210A2206F1240709E0B0FBF2FCB0FB92
:1002D000F2F302FB1C00303078541846491C002809
:1002E000F3D123462A463046BDE8F04100F0D4B8A9
:1002F000000000002D0000002B0000002000000086
:1003000070B504460D4621461068AFF30080218881
:10031000090502D50F4A7A4402E00E4A7A440E32A9
:10032000002104F1240305E000F00F060009965DAA
:100330005E54491C0028F7D120780023000704D51B
:10034000702D02D009B1022311322046BDE8704061
:1003500000F0A2B8760F00002DE9F05F8946044650
:100360004FF0000ADFF824B1FB44C0F820A020467B
:10037000E168884700287DD0252806D0D4E90121EE
:100380009047206A401C2062F1E700255F46204626
:10039000E16888472028064607DB312E05D2B819C8
:1003A00010F8200C08B10543F1E7A80701D525F0A6
:1003B0000405C4F81CA00027C4F818A02A2E09D0F0
:1003C000304600F059FE38B304EB8708303EC8F8D9
:1003D000186019E059F8041B204604EB870291616C
:1003E000E1688847012F064618D1E069002820DA25
:1003F00025F020051DE0D8F8180000EB800006EB82
:1004000040003038C8F818002046E16888470646A2
:1004100000F032FE0028EED1012F0AD02E2E08D196
:100420002046E16888477F1C0646022F45F02005DC
:10043000C4DBA069002803DA404245F00105A06151
:10044000E80701D025F01005A6B1A6F14100192852
:1004500002D8203645F400654A46314620462560DC
:100460004D46FFF79FFE60B1012807D0ED1D25F036
:10047000070000E007E000F1080978E705F104094A
:1004800075E730467AE7206ABDE8F09F4C0F000020
:1004900070477047704770472DE9F0470D46994601
:1004A0009246044600F124080168880604D5E069F4
:1004B00021F01001216000E00120A84201DD471B6E
:1004C00000E00027A1697A1902EB0900081AA0616F
:1004D0002078C00602D42046FFF7AEFE002608E0D2
:1004E000D4E901211AF806009047206A401C761CC6
:1004F00020624E45F4DB2078C0060AD52046FFF77F
:100500009BFE06E0D4E9012130209047206A401C80
:100510002062381EA7F10107F4DC07E0D4E90121CD
:1005200018F805009047206A401C2062281EA5F19B
:100530000105F3DC2046FFF795FE2078000602D582
:100540000220BDE8F0870120FBE70000074B70B5F3
:100550000D467B4400F011F80446284600F020F8D0
:1005600010B14FF0FF3070BD204670BDC70B0000CA
:1005700001694A1C02610878704700B58FB0CDE967
:1005800001310021059105497944CDE90310114657
:100590006846FFF7E1FE0FB000BD0000E5FFFFFF7A
:1005A000007B00F080007047754600F029F8AE46E9
:1005B00005006946534620F00700854618B020B56F
:1005C000FFF71AFEBDE820404FF000064FF000078D
:1005D0004FF000084FF0000B21F00701AC46ACE8EB
:1005E000C009ACE8C009ACE8C009ACE8C0098D4658
:1005F00070470446AFF300802046FFF7E8FD000097
:10060000004870473802002000BFFEE77047000036
:1006100070B506460C4615464FF420404349086025
:1006200009E042490868411E404A116018B9042097
:1006300000F0DEFA70BD4FF400313D4800F034FAAE
:100640000128EED04FF42040384908600121384895
:1006500000F012FA09E035490868411E334A11607A
:1006600018B9052000F0C4FAE4E73249304800F038
:10067000A8F90028EFD04FF420402C490860002250
:10068000A0212B4800F0A8FA09E028490868411E7B
:10069000264A116018B9062000F0AAFACAE72649CE
:1006A000234800F08EF90028EFD04FF420401F4976
:1006B000086031461E4800F098FA09E01B490868B6
:1006C000411E1A4A116018B9072000F091FAB1E7EB
:1006D0001949891E164800F074F90028EED01CE074
:1006E0002178134800F081FA4FF420400F49086048
:1006F00009E00E490868411E0C4A116018B908202B
:1007000000F076FA96E70C49891C094800F059F97F
:100710000028EED0681EC5B2641C002DE0D1012176
:10072000034800F0B5F9012084E700001400002020
:1007300000540040010003008200070070B5064627
:100740000D46144601212D4800F096F900BF2C49B2
:100750002A4800F036F90028F9D00022A0212748C5
:1007600000F03AFA00BF2749244800F02AF900288F
:10077000F9D03146214800F038FA00BF2149891EDE
:100780001E4800F01EF90028F8D001211B4800F097
:1007900073F900BF1A49194800F013F90028F9D07D
:1007A0000122A021154800F017FA00BF1449491C86
:1007B000124800F006F90028F8D014E0012C03D10B
:1007C00000210E4800F0F1F800BF0D493F310B4801
:1007D00000F0F7F80028F8D0084800F0F9F9287080
:1007E0006D1C601EC4B2002CE8D10121034800F04A
:1007F0004FF90121014800F0D8F870BD00540040C5
:10080000010003008200070010B54FF420401C498E
:10081000086000BF1A480068401E1949086001219D
:10082000184800F029F910E04FF4204014490860FE
:1008300008460068401E08600868411E104A1160A2
:1008400018B9092000F0D4F910BD0F490D4800F087
:100850002BF90028E8D00022A0210A4800F0BCF9BA
:100860000949491C074800F01FF918B904480068F5
:100870000028CFD10121034800F00AF90120E3E765
:100880001400002000540040010000102DE9F04148
:10089000024600250026002000230024002791F8AE
:1008A00003C00CF00F0591F803C00CF0100CBCF164
:1008B000000F03D091F802C04CEA050591F800C082
:1008C000BCF1000F31D0146800202BE04FF0010C78
:1008D0000CFA00F3B1F800C00CEA03069E4220D1E6
:1008E00083004FF00F0C0CFA03F7BC4305FA03FC2E
:1008F0004CEA040491F803C0BCF1280F06D14FF074
:10090000010C0CFA00FCC2F814C00AE091F803C014
:10091000BCF1480F05D14FF0010C0CFA00FCC2F8F5
:1009200010C0401C0828D1D31460B1F800C0BCF13D
:10093000FF0F34DD546800202EE000F1080C4FF06A
:10094000010808FA0CF3B1F800C00CEA03069E4255
:1009500021D183004FF00F0C0CFA03F7BC4305FACA
:1009600003FC4CEA040491F803C0BCF1280F05D144
:1009700000F1080C08FA0CF8C2F8148091F803C0D2
:10098000BCF1480F07D100F1080C4FF0010808FA3C
:100990000CF8C2F81080401C0828CED35460BDE883
:1009A000F0810161704700BFFEE721B1028842F487
:1009B0008062028004E002884FF6FF331A40028012
:1009C000704770B502460024002500230020958A58
:1009D000138B1B0445EA030626F07F4404EA010654
:1009E0008E4201D1012000E0002070BD21B10288BB
:1009F00042F00102028004E002884FF6FE731A40C2
:100A00000280704700B585B00121082000F084F90C
:100A10000121480500F070F91C208DF80300C0206A
:100A2000ADF8000003208DF8020069460F48FFF77B
:100A30002DFF0F4801900020ADF808004BF6FF7025
:100A4000ADF80A004FF48060ADF80E000001ADF87B
:100A500010005F20ADF80C0001A9064800F042F834
:100A600001210448FFF7C2FF05B000BD000C0140A2
:100A7000801A06000054004021B1028842F48072BE
:100A8000028004E002884FF6FF631A40028070473C
:100A900021B1028842F40072028004E002884FF61D
:100AA000FF531A40028070470CB502460020002315
:100AB0000193009300920B0F019321F07F41019B62
:100AC0001BB1009B1433009303E0090C009B183307
:100AD0000093009B1B680B400BB1012000E000203D
:100AE0000CBD00002DE9F04385B004460D460026FC
:100AF000B1460427DFF8CC80A6884FF6C0700640C8
:100B0000684600F019F9DDF808802F48B8FBF0F0CE
:100B10001FFA80F946EA0906A68020884FF6FE7182
:100B20000840208000262949286888420CD8286877
:100B30004000B8FBF0F087B2042F00DA04273E43F0
:100B400009F10100208427E0E8884BF6FF71884214
:100B500006D1286800EB4000B8FBF0F087B209E04E
:100B6000286800EBC00101EB0010B8FBF0F087B281
:100B700047F48047C7F30B0008B947F0010747F473
:100B8000004006434FF4967009FB00F04FF47A7171
:100B900090FBF1F0401C2084A683208840F00100E7
:100BA000208026884FF6F5300640A88869890843DA
:100BB00006432680A88929890843208105B0BDE81D
:100BC000F083000000127A0040420F00A08601006E
:100BD0000146088AC0B2704712B141F0010102E03B
:100BE0004FF6FE7319400182704701827047000082
:100BF00010B50446214602A0FFF712FB002010BDED
:100C00003C493243204552524F523E494943CDA8B8
:100C1000D0C5CAA7B0DC2CB4EDCEF3B4FAC2EB3A1F
:100C200025640D0A0D0A000010B5FFF7EBFE10BD9C
:100C300008B50121482000F06FF82020ADF8000031
:100C400010208DF8030003208DF802006946094842
:100C5000FFF71CFE20210748FFF7A3FE2020ADF878
:100C6000000069460448FFF711FE20210248FFF703
:100C700098FE08BD000C01400018014000BFFEE7CF
:100C80007047000070B5002100230F22C47804B320
:100C9000154C246804F4E064C4F5E064210AC1F151
:100CA0000403CA40447804FA03F1847814402143D1
:100CB00009010E4C0678A155047804F01F050124A3
:100CC000AC4005786D11AD0005F1E025C5F8004197
:100CD00009E0047804F01F050124AC40044D0678B7
:100CE000761145F8264070BD0CED00E000E400E010
:100CF00080E100E07047000029B1064AD269024352
:100D0000044BDA6104E0034AD2698243014BDA61A1
:100D1000704700000010024029B1064A9269024360
:100D2000044B9A6104E0034A92698243014B9A6141
:100D3000704700000010024030B50021002200245E
:100D400000232D4D6D6805F00C0121B1042905D05B
:100D5000082923D105E0294D056022E0274D0560D3
:100D60001FE0254D6D6805F47012234D6D6805F484
:100D70008034022505EB92421CB9214D5543056094
:100D80000BE01D4D6D6805F400351DB11C4D55433C
:100D9000056002E0194D5543056002E0174D0560FE
:100DA00000BF00BF144D6D6805F0F0010909154D35
:100DB0006B5C0568DD4045600F4D6D6805F4E061D2
:100DC000090A104D6B5C4568DD4085600A4D6D6811
:100DD00005F46051C90A0B4D6B5C4568DD40C56088
:100DE000054D6D6805F44041890B074D6B5CC56886
:100DF000B5FBF3F5056130BD0010024000127A002A
:100E000000093D002200002032000020704710B58C
:100E100000F002F810BD00000CB500200190009019
:100E20003348006840F480303149086000BF3048E2
:100E3000006800F4003000900198401C0190009878
:100E400018B90198B0F5A06FF1D12948006800F4F5
:100E5000003010B10120009001E0002000900098C7
:100E6000012843D12348006840F010002149086060
:100E70000846006820F0030008600846006840F05B
:100E8000020008601A4840681949486008464068EE
:100E900048600846406840F4806048600846406802
:100EA00020F47C1048600846406840F4E810486030
:100EB0000846006840F08070086000BF0C48006879
:100EC00000F000700028F9D00948406820F00300C5
:100ED000074948600846406840F00200486000BF8B
:100EE0000348406800F00C000828F9D10CBD000050
:100EF0000010024000200240042808D14FF0E021F9
:100F0000096941F004014FF0E022116107E04FF060
:100F1000E021096921F004014FF0E02211617047DE
:100F20007047000010B51348006840F001001149F7
:100F3000086008464068104908400E494860084665
:100F400000680E4908400B4908600846006820F414
:100F5000802008600846406820F4FE0048604FF496
:100F60001F008860FFF753FF4FF0006004490860DE
:100F700010BD0000001002400000FFF8FFFFF6FE69
:100F800008ED00E021B1828942F40052828104E040
:100F900082894DF6FF731A40828170472DE9F04730
:100FA00086B005460E460024A24600BFA146002793
:100FB000B08900B100BF2F462C8A4CF6FF70044068
:100FC000F08804432C82AC894EF6F3100440B088BC
:100FD00031890843718908430443AC81AC8A4FF6D8
:100FE000FF400440B0890443AC8201A8FFF7A4FE8F
:100FF0001F48874202D1DDF810A001E0DDF80CA007
:10100000A88900F4004040B10AEBCA0000EB0A10C6
:1010100031684900B0FBF1F807E00AEBCA0000EBC9
:101020000A1031688900B0FBF1F86420B8FBF0F0D9
:1010300004012009642101FB1089A88900F4004003
:1010400040B1322000EBC900B0FBF1F000F0070026
:10105000044308E0322000EB09106421B0FBF1F0FA
:1010600000F00F0004432C8106B0BDE8F0870000BB
:101070000038014000BFFEE730380A2801D20120C5
:1010800070470020704700BF7047000010B56FF038
:101090000400FFF731FF0A4800680A49B0FBF1F08D
:1010A000094908700846007800EB4001C1EBC01008
:1010B0004FF6FF7101EAC0000449088010BD00002E
:1010C0000000002000127A00180000201A00002002
:1010D0000146114A12884A434FF0E0235A61002228
:1010E0009A611A46126942F001021A6100BF4FF07C
:1010F000E022106900F001021AB100F48032002AE7
:10110000F5D04FF0E022126922F001024FF0E02307
:101110001A6100229A6170471A00002000BF054A38
:10112000128802F04002002AF9D0C2B2014B1B1D06
:101130001A807047003801400024002600BFFFF7E6
:10114000A5FF4FF4E13000F059F8FFF771FDFFF70C
:101150006BFD002505E0C5F1FF0020494855681CDE
:1011600085B2FF2DF7DD00241FE021461CA0FFF70C
:1011700057F8E0B2FF221949FFF74AFAFFF744FB9C
:10118000E0B2FF221949FFF7D9FA19A0FFF748F892
:10119000002506E01548415D16A0FFF741F8681CE0
:1011A00085B2142DF6DB601C84B2052CDDDB14E067
:1011B000701C86B24CF2503096FBF0F100FB1160CF
:1011C00058B90D48006808B9012000E000200A491C
:1011D00008604FF49670FFF77BFFE9E738000020C6
:1011E0000D0A3078253032780000000038010020E8
:1011F0000D0A0000256420009401234210B586B03A
:101200000446012144F20400FFF786FD4FF400700C
:10121000ADF8140003208DF8160018208DF8170083
:1012200005A91948FFF732FB4FF48060ADF81400B0
:1012300004208DF8170005A91348FFF727FB252088
:101240008DF8000003208DF801008DF802000120C8
:101250008DF803006846FFF715FD01940020ADF8F6
:101260000800ADF80A00ADF80C00ADF810000C2035
:10127000ADF80E0001A90548FFF790FE01210348D3
:10128000FFF780FE06B010BD0008014000380140A5
:1012900030313233343536373839414243444546AC
:1012A00040305800303132333435363738396162A6
:1012B00063646566403078000400000800000000A8
:1012C000000000020001000010000000EC12000805
:1012D00000000020380000006C0100082413000802
:1012E00038000020600800008801000800A24A04BD
:1012F00000000000000000000102030406070809C6
:1013000000A000000000000000000000000000003D
:101310000000010203040102030406070809020495
:0413200006080000BB
:0400000508000131BD
:00000001FF
