:020000040800F2
:1000000058090020D50C0008AD040008AF04000812
:10001000B3040008B7040008BB0400080000000097
:10002000000000000000000000000000BF04000805
:10003000C104000800000000C3040008C504000853
:10004000EF0C0008EF0C0008EF0C0008EF0C0008A4
:10005000EF0C0008EF0C0008EF0C0008EF0C000894
:10006000EF0C0008EF0C0008EF0C0008EF0C000884
:10007000EF0C0008EF0C0008EF0C0008EF0C000874
:10008000EF0C0008EF0C0008EF0C0008EF0C000864
:10009000EF0C0008EF0C0008EF0C0008EF0C000854
:1000A000EF0C0008EF0C0008EF0C0008EF0C000844
:1000B000EF0C0008EF0C0008EF0C0008EF0C000834
:1000C000EF0C0008EF0C0008EF0C0008EF0C000824
:1000D000EF0C0008EF0C0008EF0C0008EF0C000814
:1000E000EF0C0008EF0C0008EF0C0008EF0C000804
:1000F000EF0C0008EF0C0008EF0C0008EF0C0008F4
:10010000EF0C0008EF0C0008EF0C0008EF0C0008E3
:10011000EF0C0008EF0C0008EF0C0008EF0C0008D3
:10012000EF0C0008EF0C0008EF0C0008EF0C0008C3
:1001300000F002F800F050F80AA090E8000C8244A9
:100140008344AAF10107DA4501D100F045F8AFF286
:10015000090EBAE80F0013F0010F18BFFB1A43F0A5
:1001600001031847A4310000C4310000103A24BF35
:1001700078C878C1FAD8520724BF30C830C144BF0C
:1001800004680C607047000000230024002500264E
:10019000103A28BF78C1FBD8520728BF30C148BFEA
:1001A0000B607047662902F0DB87642901F0028446
:1001B000782901F03B84732901F0A487002070475F
:1001C0001FB501F0B5FF04000020002102F00AFD78
:1001D000E0601FBD10B510BD02F0C2F81146FFF778
:1001E000EFFF00F009F802F0E0F803B4FFF7F2FFC8
:1001F00003BC00F017FD000000F0AAFC4FF4E13052
:1002000000F01EFD00F050FA00F09DFB00F0A0FC95
:100210004FF4E13000F014FD00F046FA00F093FBDB
:100220004FF0000A04E0674901F80AA00AF1010A48
:10023000BAF1FF0FF7DD4FF480726249002000F041
:10024000ABFA01281DD160A001F058FB4FF0000A65
:1002500013E05C4810F80A1063A001F04FFB4FEA6E
:10026000EA710AEB11710911AAEB01110F2902D1F0
:100270005CA001F043FB0AF1010ABAF1FF0FE8DDCF
:1002800002E05BA001F03AFB5F4800F0D6FA4FF4C1
:1002900080725E49002000F038FA01281DD15CA070
:1002A00001F02CFB4FF0000A13E0584810F80A1038
:1002B0004DA001F023FB4FEAEA710AEB117109111D
:1002C000AAEB01110F2902D146A001F017FB0AF198
:1002D000010ABAF1FF0FE8DD02E054A001F00EFBC5
:1002E000494800F0AAFA4FF0000A19E0504602F01F
:1002F00037FD8046534A544B02F04AFD04460D46F2
:100300000AEB8A01480002F02BFD064622462B46E6
:1003100002F07EFC4D4A02EBCA0203C20AF1010A56
:10032000BAF1080FE2DB40224849002000F034FA1D
:10033000354800F082FA40224549002000F0E5F9F6
:1003400044A001F0DBFA4FF0000A0AE0404800EB5D
:10035000CA00D0E90043224646A001F0CFFA0AF1D4
:10036000010ABAF1080FF1DB274800F066FA1E22F5
:100370004249602000F010FA234800F05EFA1E2285
:100380003F49602000F0C1F93EA001F0B7FA3C49B6
:1003900044A001F0B3FA14E00BF1010B4CF2503021
:1003A0009BFBF0F100FB11B058B93F48006808B959
:1003B000012000E000203C4908604FF4967000F0F6
:1003C00004FCE9E7D40000200D0AC4A3C4E24949B3
:1003D00043D0B4CAFDBEDDB3C9B9A620CAFDBEDD97
:1003E000CEAAA3BA0D0A000030782530325820007A
:1003F0000D0AC4A3C4E2494943D0B4CAFDBEDDCA54
:10040000A7B0DC0D0A000000FFFF0F00D4010020A0
:100410000D0AC4A3C4E2494943B6C1B5BDB5C4CAB7
:10042000FDBEDDCEAAA3BA0D0A0000000D0AC4A3CA
:10043000C4E2494943B6C1CAFDBEDDCAA7B0DC0D5E
:100440000A0000009A9999999999B93F00000020F3
:10045000400000200D0A0D0A454550524F4DB6C1CF
:10046000B5BDB5C4B8A1B5E3CAFDCEAAA3BA0D0AFD
:1004700000000000254C460D0A000000800000200E
:10048000D40200200D0A0D0A454550524F4DB6C109
:10049000B5BDB5C4D7D6B7FBB4AECEAAA3BA0D0AC4
:1004A000000000002573000094012342704700BF44
:1004B000FEE700BFFEE700BFFEE700BFFEE77047B4
:1004C00070477047704700000CB500200190009005
:1004D0006C48006840F480306A49086000BF694891
:1004E000006800F4003000900198401C01900098D2
:1004F00018B90198B0F5A06FF1D16248006800F416
:10050000003010B10120009001E000200090009820
:10051000012843D15C48006840F010005A49086047
:100520000846006820F0030008600846006840F0B4
:1005300002000860534840685249486008464068D5
:1005400048600846406840F480604860084640685B
:1005500020F47C1048600846406840F4E810486089
:100560000846006840F08070086000BF4548006899
:1005700000F000700028F9D04248406820F00300E5
:10058000404948600846406840F00200486000BFAB
:100590003C48406800F00C000828F9D10CBD10B5AB
:1005A000FFF792FF10BD10B53648006840F001001B
:1005B0003449086008464068344908403149486079
:1005C00008460068324908402E490860084600681D
:1005D00020F4802008600846406820F4FE0048604F
:1005E0004FF41F008860FFF7DAFF4FF000602949E1
:1005F000086010BD10B5002100200022214B5B686F
:1006000003F00C0121B1042906D0082928D107E004
:10061000214B224C236027E01F4B204C236023E01A
:10062000184B5B6803F47010164B5B6803F4803260
:10063000022303EB904022B9194B4343174C23602C
:100640000DE0104B5B6803F4003323B1144B4343BC
:10065000124C236003E0104B4343104C236003E033
:100660000D4B0E4C236000BF00BF064B5B68C3F30D
:1006700003130C4CE15C094B1B68CB40074C236017
:1006800010BD000000100240002002400000FFF8F2
:10069000FFFFF6FE08ED00E000127A00A000002047
:1006A00000093D00A400002008B50121482000F009
:1006B000BBFE2020ADF8000010208DF803000320C1
:1006C0008DF802006946094800F0F2FB2021074836
:1006D00000F09BFC2020ADF800006946044800F0C3
:1006E000E7FB2021024800F090FC08BD000C01400F
:1006F0000018014010B5A02000F017FA08B9012039
:1007000010BD00F05AF90020FAE72DE9F041074644
:100710000E46154600F02EF9A02000F069F900F011
:10072000B2F928B13D2249A1514801F0E7F82FE084
:10073000384600F05DF900F0A6F928B1452243A142
:100740004CA001F0DBF823E000F014F9A12000F048
:100750004FF900F098F928B14F223CA1554801F01B
:10076000CDF815E000240CE000F06DF93055681E5E
:10077000A04202D000F0ADF901E000F0C2F9601C27
:1007800084B2AC42F0DB00F018F90120BDE8F08142
:1007900000F013F90020F9E72DE9F04707468846F5
:1007A00091463E4600243DE01CB106F007000028BB
:1007B00027D100F002F900250AE000F0DBF8A020C4
:1007C00000F016F900F05FF900B904E0681C85B28A
:1007D000B5F57A7FF1DB00BFB5F57A7F05D19522BB
:1007E0001AA1354801F08AF823E0304600F000F9FC
:1007F00000F049F928B19E2214A130A001F07EF842
:1008000017E018F8040000F0F3F800F03CF928B104
:10081000A7220EA139A001F071F80AE0701CC6B23F
:10082000601C84B24C45BFDB00F0C7F80120BDE876
:10083000F08700F0C2F80020F9E701B502E0009867
:10084000401E009000980028F9D108BD2E2E5C486B
:10085000415244574152455C454570726F6D493273
:10086000435C454570726F6D4932432E6300000052
:10087000C03200080D0A44656275673A2066696CEB
:10088000653A5B25735D206C696E653A5B25645D36
:10089000204D6573736167653A526561645F5361AA
:1008A00076654164647265735F6572726F72200D64
:1008B0000A000000343200087C3200080D0A44654A
:1008C0006275673A2066696C653A5B25735D206CDA
:1008D000696E653A5B25645D204D6573736167657C
:1008E0003A57726974655F536176654164647265F5
:1008F00073735F6572726F72200D0A000D0A446592
:100900006275673A2066696C653A5B25735D206C99
:10091000696E653A5B25645D204D6573736167653B
:100920003A57726974655F446174615F6572726F92
:1009300072200D0A00000000002001E0411CC8B236
:100940000A28FBDB704708B50121082000F06CFD88
:1009500014208DF80300C020ADF8000003208DF8AE
:1009600002006946794800F0A3FAC021774800F0F8
:100970004CFB08BD10B57548006820F07040734905
:1009800008600846006840F0E040086080216F4839
:1009900000F03BFB40216D4800F037FBFFF7CCFF38
:1009A00080216A4800F033FBFFF7C6FF402167480B
:1009B00000F02DFBFFF7C0FF10BD10B563480068C5
:1009C00020F07040614908600846006840F0E0404F
:1009D000086080215D4800F01AFB40215B4800F070
:1009E00014FBFFF7A9FF8021584800F00EFB10BD53
:1009F00070B50446002523E004F0800020B180217A
:100A0000524800F002FB03E08021504800F0FFFA5A
:100A1000FFF792FF40214D4800F0F7FAFFF78CFFF7
:100A200040214A4800F0F3FA072D03D180214748BE
:100A300000F0EBFA6006040EFFF77EFF681CC5B2FB
:100A4000082DD9DB70BD70B50024002517E06006C5
:100A5000040E40213D4800F0D8FAFFF76DFF8021D9
:100A60003A4800F0B8FA012801D1601CC4B2402114
:100A7000364800F0CCFAFFF75FFF681CC5B2082DBE
:100A8000E5DB204670BD70B5002580212F4800F0C1
:100A9000BCFAFFF751FF40212C4800F0B6FAFFF7EF
:100AA0004BFF8021294800F096FA012808D1012443
:100AB000681CC5B2FA2D04DD00BFFFF77EFF00E021
:100AC00000244021214800F0A2FAFFF735FF20461C
:100AD00070BD10B580211D4800F099FAFFF72CFF7A
:100AE00040211A4800F091FAFFF726FF40211748ED
:100AF00000F08DFAFFF720FF8021144800F085FAFE
:100B000010BD10B58021114800F07FFAFFF714FFE7
:100B100040210E4800F079FAFFF70EFF40210B4804
:100B200000F075FAFFF708FF10BD70B50446FFF737
:100B30000AFFFFF71FFF2046FFF75AFFFFF7A3FF4B
:100B40000546FFF73AFF284670BD0000000C014043
:100B500010B56FF0040000F02CF92E4800682E4903
:100B6000B0FBF1F02D4908700846007800EB400119
:100B7000C1EBC0104FF6FF7101EAC00028490880A0
:100B800010BD0146254A12784A434FF0E0235A61CE
:100B900000229A611A46126942F001021A6100BFEE
:100BA0004FF0E022106900F001021AB100F4803227
:100BB000002AF5D04FF0E022126922F001024FF036
:100BC000E0231A6100229A6170470146144A128894
:100BD0004A434FF0E0235A6100229A611A46126993
:100BE00042F001021A6100BF4FF0E022106900F0EC
:100BF00001021AB100F48032002AF5D04FF0E02251
:100C0000126922F001024FF0E0231A6100229A617A
:100C100070470000A000002000127A00B4000020FD
:100C2000B600002000BF704700BF284A128802F0BB
:100C30004002002AF9D0C2B2244B1B1D1A80704713
:100C400010B586B00446012144F2040000F0ECFB2C
:100C50004FF40070ADF8140003208DF81600182032
:100C60008DF8170005A91A4800F022F94FF48060AA
:100C7000ADF8140004208DF8170005A9144800F001
:100C800017F925208DF8000003208DF801008DF85C
:100C9000020001208DF80300684600F040F801943E
:100CA0000020ADF80800ADF80A00ADF80C00ADF872
:100CB00010000C20ADF80E0001A9044800F05BFC08
:100CC0000121024800F0E3FC06B010BD00380140ED
:100CD000000801400948804709480047FEE7FEE751
:100CE000FEE7FEE7FEE7FEE7FEE7FEE7FEE7FEE7DC
:100CF00004480549054A064B70470000A70500084F
:100D00003101000858030020580900205805002030
:100D10005805002031490143314A1160704770B5D0
:100D2000002100230F22C47804B32D4C246804F45E
:100D3000E064C4F5E064210AC1F10403CA404478C8
:100D400004FA03F18478144021430901254C067804
:100D5000A155047804F01F050124AC4005786D11FD
:100D6000AD0005F1E025C5F8004109E0047804F084
:100D70001F050124AC401C4D0678761145F826402D
:100D800070BD1A4A0A400243154B1B1F1A60704778
:100D900039B1134A121D12680243114B1B1D1A6010
:100DA00006E00F4A121D126882430D4B1B1D1A608C
:100DB0007047042808D14FF0E021096941F004018F
:100DC0004FF0E022116107E04FF0E021096921F0C6
:100DD00004014FF0E0221161704700000000FA05A5
:100DE0000CED00E000E400E080E100E080FFFF1F88
:100DF00010B50446CC48844208D10121042000F0FB
:100E00002DFB0021042000F029FB46E0C748844266
:100E100008D10121082000F021FB0021082000F06A
:100E20001DFB3AE0C248844208D10121102000F0A5
:100E300015FB0021102000F011FB2EE0BD4884427C
:100E400008D10121202000F009FB0021202000F022
:100E500005FB22E0B848844208D10121402000F07F
:100E6000FDFA0021402000F0F9FA16E0B348844270
:100E700008D10121802000F0F1FA0021802000F04B
:100E8000EDFA0AE0AE48844207D10121801500F056
:100E9000E5FA0021A01500F0E1FA10BD10B501211E
:100EA000084600F0DBFA0021012000F0D7FA10BD5F
:100EB0002DE9F041024600250026002000230024F1
:100EC000002791F803C00CF00F0591F803C00CF057
:100ED000100CBCF1000F03D091F802C04CEA0505DC
:100EE00091F800C0BCF1000F31D0146800202BE055
:100EF0004FF0010C0CFA00F3B1F800C00CEA030645
:100F00009E4220D183004FF00F0C0CFA03F7BC4334
:100F100005FA03FC4CEA040491F803C0BCF1280F65
:100F200006D14FF0010C0CFA00FCC2F814C00AE024
:100F300091F803C0BCF1480F05D14FF0010C0CFA39
:100F400000FCC2F810C0401C0828D1D31460B1F8CE
:100F500000C0BCF1FF0F34DD546800202EE000F12A
:100F6000080C4FF0010808FA0CF3B1F800C00CEAC5
:100F700003069E4221D183004FF00F0C0CFA03F7B9
:100F8000BC4305FA03FC4CEA040491F803C0BCF12D
:100F9000280F05D100F1080C08FA0CF8C2F81480EB
:100FA00091F803C0BCF1480F07D100F1080C4FF0D5
:100FB000010808FA0CF8C2F81080401C0828CED3AB
:100FC0005460BDE8F0814FF6FF710180022181700D
:100FD0000421C17070470246002093680B400BB19A
:100FE000012000E0002070470146886880B2704709
:100FF00002460020D3680B400BB1012000E0002026
:1010000070470146C86880B270470161704741610E
:1010100070470AB1016100E041617047C1607047EB
:101020004FF480320A438261816182618269826900
:10103000704702460020434B18684FF680731840F3
:1010400040EA021008433F4B186070473E49C861B0
:101050007047F0B50A46002300240021002500F067
:101060000046B6F1004F02D1364EF16901E0354E2F
:101070007168C0F3034583B200F44016B6F5401F13
:1010800008D121F070612F4E766826F070662D4FE2
:101090007E6012E000F48016B6F5801F06D10326AC
:1010A00006FA05F4A14341F0706106E0460D3601F1
:1010B00003FA06F6B14341F0706122B1460D3601E4
:1010C00003FA06F6314300F00046B6F1004F02D1B4
:1010D0001C4EF16101E01B4E7160F0BD30B5002285
:1010E0008B071C0F0F2303FA04F2164B08338C10E6
:1010F00053F824309343134C08348D1044F82530B2
:1011000023468C1053F824308C07240F00FA04F483
:1011100023430C4C08348D1044F8253030BD0A4967
:10112000DC3108607047000000080140000C0140FD
:10113000001001400014014000180140001C014053
:10114000002001400000014000002042DF4800680C
:1011500040F00100DD49086008464068DC4908406D
:10116000DA49486008460068DA490840D74908600B
:101170000846006820F4802008600846406820F493
:10118000FE0048604FF41F0088607047CF4909682F
:1011900021F48031CD4A11601146096821F4802183
:1011A0001160B0F5803F03D0B0F5802F0ED106E07E
:1011B000C649096841F48031C44A116007E0C34957
:1011C000096841F4A021C14A116000E000BF00BFDE
:1011D000704710B501460022002300204A11012A61
:1011E00002D1BA4C236806E0022A02D1B74C236A26
:1011F00001E0B64C636A01F01F02012494401C40D8
:101200000CB1012000E0002010BD38B50020009096
:101210000024002500BF3120FFF7DBFF05460098C2
:10122000401C00900098B0F5A06F01D0002DF2D0C6
:101230003120FFF7CEFF08B1012400E00024204652
:1012400038BD01460020A14A106820F0F80040EAAD
:10125000C10010607047A049086070470246002036
:101260009A4B586820F47C1042EA01031843974BCC
:101270005860704798490866704701460020934AB5
:10128000506820F003000843506070478F48406862
:1012900000F00C007047014600208C4A506820F096
:1012A000F00008435060704701460020874A5068AC
:1012B00020F4E06008435060704701460020834AF4
:1012C000506820F4605040EAC1005060704729B176
:1012D0007E4A527A02437D4B5A7204E07B4A527A2C
:1012E00082437A4B5A7270477B49D8310860704705
:1012F00001460020754A506820F440400843506081
:1013000070470021714A20321170704A82F8201013
:10131000012802D004280AD104E001216B4A2032BE
:10132000117005E00521694A2032117000E000BF0C
:1013300000BF70476949086070476449096A014302
:10134000624A11627047654944390860704730B598
:1013500000210022002400235C4D6D6805F00C0183
:1013600021B1042905D0082923D105E05C4D056091
:1013700022E05B4D05601FE0544D6D6805F470126E
:10138000524D6D6805F48034022505EB92421CB97C
:10139000544D554305600BE04C4D6D6805F4003528
:1013A0001DB1504D5543056002E04D4D554305605C
:1013B00002E04B4D056000BF00BF444D6D6805F075
:1013C000F0010909484D6B5C0568DD4045603F4D03
:1013D0006D6805F4E061090A434D6B5C4568DD40CA
:1013E00085603A4D6D6805F46051C90A3E4D6B5CED
:1013F0004568DD40C560354D6D6805F44041890B99
:101400003A4D6B5CC568B5FBF3F5056130BD29B19C
:101410002E4A526902432D4B5A6104E02B4A52690D
:1014200082432A4B5A61704729B1284A9269024384
:10143000264B9A6104E0254A92698243234B9A61C4
:10144000704729B1214AD2690243204BDA6104E096
:101450001E4AD26982431D4BDA61704729B11B4A8B
:10146000D2680243194BDA6004E0184AD26882431A
:10147000164BDA60704729B1144A12690243134BC4
:101480001A6104E0114A12698243104B1A617047D5
:1014900012494039086070470F49C86470470B49CA
:1014A000C87170470948406A40F080700749486237
:1014B000704701460020054A92680A400AB101209F
:1014C00000E0002070470149887270470010024018
:1014D0000000FFF8FFFFF6FE000042428004424297
:1014E00000127A0000093D00BE000020CE0000205E
:1014F00010B50446FB48844209D101218803FFF757
:10150000ADFF00214FF48040FFF7A8FF32E0F6481E
:10151000844209D101214804FFF7ADFF00214FF4B7
:101520000030FFF7A8FF25E0F048844209D10121EF
:101530008804FFF7A0FF00214FF48020FFF79BFFF6
:1015400018E0EB48844209D10121C804FFF793FF5A
:1015500000214FF40020FFF78EFF0BE0E5488442A6
:1015600008D101210805FFF786FF00214FF4801004
:10157000FFF781FF10BD2DE9F04786B005460E4606
:101580000024A24600BFA1460027B08900B100BFD9
:101590002F462C8A4CF6FF700440F08804432C82BE
:1015A000AC894EF6F3100440B08831890843718944
:1015B00008430443AC81AC8A4FF6FF400440B08935
:1015C0000443AC8201A8FFF7C2FEC648874202D19D
:1015D000DDF810A001E0DDF80CA0A88900F40040BF
:1015E00040B10AEBCA0000EB0A1031684900B0FBB9
:1015F000F1F807E00AEBCA0000EB0A103168890035
:10160000B0FBF1F86420B8FBF0F00401200964217C
:1016100001FB1089A88900F4004040B1322000EBA2
:10162000C900B0FBF1F000F00700044308E03220ED
:1016300000EB09106421B0FBF1F000F00F0004434F
:101640002C8106B0BDE8F0874FF4165101600021EF
:101650008180C18001810C214181002181817047FD
:1016600010B502460020108A4FF2FF0318400B8885
:101670004C8823438C882343CC882343184310820F
:1016800010BD0021018041808180C180704721B15F
:10169000828942F40052828104E082894DF6FF7310
:1016A0001A4082817047F0B50346002400260025C9
:1016B000002040F66A17B94200D100BF1846C1F3B6
:1016C000421401F01F06012707FA06F5012C01D18B
:1016D0000C3004E0022C01D1103000E014301AB1BB
:1016E00007682F43076002E00768AF430760F0BD5B
:1016F0001AB1838A0B43838202E0838A8B438382FD
:101700007047028A4FF6F0731A400282028A0A4337
:101710000282704782894FF2FF731A408281828968
:101720000A438281704721B1828942F0020282819C
:1017300004E082894FF6FD731A4082817047028A65
:101740004FF6DF731A400282028A0A430282704710
:1017500021B1028A42F48042028204E0028A4BF6FE
:10176000FF731A4002827047C1F3080282807047FB
:1017700001468888C0F308007047818941F0010163
:1017800081817047028BD2B20283028B42EA01222E
:1017900002837047028B02F47F420283028B0A436A
:1017A0000283704721B1828A42F02002828204E0E3
:1017B000828A4FF6DF731A408282704721B1828A93
:1017C00042F01002828204E0828A4FF6EF731A40E0
:1017D0008282704721B1828A42F00802828204E04C
:1017E000828A4FF6F7731A408282704721B182894C
:1017F00042F40042828103E08289C2F30E028281B8
:10180000704721B1828A42F40062828204E0828AB7
:101810004FF2FF731A4082827047828A4FF6FB7341
:101820001A408282828A0A438282704721B1828A68
:1018300042F00202828204E0828A4FF6FD731A406F
:101840008282704702460020B1F5007F00D100BFC0
:1018500013880B400BB1012000E00020704701F419
:101860000072B2F5007F00D100BFCA43028070470A
:1018700070B50246002400230025002040F66A16B9
:10188000B14200D100BFC1F3421501F01F03012690
:1018900006FA03F3012D02D19689334006E0022DAA
:1018A00002D1168A334001E0968A33400C12012699
:1018B00006FA04F41688344013B10CB1012000E09C
:1018C000002070BD10B50022002340F66A14A1422A
:1018D00000D100BF0A1201249440A3B2DC4304806B
:1018E00010BD0000003801400044004000480040A6
:1018F000004C004000500040704700000FB4044905
:1019000010B503AA029800F001FC10BC5DF814FBAE
:10191000B800002070B5044685690068C10601D58D
:10192000302600E02026C00707D070BDD4E9012191
:1019300030469047206A401C20626D1EF6D570BD6F
:1019400070B5044685690078C00707D170BDD4E939
:10195000012120209047206A401C20626D1EF6D590
:1019600070BD70B50C460546012A05D02878800662
:1019700000D5EA69002302E0012305E05B1C9342E5
:1019800002D2E05C0028F9D1A869E618C01AA86163
:10199000286A184428622846FFF7BCFF04E0D5E90E
:1019A000012114F8010B9047B442F8D32846FFF701
:1019B000C7FF70BD2DE9F041064600241068752967
:1019C000314616A510D0AFF30080002802DA40425D
:1019D00013A507E031688A0701D512A502E049077F
:1019E00004D511A5012401E0AFF3008000210A22F3
:1019F00006F1240709E0B0FBF2FCB0FBF2F302FBB6
:101A00001C00303078541846491C0028F3D1234676
:101A10002A463046BDE8F04100F0FCB80000000066
:101A20002D0000002B0000002000000070B50446CF
:101A30000D4621461068AFF300802188090502D5C4
:101A40000F4A7A4402E00E4A7A440E32002104F131
:101A5000240305E000F00F060009965D5E54491C62
:101A60000028F7D120780023000704D5702D02D07C
:101A700009B1022311322046BDE8704000F0CAB817
:101A80001E1700002DE9F05F894604464FF0000A5A
:101A9000DFF874B1FB44C0F820A02046E168884715
:101AA000002874D0252806D0D4E901219047206A67
:101AB000401C2062F1E700265F462046E168884727
:101AC0002028054607DB312D05D2781910F8200CA7
:101AD00008B10643F1E7B00701D526F00406C4F8C3
:101AE0001CA00027C4F818A02A2D09D0284601F010
:101AF00072F838B304EB8708303DC8F8185019E085
:101B000059F8041B204604EB87029161E16888477D
:101B1000012F054618D1E069002820DA26F02006BA
:101B20001DE0D8F8180000EB800005EB40003038CD
:101B3000C8F818002046E1688847054601F04BF8D0
:101B40000028EED1012F0AD02E2D08D12046E168C1
:101B500088477F1C0546022F46F02006C4DBA0699B
:101B6000002803DA404246F00106A061F00701D0E8
:101B700026F010066C2D0BD0682D09D04C2D39D0D5
:101B80006A2D35D0742D35D07A2D33D016E038E05B
:101B9000E1682F4620468847B842054609D16C2F98
:101BA00026D04FF48060E16806432046884705460A
:101BB00004E06C2F1AD04FF4807006430DB3A5F1EA
:101BC0004100192802D8203546F400664A462946C5
:101BD000204626604E46FEF7E5FA80B101280BD07C
:101BE000F61D26F0070000F1080956E74020E4E75B
:101BF0008020D8E70020D6E706F104094DE7284603
:101C000052E7206ABDE8F09FF41600007047704765
:101C1000704770472DE9F0470D46994692460446B5
:101C200000F124080168880604D5E06921F010015C
:101C3000216000E00120A84201DD471B00E00027F1
:101C4000A1697A1902EB0900081AA0612078C00680
:101C500002D42046FFF75EFE002608E0D4E9012109
:101C60001AF806009047206A401C761C20624E45F8
:101C7000F4DB2078C0060AD52046FFF74BFE06E0CD
:101C8000D4E9012130209047206A401C2062381E90
:101C9000A7F10107F4DC07E0D4E9012118F80500F9
:101CA0009047206A401C2062281EA5F10105F3DC44
:101CB0002046FFF745FE2078000602D50220BDE849
:101CC000F0870120FBE770472DE9FF4F0C461E46C9
:101CD0004FF0FF378BB0D2E90001DDF860800A9049
:101CE0008A46C1F30A5505B93D46002108464FF022
:101CF0000000BAF1000F00F4400005DA00EB8000AC
:101D00004FF4400101EA50004FEA9059B9F1010F38
:101D100000DDB9460A9850EA4A000ED044F6105049
:101D2000A5F2FF3545432F14B8F1000F1ED07542C0
:101D3000291E1EDDC9F100021CE0B8F1010F4FF0B1
:101D4000000001D0302103E0F24305E02154401CA3
:101D5000B042FBDB30460022002121540B99C1F830
:101D60000880C1E900200FB0BDE8F08FBD1B6D1CDD
:101D7000DEE74A4600DA694206A800F07BFA06ABC5
:101D800093E8070003AB83E8070050460A9900F088
:101D900053FB8DE80700A0F500501F380090039812
:101DA000002D09DD42F21F014A46084403A90390B1
:101DB000684600F0B2FD08E0A0F500504A461F3822
:101DC00003A90390684600F0BCFD8DE807000004FD
:101DD000000C03D04FF0FF30410800E01046B8F18E
:101DE000000F03D00022009215461EE0751E05D498
:101DF00000F0A2F9303262556D1EF9D5B3460122CA
:101E0000084302D000227F1C04E02078302801D152
:101E100000227F1E002A099786D01DE0112D07DAC7
:101E200000F08AF9303262556D1C50EA0102F5D19A
:101E3000084302D00098C8B10EE00021681E05E0FA
:101E4000235C625C63542254401E491C8142F7DBD0
:101E5000AB46A81B401E0990002004F80B000B980D
:101E6000099AC0F80880C0E9002B7CE711264FF0E2
:101E7000000859E72DE9F04F88460446D21D22F0AC
:101E8000070191B0D1E90001CDE90A0100F08FFE10
:101E900002460B98C00F01D02D2007E02068810773
:101EA00001D52B2002E0202101EAC000032A09907D
:101EB00001D0072A05DB03464146204600F09AF987
:101EC0000BE12078800601D5E06900E00620B8F13A
:101ED000650F814606D0B8F1660F18D0B8F1670FCC
:101EE00070D131E00020B9F1110F009001DB112316
:101EF00001E009F101030AAA01A90CA8FFF7E4FE19
:101F0000DDE90C70002609F10105834647E0012058
:101F10004B4600904FF000470AAA01A90CA8FFF712
:101F2000D3FEDDE90DB00C995D46002610B909F12C
:101F300001000D18B9EB050003D4C0F1FF3609F11B
:101F40000105A5EB09002BE0B9F1010F01DA4FF013
:101F500001090020B9F1110F0090484601DD11235D
:101F600000E003460AAA01A90CA8FFF7ADFEDDE9CF
:101F70000C704D4600268346207800070AD4AB45F6
:101F800000DA5D4601A8012D04DD411911F8011C9C
:101F9000302907D04F4502DA17F1040F04DA012087
:101FA00082460FE06D1EEEE7002F02DCED1B3E4483
:101FB00003E0781CA84200DD7D1CB81B00F1010A7B
:101FC0004FF000472078000703D4AA4501DB4FF00B
:101FD000FF3A0021B7F1004F0DF143088DF843108F
:101FE00024D002202B23002F01DA7F422D230A2147
:101FF000021EA0F1010000DC5FB197FBF1FC97FB32
:10200000F1F201FB1C7C17460CF1300C08F801CDF5
:10201000EEE7A8F1010003702188090501D54521EB
:1020200000E06521A0F1010800F8011C09980FA942
:10203000A1EB0807FF1D00B10120411901EBEA7077
:10204000A1693844081A401EA0612078C00602D455
:102050002046FFF75FFC099828B1D4E90121904799
:10206000206A401C20622078C00622D52046FFF757
:1020700051FC1EE0002E04DBB34502DD01A8805DAB
:1020800000E03020D4E901219047206A401C206202
:10209000761CAAF101005FEA000A0AD100F048F8B4
:1020A000C0680168405CD4E901219047206A401C67
:1020B0002062281EA5F10105DCDC07E0D4E901213E
:1020C00018F8010B9047206A401C2062381EA7F1C7
:1020D0000107F3DC2046FFF733FC032011B043E691
:1020E00010B5436913B1AFF3008001E0FFF739FC8D
:1020F000012010BD127800F124010A7000224A70FC
:102100000122EDE711684FF0FF32E9E7074B70B5A8
:102110000D467B4400F05BF80446284600F018F9B1
:1021200010B14FF0FF3070BD204670BD13EBFFFFC4
:10213000004870471403002030B5B0F10A024FEA9E
:10214000900E71F100034EEA817EB0EB0E0061EB60
:1021500091014FEA101E4EEA017E10EB0E0041EB9A
:1021600011114FEA102E4EEA016E10EB0E0041EBFA
:1021700011214FEA104E4EEA014E10EB0E0041EBDA
:102180001141401841F100014FEAD00040EA41708E
:102190004FEAD10110EB80054FEA810444EA9074C4
:1021A00044EB01046D1944EB0404521BA3414FF0AE
:1021B000000348BF0A3200D530BD401C41F1000188
:1021C00030BD000001694A1C02610878704700B503
:1021D0008FB0CDE901310021059105497944CDE960
:1021E000031011466846FFF74DFC0FB000BD00001C
:1021F000E5FFFFFF2DE9F0411F4604460326016875
:10220000072A01F4006004DB08B116A505E016A555
:1022100003E008B115A500E015A521F0100020602D
:10222000A069C01EA0610FB1401EA0612046FFF74B
:1022300071FB4FB1D4E9012138469047206A401C18
:102240002062C01C206206E0206AFAE7D4E901217E
:1022500015F8010B9047761EF8D22046FFF770FB69
:10226000BDE8F0814E414E006E616E00494E460061
:10227000696E66002DE9F047814616468AB03348FC
:1022800078440DC88DE80D0030487844801C03ACBC
:102290000DC884E80D0041F69B300844372190FBBF
:1022A000F1F290FBF1F5A5F1800501FB12041B3C56
:1022B00002D56442012000E00020DFF890A08046B3
:1022C0000027FA44AAF1BE0A0DE0E00709D0324621
:1022D000684607EB47010AEB810100F032FB8DE80D
:1022E000070064107F1C002CEFD1184F7F44AC3FD7
:1022F00018E0E80714D007EB04100DF1180A90E875
:102300000E008AE80E00C068F04201D198190890CA
:10231000324606A903A800F014FB03AB83E80700CC
:102320006D10641C002DE4D132466946B8F1000FEF
:1023300003A802D000F0F1FA01E000F002FBC9E9C5
:102340000001C9F808200AB0BDE8F087980F000026
:10235000007B00F08000704700487047F4020020C6
:102360007546FFF7F9FFAE4605006946534620F073
:102370000700854618B020B5FEF7BAFCBDE820403E
:102380004FF000064FF000074FF000084FF0000B31
:1023900021F00701AC46ACE8C009ACE8C009ACE8E4
:1023A000C009ACE8C0098D4670470446AFF3008011
:1023B0002046FDF71AFF00004FF0013C50F8042BB7
:1023C00051F8043B9A4221D1A2EB0C03934313EA48
:1023D000CC1317D150F8042B51F8043B9A4215D175
:1023E000A2EB0C03934313EACC130BD150F8042B4C
:1023F00051F8043B9A4209D1A2EB0C03934313EA30
:10240000CC13DBD04FF00000704700BFD01A01BAE8
:10241000B1FA81F101F0180122FA01F0CB40C1F1CB
:102420002001DBB2C0B2C01A2CFA01F3D11A9143D9
:1024300011EAC311E6D170475FEA400C08BF91F082
:10244000000F4FEA8C234FEAC12243EA51514FEA71
:102450001C5018BF00F5F0404FEA300018BF41F0A3
:1024600000415FEA6C5C00F02980BCF1FF3F08BFCF
:1024700040F080407047130C06BF12044FF0100C60
:102480004FF0000C130E04BF12020CF1080C130FD6
:1024900004BF12010CF1040C930F04BF92000CF165
:1024A000020CD30F04BF52000CF1010C11464FF087
:1024B0000002A0F11F00A0EB0C00704711F0004FCC
:1024C00008BF704731F000413FF4D5AF0B0C06BF99
:1024D00009044FF0100C4FF0000C0B0E04BF090262
:1024E0000CF1080C0B0F04BF09010CF1040C8B0F4D
:1024F00004BF89000CF1020CCB0F04BF49000CF1A2
:10250000010CCCF12003A0EB0C0022FA03F302FA39
:102510000CF241EA030100F10100704720F07F4C0A
:1025200080EA030023F07F47ACEB070303F57C53FD
:1025300000F0004003F1FF032DE980494FEA154BFD
:1025400009B44FEA144325EA0B4E24EA03480FF27C
:10255000042606EB132749083E785FEA320203FBA4
:102560000667C7F5000707FB06F64FEA54374FEA40
:10257000D64606F1020607FB066CCCF1005C4FEA7A
:102580001C472CEA074C07FB06F40CFB06F504EB92
:1025900015464FEA961634BF00204FF000404FEA30
:1025A000D13706FB07FC4FEA1C4C0CFB0BF7D21B88
:1025B00003FB0CF761EB07010CFB0EF7B0EB0740D8
:1025C00072EB17420CFB08F734BFA2EB0742B2EBE9
:1025D000074261EB17414FEA0C444FEA910706FBB3
:1025E00007FC4FEA1C4C0CFB0BF7B0EBC74072EB3F
:1025F000573203FB0CF734BFA2EBC742B2EBC74222
:1026000061EB57310CFB0EF7B0EBC70072EB577262
:102610000CFB08F734BFA2EBC702B2EBC70261EBB9
:102620005771039F4FEA816141EA921104EBCC0498
:102630004FEAD1374FEA826206FB07FC42EA90126A
:102640004FEA80604FEA1C4C0CFB0BF7D21B03FBDC
:102650000CF761EB07010CFB0EF7B0EB074072EBD8
:1026600017420CFB08F734BFA2EB0742B2EB07425C
:1026700061EB17414FEA8C554FEA910704EB9C241C
:1026800006FB07FC4FEA1C4C0CFB0BF7B0EBC740FA
:1026900072EB573203FB0CF734BFA2EBC742B2EB2D
:1026A000C74261EB57310CFB0EF7B0EBC70072EB82
:1026B00057720CFB08F734BFA2EBC702B2EBC7029C
:1026C00061EB577115EB4C254FEA816141EA92119C
:1026D0004FEA82624FEAD13742EA901206FB07FCCA
:1026E00044F100044FEA80604FEA1C4C0CFB0BF7EE
:1026F000D21B03FB0CF761EB07010CFB0EF7B0EBF1
:10270000074072EB17420CFB08F734BFA2EB0742FD
:10271000B2EB074261EB174115EB1C154FEA813113
:1027200041EA92414FEA823242EA90424FEA8030D7
:102730004FEA0C7644F1000448EA03434EEA0B48A2
:102740004FF0000EB2EB080C71EB030724BF62469A
:1027500039464EEB0E0E4FF0000B00185241494126
:102760004BEB0B0BB2EB080C71EB03077BF1000B8F
:1027700024BF624639464EEB0E0E4FF0000B001898
:10278000524149414BEB0B0BB2EB080C71EB0307C9
:102790007BF1000B24BF624639464EEB0E0E51EA28
:1027A000020718BF46F0010616EB0E7655F100023F
:1027B00054F1000103D5BDE88901BDE80088BDE8FA
:1027C0008901BDE80048B619524141EB0101A3F16E
:1027D0000103704780807F7E7D7C7B7A7978777675
:1027E00076757473727171706F6E6E6D6C6C6B6AEE
:1027F0006A6968686766666564646363626161608C
:10280000605F5F5E5E5D5D5C5C5B5B5A5A59595808
:102810005857575656555555545453535252525172
:10282000515050504F4F4F4E4E4D4D4D4C4C4C4BC8
:102830004B4B4A4A4A49494948484847474747460F
:10284000464645454544444444434343434242424B
:1028500042414141002B26D4770021D01CB54FEADC
:10286000370703B44FF010004FF010014FF0000095
:102870000FBCBDE810400BF1010BBBF1010F08BF0D
:102880005FEA170722BF12F1010211F101014FF0B7
:10289000004143F1000300F0004043EA00007047AC
:1028A000F9D35708DAE746EA064613F1400F4FEA34
:1028B00016461FDD13F1200FDFBF16430A46002125
:1028C00020335B42C8D0C3F1200746EA064602FA2D
:1028D00007F74FEA164646EA0706C3F1200722FA31
:1028E00003F201FA07F721FA03F14FF0000342EA7D
:1028F0000702B1E746EA020646EA06464FEA1646EE
:1029000046EA0106BCBF46EA0646360C4FF0000315
:102910004FF000024FF000019EE72DE9C0489346BA
:1029200030B491E8380007C831EA400C48BF34EAB7
:10293000430C03D5FFF7F2FDFFF78CFFF0BCBDE8B9
:1029400000882DE9C048934630B491E8380007C8A4
:1029500010F0804F08BF13F0804F03D100F005F84E
:10296000FFF778FFF0BCBDE8008820F07F4780EAE1
:10297000030023F07F4C07EB0C03A3F57C5300F01E
:102980000040A3F1FE0392F0000F00F0B38095F039
:10299000000F00F077802DE901494FEA11404FEA1E
:1029A000144621EA004800FB06FC24EA064708FB1F
:1029B00006F607FB08F800FB07F718EB06484CEB98
:1029C000164C4FEA124B18EB07484FEA15464CEBF2
:1029D000174022EA0B4E0BFB06FC25EA06470EFBCE
:1029E00006F607FB0EFE0BFB07F71EEB064E4CEB45
:1029F000164C4FF000061EEB074E4CEB174B18EB36
:102A00000B0840F1000018EB0E0B58EB000840F1EA
:102A100000008F1A4FF000013CBFC943661B14BF72
:102A2000B5EB040C00213CBFC943F61B4FEA174429
:102A30004EEA8E0E27EA04454FEA1C4704FB076264
:102A40002CEA074C05FB07F70CFB05F604FB0CFC16
:102A500016EB074642EB174216EB0C4642EB1C42C4
:102A60001BEB060658EB0202414146EA9E0601D5E1
:102A7000BDE80189B619524141EB0101A3F10103FF
:102A8000BDE801894FEA14454FEA114724EA05469B
:102A900021EA074C05FB07F406FB07F70CFB06F1E0
:102AA00005FB0CFC11EB074144EB17444FEA1247BE
:102AB00011EB0C4144EB1C4422EA074C05FB07F2E6
:102AC00006FB07F70CFB06F605FB0CFC16EB0746AE
:102AD00042EB174216EB0C4642EB1C456A1854F1C8
:102AE000000148BF7047B619524141EB0101A3F103
:102AF0000103704795F0000F37D04FEA11424FEABB
:102B0000144721EA024624EA074C02FB07F106FBC0
:102B100007F70CFB06F402FB0CFC14EB074441EB3B
:102B200017414FEA154714EB0C4441EB1C4125EAD1
:102B3000074C02FB07F506FB07F70CFB06F602FB4A
:102B40000CFC16EB074645EB174516EB0C4645EB20
:102B50001C42121951F1000148BF7047B619524189
:102B600041EB0101A3F1010370474FEA14454FEA1D
:102B7000114724EA054621EA074C05FB07F106FB4D
:102B800007F70CFB06F24FF0000605FB0CFC12EBFE
:102B9000074241EB174112EB0C4251EB1C4148BF7D
:102BA0007047921841EB0101A3F1010370474900FE
:102BB00050EAC12018BF04204A0D18BF40F00100A0
:102BC00040F2FF72B2EB515F08BF40F002000128F3
:102BD00008BF0520704730380A2801D2012070470D
:102BE0000020704710B500290AD00878002807D0C7
:102BF00005487844FFF7E0FB002801D0002010BD15
:102C00000248784410BD0000360700002E0700007F
:102C100010B591EA030F48BF83F0004300F1BE8175
:102C2000841A71EB030C05D2121943EB0C03001B41
:102C300061EB0C01DFF824E14FEA1154A4EB135CC3
:102C40001EEA430F18BF9EEA445F73D023EA0E03C7
:102C5000DCF1200E21EA045143F4801332D322FA2E
:102C60000CFE10EB0E0023FA0CFE41EB0E01CCF132
:102C7000200E03FA0EFE10EB0E0051F10001B1F52B
:102C8000801FCCF1200E32D201EB045112FA0EF269
:102C9000BDE8104058BF7047401C38BF5FEA420291
:102CA00018BF7047002814BF20F0010041F1000157
:102CB0004FEA410313F5001F38BF7047A1F1C0412F
:102CC00000F05EB9012A43EB0302ACF1200CDCF109
:102CD0001F0E32BF4FF0000E23FA0CF310EB03006F
:102CE00041EB0451B4EB115FD0D0A1EB045101F5DD
:102CF000801149085FEA300001EB04510ED350F116
:102D0000000038BF12FA0EFE08D1BDE81040C9E736
:102D1000401C38BF5FEA4202CAD1C3E7BDE8104099
:102D20004FEA410313F5001F38BF7047A1F1C041BE
:102D300000F026B99EEA445F08D011EA5E0FBDE8B4
:102D4000104004BF01F0004100207047BDE8104072
:102D500070B500F0C7F800BF64FBBE3E0000E0FFA6
:102D600010F0004248BF4042B0FA80F310FA03F17D
:102D70000AD0C3F11D0303F580634FEA415002EB13
:102D8000035202EBD12170474FF000007047000062
:102D9000DFF848C170B51CEA111E1EBF1CEA1315EE
:102DA0009EEA0C0F95EA0C0F00F06F8081EA030495
:102DB00023EA4C134EEAD47E21EA4C1141F48011EF
:102DC00043F48013AE44A1FB024CA0FB0365AEF1BB
:102DD0007F7E361955EB0C05A1FB034C4CF100032B
:102DE000A0FB021C16EB0C06654153F100030942DF
:102DF00018BF46F0010613F4007F0BD14FEA0331F0
:102E00004FEA0530340341EA155140EA16506FF09D
:102E100003020AE04FEAC3214FEAC520F40241EA67
:102E2000555140EA56506FF0020202EB2E4201EB80
:102E3000025585EACE710AD05FEA440C18BF24F02F
:102E4000004450F1000041F1000120EAD47040F24A
:102E5000FE7C624500D270BDA84214BF4FF0804492
:102E60004FF04044002E08BF0024BEF1806FA8BF81
:102E7000A1F1C041BDE8704080F282804FF00000B7
:102E800001F1C04101F0004170479EEA0C0F0CEACD
:102E9000131518BF95EA0C0F06D04FF0000081EA19
:102EA000030E0EF0004170BD00F01CF88900013ED9
:102EB00000F007B800F009B84FEA430C5FEA5C5C29
:102EC00008D081EA030100F05BB84FEA410C5FEAE9
:102ED0005C5CF6D14FF00000014970470000FF072D
:102EE0000000F87F0EF1020E2EF0030E5EF8046B68
:102EF000364205D4012A43EB030515F5001F12D80D
:102F0000012841EB010C1CF5001F0CD80ED14FEA33
:102F1000D17C15F5001F0CEB4C0C0CF1020C08BF1A
:102F20004CEBD37C04E04FF0080C01E04FEAD37C7B
:102F30000CEB4C0526FA05F606F00706B6F1040C74
:102F400006D20EEB860CBDE870404CF0010C6047D9
:102F5000DFE80CF0090B02024FF000414FF00000D7
:102F6000A1F5002170BD19461046012851EB01045E
:102F700018BFD4F5001484BF002001F0004170BDDB
:102F80000808A0F500114FEA3101704710B591EA29
:102F9000030F48BF83F000433FF542AE841A71EB44
:102FA000030C07D212198CF0004C43EB0C03001BEE
:102FB00061EB0C01DFF8A4E14FEA1154A4EB135CC0
:102FC0001EEA430F18BF9EEA445F00F0B08023EA78
:102FD0006E03524221EA0451C3EB6E0338BF5B1EFD
:102FE000DCF1200E25D322FA0CFE10EB0E0043FA82
:102FF0000CFE41EB0E01CCF1200E03FA0EFE10EB9D
:103000000E0051F10001CCF1200E29D412FA0EF27B
:1030100001EB0451BDE8104058BF7047401C1CBF75
:10302000B2F1004F704700280CBF491C20F001008E
:10303000704712EB020E43EB030218BF4FF0010E74
:103040004EEA4202ACF1200CDCF11E0E54D943FAD8
:103050000CFE10EB0E0051F1FF31CCF11E0ED5D558
:103060000EF1010E12FA0EFE404141EB010101EB9F
:10307000445C5FEA5C5C10D910EBDE7001EB04513C
:1030800038BFBEF1004FBDE8104018BF70470028A0
:103090000CBF491C20F00100704730D24FEAD42CFD
:1030A00011F5001124F400641BD0B1FA81F20B3A3F
:1030B000A41AA41ED2F12003914030FA03F319435D
:1030C000904001EBCC71002C01EB0451BDE81040A5
:1030D000A8BF704701F1C0414FF0000001F000416E
:1030E0007047B0FA80F310FA03F100D110BDE41A72
:1030F000173C4805C90AE4E701EB045110BD49102B
:1031000001EB0451BDE810404FEA300002E04FF0FF
:10311000000170474A0008BF0042F8D0B2F5001F16
:1031200028BF704701F000414FF0000070479EEA51
:10313000445F07D011EA5E0FBDE8104004BF0021D4
:1031400000207047BDE8104070B5FFF7CBFE00BF10
:1031500040DFF63E83F00041104670470000E0FF7C
:10316000FEF788BE30313233343536373839414294
:1031700043444546403058003031323334353637D9
:103180003839616263646566403078000400000885
:10319000000000000000000200010000100000001C
:1031A00002400000000000A00000000005400000F8
:1031B000000000C8000000000C4000000000409C1F
:1031C00000000000194000000020BCBE000000000C
:1031D00034400000BFC91B8E00000004B540000051
:1031E000504BCFD06607E2CF010000006C410000D9
:1031F0003E8251AADFEEA73401000000D942000050
:10320000DCB5A0E23A301F97FFFFFFFFB445000096
:10321000FD25A0C8E9A3C14FFFFFFFFFFF3F00004E
:103220000000008000000000FF3F00000000008060
:10323000000000000D0A44656275673A2066696CFB
:10324000653A5B25735D206C696E653A5B25645D4C
:10325000204D6573736167653A526561645F4465CB
:103260007669636541646472657373526561645F16
:103270006572726F72200D0A000000000D0A44652D
:103280006275673A2066696C653A5B25735D206CF0
:10329000696E653A5B25645D204D65737361676592
:1032A0003A57726974655F44657669636541646421
:1032B000726573735F6572726F72200D0A00000091
:1032C0000D0A44656275673A2066696C653A5B254C
:1032D000735D206C696E653A5B25645D204D657396
:1032E000736167653A526561645F446576696365D9
:1032F00041646472657373577269745F6572726F4B
:1033000072200D0A00000000443300080000002075
:10331000D40000006C01000818340008D40000201C
:1033200084080000880100081C0000004300000021
:10333000F8FFFFFF0C0000000E0000000F0000006F
:103340002E0000000000000000000000000000004F
:10335000000000000000000000000000000000006D
:10336000000000000000000000000000000000005D
:10337000000000000000000000000000000000004D
:10338000000000000000000000000000000000003D
:10339000000000000000000000000000000000002D
:1033A000000000000000000000000000000000001D
:1033B000000000000000000000000000000000000D
:1033C000000000004B65657020666F6F6C69736864
:1033D000206B6565702068756E6765727900000006
:1033E0000000000000A24A040000000000000000ED
:1033F00001020304060708090000000000000000A5
:10340000000000000000010203040102030406079B
:0834100008090204060800008F
:0400000508000131BD
:00000001FF
