:020000040800F2
:100000005018002025080008CD020008CF02000883
:10001000D3020008D7020008DB020008000000003D
:10002000000000000000000000000000DF020008E7
:10003000E102000800000000E3020008E5020008F9
:100040003F0800083F0800083F0800083F08000874
:100050003F0800083F0800083F0800083F08000864
:100060003F0800083F0800083F0800083F08000854
:100070003F0800083F0800083F0800083F08000844
:100080003F0800083F0800083F0800083F08000834
:100090003F0800083F0800083F0800083F08000824
:1000A0003F0800083F0800083F0800083F08000814
:1000B0003F0800083F0800083F0800083F08000804
:1000C0003F0800083F0800083F0800083F080008F4
:1000D0003F080008990700083F0800083F0800088B
:1000E0003F0800083F0800083F0800083F080008D4
:1000F0003F0800083F0800083F0800083F080008C4
:100100003F0800083F0800083F0800083F080008B3
:100110003F0800083F0800083F0800083F080008A3
:100120003F0800083F0800083F0800083F08000893
:1001300000F002F800F06BF80AA090E8000C82448E
:100140008344AAF10107DA4501D100F060F8AFF26B
:10015000090EBAE80F0013F0010F18BFFB1A43F0A5
:1001600001031847E82400000825000010F8013BAF
:100170000A4413F0030408BF10F8014B1D1108BF17
:1001800010F8015B641E05D010F8016B641E01F8C5
:10019000016BF9D1002D15D010F8014B03F00C03C1
:1001A0000C2BA1EB04040ABF10F8013BA4EB831451
:1001B000A4EB032405F1010314F8016B5B1E01F8A5
:1001C000016BF9D5914238BF10F8013BD1D370478C
:1001D0000023002400250026103A28BF78C1FBD850
:1001E000520728BF30C148BF0B607047662902F034
:1001F000E081002070471FB501F0F4FB04000020EF
:10020000002102F049F9E0601FBD10B510BD01F0FA
:1002100001FD1146FFF7EFFF00F008F801F01FFDA8
:1002200003B4FFF7F2FF03BC00F05CFA00F0F0F952
:100230004FF4A06000F016FB4FF4E13000F060FADC
:1002400000F042F900F066F93C2001F0FDF80646A6
:1002500002F03EF9044622460B4618A001F00CF9C4
:100260003C2001F0F6F8064602F032F90446224638
:100270000B4612A001F000F93C2001F0EFF8064611
:1002800002F026F9044622460B460CA001F0F4F8D1
:1002900013E001200B4908600B49C1F894014FF4A9
:1002A000FA7000F0F2F90020064908600649C1F82A
:1002B00094014FF4FA7000F0E8F9EAE7252E36666B
:1002C0000D0A00009481214200002342704700BFC4
:1002D000FEE700BFFEE700BFFEE700BFFEE7704796
:1002E00070477047704700000CB5002001900090E7
:1002F0006C48006840F480306A49086000BF694873
:10030000006800F4003000900198401C01900098B3
:1003100018B90198B0F5A06FF1D16248006800F4F7
:10032000003010B10120009001E000200090009802
:10033000012843D15C48006840F010005A49086029
:100340000846006820F0030008600846006840F096
:1003500002000860534840685249486008464068B7
:1003600048600846406840F480604860084640683D
:1003700020F47C1048600846406840F4E81048606B
:100380000846006840F08070086000BF454800687B
:1003900000F000700028F9D04248406820F00300C7
:1003A000404948600846406840F00200486000BF8D
:1003B0003C48406800F00C000828F9D10CBD10B58D
:1003C000FFF792FF10BD10B53648006840F00100FD
:1003D000344908600846406834490840314948605B
:1003E00008460068324908402E49086008460068FF
:1003F00020F4802008600846406820F4FE00486031
:100400004FF41F008860FFF7DAFF4FF000602949C2
:10041000086010BD10B5002100200022214B5B6850
:1004200003F00C0121B1042906D0082928D107E0E6
:10043000214B224C236027E01F4B204C236023E0FC
:10044000184B5B6803F47010164B5B6803F4803242
:10045000022303EB904022B9194B4343174C23600E
:100460000DE0104B5B6803F4003323B1144B43439E
:10047000124C236003E0104B4343104C236003E015
:100480000D4B0E4C236000BF00BF064B5B68C3F3EF
:1004900003130C4CE15C094B1B68CB40074C2360F9
:1004A00010BD000000100240002002400000FFF8D4
:1004B000FFFFF6FE08ED00E000127A0000000020C9
:1004C00000093D000400002008B50121482000F08B
:1004D00053FD2020ADF8000010208DF8030003200C
:1004E0008DF802006946094800F08AFA2021074881
:1004F00000F033FB2020ADF800006946044800F00E
:100500007FFA2021024800F028FB08BD000C0140C2
:100510000018014008B50121442000F02DFD1C20E9
:10052000ADF8000048208DF803006946354800F01A
:1005300067FA0120ADF8000028208DF80300694615
:10054000314800F05DFA08BD10B5044614B1012031
:100550002E4908702D480078002837D010212948EE
:1005600000F0E1FA78B10821264800F0DCFA50B139
:100570000421244800F0D7FA28B10121224800F0D4
:10058000D2FA012822D10A2000F07FF800201F496A
:10059000087010211B4800F0C6FA08B9012010BDF0
:1005A0000821184800F0BFFA08B90220F7E7042133
:1005B000144800F0B8FA08B90320F0E70121124806
:1005C00000F0B1FA01281BD10420E8E710210D4802
:1005D00000F0A9FA012813D108210A4800F0A3FA73
:1005E00001280DD10421074800F09DFA012807D108
:1005F0000121054800F097FA10B90120034908705D
:100600000020CCE700180140000801401400002041
:1006100010B56FF0040000F074F92E4800682E4900
:10062000B0FBF1F02D4908700846007800EB40015E
:10063000C1EBC0104FF6FF7101EAC00028490880E5
:1006400010BD0146254A12784A434FF0E0235A6113
:1006500000229A611A46126942F001021A6100BF33
:100660004FF0E022106900F001021AB100F480326C
:10067000002AF5D04FF0E022126922F001024FF07B
:10068000E0231A6100229A6170470146144A1288D9
:100690004A434FF0E0235A6100229A611A461269D8
:1006A00042F001021A6100BF4FF0E022106900F031
:1006B00001021AB100F48032002AF5D04FF0E02296
:1006C000126922F001024FF0E0231A6100229A61C0
:1006D000704700000000002000127A001600002081
:1006E0001800002000BF704700BF4A4A128802F07D
:1006F0004002002AF9D0C2B2464B1B1D1A80704737
:1007000010B586B00446012144F2040000F034FC28
:100710004FF40070ADF8140003208DF81600182077
:100720008DF8170005A93C4800F06AF94FF4806085
:10073000ADF8140004208DF8170005A9364800F024
:100740005FF925208DF8000003208DF801008DF859
:10075000020001208DF80300684600F088F801943B
:100760000020ADF80800ADF80A00ADF80C00ADF8B7
:1007700010000C20ADF80E0001A9264800F0A3FCE3
:10078000012240F22551234800F035FD0121214886
:1007900000F025FD06B010BD10B540F225511D48F2
:1007A00000F00EFE10B31B4800F08AFDC4B21B48D7
:1007B000008800F40040C8B91848008800F4804060
:1007C00060B10A2C03D000201449088020E01348AF
:1007D000008840F400401149088019E00D2C06D132
:1007E0000E48008840F480400C49088010E00B4817
:1007F0000088C0F30D000A490C5408480088401CCA
:100800000649088008460088C72801DD00200880C6
:1008100010BD000000380140000801402000002009
:10082000241100200948804709480047FEE7FEE7F9
:10083000FEE7FEE7FEE7FEE7FEE7FEE7FEE7FEE790
:1008400004480549054A064B70470000C7030008E5
:1008500031010008501200205018002050140020D0
:100860005014002031490143314A1160704770B57E
:10087000002100230F22C47804B32D4C246804F413
:10088000E064C4F5E064210AC1F10403CA4044787D
:1008900004FA03F18478144021430901254C0678B9
:1008A000A155047804F01F050124AC4005786D11B2
:1008B000AD0005F1E025C5F8004109E0047804F039
:1008C0001F050124AC401C4D0678761145F82640E2
:1008D00070BD1A4A0A400243154B1B1F1A6070472D
:1008E00039B1134A121D12680243114B1B1D1A60C5
:1008F00006E00F4A121D126882430D4B1B1D1A6041
:100900007047042808D14FF0E021096941F0040143
:100910004FF0E022116107E04FF0E021096921F07A
:1009200004014FF0E0221161704700000000FA0559
:100930000CED00E000E400E080E100E080FFFF1F3C
:1009400010B50446CC48844208D10121042000F0AF
:100950002DFB0021042000F029FB46E0C74884421B
:1009600008D10121082000F021FB0021082000F01F
:100970001DFB3AE0C248844208D10121102000F05A
:1009800015FB0021102000F011FB2EE0BD48844231
:1009900008D10121202000F009FB0021202000F0D7
:1009A00005FB22E0B848844208D10121402000F034
:1009B000FDFA0021402000F0F9FA16E0B348844225
:1009C00008D10121802000F0F1FA0021802000F000
:1009D000EDFA0AE0AE48844207D10121801500F00B
:1009E000E5FA0021A01500F0E1FA10BD10B50121D3
:1009F000084600F0DBFA0021012000F0D7FA10BD14
:100A00002DE9F041024600250026002000230024A5
:100A1000002791F803C00CF00F0591F803C00CF00B
:100A2000100CBCF1000F03D091F802C04CEA050590
:100A300091F800C0BCF1000F31D0146800202BE009
:100A40004FF0010C0CFA00F3B1F800C00CEA0306F9
:100A50009E4220D183004FF00F0C0CFA03F7BC43E9
:100A600005FA03FC4CEA040491F803C0BCF1280F1A
:100A700006D14FF0010C0CFA00FCC2F814C00AE0D9
:100A800091F803C0BCF1480F05D14FF0010C0CFAEE
:100A900000FCC2F810C0401C0828D1D31460B1F883
:100AA00000C0BCF1FF0F34DD546800202EE000F1DF
:100AB000080C4FF0010808FA0CF3B1F800C00CEA7A
:100AC00003069E4221D183004FF00F0C0CFA03F76E
:100AD000BC4305FA03FC4CEA040491F803C0BCF1E2
:100AE000280F05D100F1080C08FA0CF8C2F81480A0
:100AF00091F803C0BCF1480F07D100F1080C4FF08A
:100B0000010808FA0CF8C2F81080401C0828CED35F
:100B10005460BDE8F0814FF6FF71018002218170C1
:100B20000421C17070470246002093680B400BB14E
:100B3000012000E0002070470146886880B27047BD
:100B400002460020D3680B400BB1012000E00020DA
:100B500070470146C86880B27047016170474161C3
:100B600070470AB1016100E041617047C1607047A0
:100B70004FF480320A4382618161826182698269B5
:100B8000704702460020434B18684FF680731840A8
:100B900040EA021008433F4B186070473E49C86165
:100BA0007047F0B50A46002300240021002500F01C
:100BB0000046B6F1004F02D1364EF16901E0354EE4
:100BC0007168C0F3034583B200F44016B6F5401FC8
:100BD00008D121F070612F4E766826F070662D4F97
:100BE0007E6012E000F48016B6F5801F06D1032661
:100BF00006FA05F4A14341F0706106E0460D3601A6
:100C000003FA06F6B14341F0706122B1460D360198
:100C100003FA06F6314300F00046B6F1004F02D168
:100C20001C4EF16101E01B4E7160F0BD30B5002239
:100C30008B071C0F0F2303FA04F2164B08338C109A
:100C400053F824309343134C08348D1044F8253066
:100C500023468C1053F824308C07240F00FA04F438
:100C600023430C4C08348D1044F8253030BD0A491C
:100C7000DC3108607047000000080140000C0140B2
:100C8000001001400014014000180140001C014008
:100C9000002001400000014000002042DF480068C1
:100CA00040F00100DD49086008464068DC49084022
:100CB000DA49486008460068DA490840D7490860C0
:100CC0000846006820F4802008600846406820F448
:100CD000FE0048604FF41F0088607047CF490968E4
:100CE00021F48031CD4A11601146096821F4802138
:100CF0001160B0F5803F03D0B0F5802F0ED106E033
:100D0000C649096841F48031C44A116007E0C3490B
:100D1000096841F4A021C14A116000E000BF00BF92
:100D2000704710B501460022002300204A11012A15
:100D300002D1BA4C236806E0022A02D1B74C236ADA
:100D400001E0B64C636A01F01F02012494401C408C
:100D50000CB1012000E0002010BD38B5002000904B
:100D60000024002500BF3120FFF7DBFF0546009877
:100D7000401C00900098B0F5A06F01D0002DF2D07B
:100D80003120FFF7CEFF08B1012400E00024204607
:100D900038BD01460020A14A106820F0F80040EA62
:100DA000C10010607047A0490860704702460020EB
:100DB0009A4B586820F47C1042EA01031843974B81
:100DC0005860704798490866704701460020934A6A
:100DD000506820F003000843506070478F48406817
:100DE00000F00C007047014600208C4A506820F04B
:100DF000F00008435060704701460020874A506861
:100E000020F4E06008435060704701460020834AA8
:100E1000506820F4605040EAC1005060704729B12A
:100E20007E4A527A02437D4B5A7204E07B4A527AE0
:100E300082437A4B5A7270477B49D83108607047B9
:100E400001460020754A506820F440400843506035
:100E500070470021714A20321170704A82F82010C8
:100E6000012802D004280AD104E001216B4A203273
:100E7000117005E00521694A2032117000E000BFC1
:100E800000BF70476949086070476449096A0143B7
:100E9000624A11627047654944390860704730B54D
:100EA00000210022002400235C4D6D6805F00C0138
:100EB00021B1042905D0082923D105E05C4D056046
:100EC00022E05B4D05601FE0544D6D6805F4701223
:100ED000524D6D6805F48034022505EB92421CB931
:100EE000544D554305600BE04C4D6D6805F40035DD
:100EF0001DB1504D5543056002E04D4D5543056011
:100F000002E04B4D056000BF00BF444D6D6805F029
:100F1000F0010909484D6B5C0568DD4045603F4DB7
:100F20006D6805F4E061090A434D6B5C4568DD407E
:100F300085603A4D6D6805F46051C90A3E4D6B5CA1
:100F40004568DD40C560354D6D6805F44041890B4D
:100F50003A4D6B5CC568B5FBF3F5056130BD29B151
:100F60002E4A526902432D4B5A6104E02B4A5269C2
:100F700082432A4B5A61704729B1284A9269024339
:100F8000264B9A6104E0254A92698243234B9A6179
:100F9000704729B1214AD2690243204BDA6104E04B
:100FA0001E4AD26982431D4BDA61704729B11B4A40
:100FB000D2680243194BDA6004E0184AD2688243CF
:100FC000164BDA60704729B1144A12690243134B79
:100FD0001A6104E0114A12698243104B1A6170478A
:100FE00012494039086070470F49C86470470B497F
:100FF000C87170470948406A40F0807007494862EC
:10100000704701460020054A92680A400AB1012053
:1010100000E00020704701498872704700100240CC
:101020000000FFF8FFFFF6FE00004242800442424B
:1010300000127A0000093D0022000020320000204A
:1010400010B50446FB48844209D101218803FFF70B
:10105000ADFF00214FF48040FFF7A8FF32E0F648D3
:10106000844209D101214804FFF7ADFF00214FF46C
:101070000030FFF7A8FF25E0F048844209D10121A4
:101080008804FFF7A0FF00214FF48020FFF79BFFAB
:1010900018E0EB48844209D10121C804FFF793FF0F
:1010A00000214FF40020FFF78EFF0BE0E54884425B
:1010B00008D101210805FFF786FF00214FF48010B9
:1010C000FFF781FF10BD2DE9F04786B005460E46BB
:1010D0000024A24600BFA1460027B08900B100BF8E
:1010E0002F462C8A4CF6FF700440F08804432C8273
:1010F000AC894EF6F3100440B088318908437189F9
:1011000008430443AC81AC8A4FF6FF400440B089E9
:101110000443AC8201A8FFF7C2FEC648874202D151
:10112000DDF810A001E0DDF80CA0A88900F4004073
:1011300040B10AEBCA0000EB0A1031684900B0FB6D
:10114000F1F807E00AEBCA0000EB0A1031688900E9
:10115000B0FBF1F86420B8FBF0F004012009642131
:1011600001FB1089A88900F4004040B1322000EB57
:10117000C900B0FBF1F000F00700044308E03220A2
:1011800000EB09106421B0FBF1F000F00F00044304
:101190002C8106B0BDE8F0874FF4165101600021A4
:1011A0008180C18001810C214181002181817047B2
:1011B00010B502460020108A4FF2FF0318400B883A
:1011C0004C8823438C882343CC88234318431082C4
:1011D00010BD0021018041808180C180704721B114
:1011E000828942F40052828104E082894DF6FF73C5
:1011F0001A4082817047F0B503460024002600257E
:10120000002040F66A17B94200D100BF1846C1F36A
:10121000421401F01F06012707FA06F5012C01D13F
:101220000C3004E0022C01D1103000E014301AB16F
:1012300007682F43076002E00768AF430760F0BD0F
:101240001AB1838A0B43838202E0838A8B438382B1
:101250007047028A4FF6F0731A400282028A0A43EC
:101260000282704782894FF2FF731A40828182891D
:101270000A438281704721B1828942F00202828151
:1012800004E082894FF6FD731A4082817047028A1A
:101290004FF6DF731A400282028A0A4302827047C5
:1012A00021B1028A42F48042028204E0028A4BF6B3
:1012B000FF731A4002827047C1F3080282807047B0
:1012C00001468888C0F308007047818941F0010118
:1012D00081817047028BD2B20283028B42EA0122E3
:1012E00002837047028B02F47F420283028B0A431F
:1012F0000283704721B1828A42F02002828204E098
:10130000828A4FF6DF731A408282704721B1828A47
:1013100042F01002828204E0828A4FF6EF731A4094
:101320008282704721B1828A42F00802828204E000
:10133000828A4FF6F7731A408282704721B1828900
:1013400042F40042828103E08289C2F30E0282816C
:10135000704721B1828A42F40062828204E0828A6C
:101360004FF2FF731A4082827047828A4FF6FB73F6
:101370001A408282828A0A438282704721B1828A1D
:1013800042F00202828204E0828A4FF6FD731A4024
:101390008282704702460020B1F5007F00D100BF75
:1013A00013880B400BB1012000E00020704701F4CE
:1013B0000072B2F5007F00D100BFCA4302807047BF
:1013C00070B50246002400230025002040F66A166E
:1013D000B14200D100BFC1F3421501F01F03012645
:1013E00006FA03F3012D02D19689334006E0022D5F
:1013F00002D1168A334001E0968A33400C1201264E
:1014000006FA04F41688344013B10CB1012000E050
:10141000002070BD10B50022002340F66A14A142DE
:1014200000D100BF0A1201249440A3B2DC4304801F
:1014300010BD00000038014000440040004800405A
:10144000004C0040005000400146074850F8210081
:1014500070470146054850F821007047014604488E
:1014600050F821007047000038000020DC05002003
:10147000800B0020704700000FB4044910B503AA88
:10148000029800F09DFA10BC5DF814FB1C000020CF
:101490002DE9F0474FF0000A89460446C0F820A025
:1014A0002046E1688847002876D0252806D0D4E970
:1014B00001219047206A401C2062F1E7E168204644
:1014C00000258847C4F81CA006460027C4F818A0C9
:1014D0002A2E09D0304600F0D8FF38B304EB870835
:1014E000303EC8F8186019E059F8041B204604EB98
:1014F00087029161E1688847012F064618D1E069AB
:10150000002820DA25F020051DE0D8F8180000EBAF
:10151000800006EB40003038C8F818002046E1682B
:101520008847064600F0B1FF0028EED1012F0AD00F
:101530002E2E08D12046E16888477F1C0646022FE0
:1015400045F02005C4DBA069002803DA404245F0DD
:101550000105A061E80701D025F01005B6B1A6F19C
:101560004100192802D8203645F400654A46314624
:10157000204625604D46FEF739FE58B1012806D0B9
:10158000ED1D25F0070000F1080989E704E005F1E9
:10159000040985E730468AE7206ABDE8F08770478E
:1015A00070477047704770472DE9FF4F0C461E4645
:1015B0004FF0FF378BB0D2E90001DDF860800A9070
:1015C0008A46C1F30A5505B93D46002108464FF049
:1015D0000000BAF1000F00F4400005DA00EB8000D3
:1015E0004FF4400101EA50004FEA9059B9F1010F60
:1015F00000DDB9460A9850EA4A000ED044F6105071
:10160000A5F2FF3545432F14B8F1000F1ED07542E7
:10161000291E1EDDC9F100021CE0B8F1010F4FF0D8
:10162000000001D0302103E0F24305E02154401CCA
:10163000B042FBDB30460022002121540B99C1F857
:101640000880C1E900200FB0BDE8F08FBD1B6D1C04
:10165000DEE74A4600DA694206A800F065FA06AB02
:1016600093E8070003AB83E8070050460A9900F0AF
:101670003DFB8DE80700A0F500501F38009003984F
:10168000002D09DD42F21F014A46084403A90390D8
:10169000684600F09CFD08E0A0F500504A461F385F
:1016A00003A90390684600F0A6FD8DE8070000043A
:1016B000000C03D04FF0FF30410800E01046B8F1B5
:1016C000000F03D00022009215461EE0751E05D4BF
:1016D00000F08CF9303262556D1EF9D5B346012207
:1016E000084302D000227F1C04E02078302801D17A
:1016F00000227F1E002A099786D01DE0112D07DAEF
:1017000000F074F9303262556D1C50EA0102F5D1D7
:10171000084302D00098C8B10EE00021681E05E021
:10172000235C625C63542254401E491C8142F7DBF7
:10173000AB46A81B401E0990002004F80B000B9834
:10174000099AC0F80880C0E9002B7CE711264FF009
:10175000000859E72DE9F04F88460446D21D22F0D3
:10176000070191B0D1E90001CDE90A0100F079FE4D
:1017700002460B98C00F01D02D2007E0206881079A
:1017800001D52B2002E0202101EAC000032A0990A4
:1017900001D0072A05DB03464146204600F084F9C4
:1017A0000BE12078800601D5E06900E00620B8F161
:1017B000650F814606D0B8F1660F18D0B8F1670FF3
:1017C00070D131E00020B9F1110F009001DB11233D
:1017D00001E009F101030AAA01A90CA8FFF7E4FE40
:1017E000DDE90C70002609F10105834647E0012080
:1017F0004B4600904FF000470AAA01A90CA8FFF73A
:10180000D3FEDDE90DB00C995D46002610B909F153
:1018100001000D18B9EB050003D4C0F1FF3609F142
:101820000105A5EB09002BE0B9F1010F01DA4FF03A
:1018300001090020B9F1110F0090484601DD112384
:1018400000E003460AAA01A90CA8FFF7ADFEDDE9F6
:101850000C704D4600268346207800070AD4AB451D
:1018600000DA5D4601A8012D04DD411911F8011CC3
:10187000302907D04F4502DA17F1040F04DA0120AE
:1018800082460FE06D1EEEE7002F02DCED1B3E44AA
:1018900003E0781CA84200DD7D1CB81B00F1010AA2
:1018A0004FF000472078000703D4AA4501DB4FF032
:1018B000FF3A0021B7F1004F0DF143088DF84310B6
:1018C00024D002202B23002F01DA7F422D230A216E
:1018D000021EA0F1010000DC5FB197FBF1FC97FB59
:1018E000F1F201FB1C7C17460CF1300C08F801CD1D
:1018F000EEE7A8F1010003702188090501D5452113
:1019000000E06521A0F1010800F8011C09980FA969
:10191000A1EB0807FF1D00B10120411901EBEA709E
:10192000A1693844081A401EA0612078C00602D47C
:101930002046AFF30080099828B1D4E901219047EF
:10194000206A401C20622078C00622D52046AFF3D2
:1019500000801EE0002E04DBB34502DD01A8805D9F
:1019600000E03020D4E901219047206A401C206229
:10197000761CAAF101005FEA000A0AD100F032F8F1
:10198000C0680168405CD4E901219047206A401C8E
:101990002062281EA5F10105DCDC07E0D4E9012165
:1019A00018F8010B9047206A401C2062381EA7F1EE
:1019B0000107F3DC2046AFF30080032011B043E6BB
:1019C000074B70B50D467B4400F05BF80446284693
:1019D00000F018F910B14FF0FF3070BD204670BD17
:1019E0001FEDFFFF004870470C12002030B5B0F12A
:1019F0000A024FEA900E71F100034EEA817EB0EBCD
:101A00000E0061EB91014FEA101E4EEA017E10EBD1
:101A10000E0041EB11114FEA102E4EEA016E10EB51
:101A20000E0041EB11214FEA104E4EEA014E10EB31
:101A30000E0041EB1141401841F100014FEAD00086
:101A400040EA41704FEAD10110EB80054FEA810472
:101A500044EA907444EB01046D1944EB0404521BF6
:101A6000A3414FF0000348BF0A3200D530BD401CEF
:101A700041F1000130BD000001694A1C0261087893
:101A8000704700B58FB0CDE90131002105910549BE
:101A90007944CDE9031011466846FFF7F9FC0FB011
:101AA00000BD0000E5FFFFFF2DE9F0411F460446A1
:101AB00003260168072A01F4006004DB08B116A5BB
:101AC00005E016A503E008B115A500E015A521F075
:101AD00010002060A069C01EA0610FB1401EA0616F
:101AE0002046AFF300804FB1D4E90121384690473A
:101AF000206A401C2062C01C206206E0206AFAE7CF
:101B0000D4E9012115F8010B9047761EF8D2204642
:101B1000AFF30080BDE8F0814E414E006E616E0073
:101B2000494E4600696E66002DE9F047814616462B
:101B30008AB0334878440DC88DE80D0030487844A9
:101B4000801C03AC0DC884E80D0041F69B300844AE
:101B5000372190FBF1F290FBF1F5A5F1800501FB37
:101B600012041B3C02D56442012000E00020DFF893
:101B700090A080460027FA44AAF1BE0A0DE0E007D3
:101B800009D03246684607EB47010AEB810100F0B5
:101B900032FB8DE8070064107F1C002CEFD1184F3A
:101BA0007F44AC3F18E0E80714D007EB04100DF1B8
:101BB000180A90E80E008AE80E00C068F04201D1D1
:101BC00098190890324606A903A800F014FB03AB4D
:101BD00083E807006D10641C002DE4D1324669468D
:101BE000B8F1000F03A802D000F0F1FA01E000F014
:101BF00002FBC9E90001C9F808200AB0BDE8F08776
:101C0000FC0A0000007B00F080007047004870472D
:101C1000EC1100207546FFF7F9FFAE460500694656
:101C2000534620F00700854618B020B5FEF708FEA1
:101C3000BDE820404FF000064FF000074FF00008CD
:101C40004FF0000B21F00701AC46ACE8C009ACE84E
:101C5000C009ACE8C009ACE8C0098D46704704462D
:101C6000AFF300802046FEF7DBFA00004FF0013CA6
:101C700050F8042B51F8043B9A4221D1A2EB0C03FB
:101C8000934313EACC1317D150F8042B51F8043BBB
:101C90009A4215D1A2EB0C03934313EACC130BD158
:101CA00050F8042B51F8043B9A4209D1A2EB0C03E3
:101CB000934313EACC13DBD04FF00000704700BF12
:101CC000D01A01BAB1FA81F101F0180122FA01F03B
:101CD000CB40C1F12001DBB2C0B2C01A2CFA01F333
:101CE000D11A914311EAC311E6D170475FEA400C63
:101CF00008BF91F0000F4FEA8C234FEAC12243EA5C
:101D000051514FEA1C5018BF00F5F0404FEA300027
:101D100018BF41F000415FEA6C5C00F02980BCF123
:101D2000FF3F08BF40F080407047130C06BF12040D
:101D30004FF0100C4FF0000C130E04BF12020CF108
:101D4000080C130F04BF12010CF1040C930F04BF15
:101D500092000CF1020CD30F04BF52000CF1010CE5
:101D600011464FF00002A0F11F00A0EB0C007047DD
:101D700011F0004F08BF704731F000413FF4D5AF7C
:101D80000B0C06BF09044FF0100C4FF0000C0B0EAB
:101D900004BF09020CF1080C0B0F04BF09010CF180
:101DA000040C8B0F04BF89000CF1020CCB0F04BF95
:101DB00049000CF1010CCCF12003A0EB0C0022FA3D
:101DC00003F302FA0CF241EA030100F1010070474B
:101DD00020F07F4C80EA030023F07F47ACEB070341
:101DE00003F57C5300F0004003F1FF032DE9804927
:101DF0004FEA154B09B44FEA144325EA0B4E24EA87
:101E000003480FF2042606EB132749083E785FEAE1
:101E1000320203FB0667C7F5000707FB06F64FEA29
:101E200054374FEAD64606F1020607FB066CCCF1A2
:101E3000005C4FEA1C472CEA074C07FB06F40CFB3E
:101E400006F504EB15464FEA961634BF00204FF016
:101E500000404FEAD13706FB07FC4FEA1C4C0CFB55
:101E60000BF7D21B03FB0CF761EB07010CFB0EF722
:101E7000B0EB074072EB17420CFB08F734BFA2EB44
:101E80000742B2EB074261EB17414FEA0C444FEABD
:101E9000910706FB07FC4FEA1C4C0CFB0BF7B0EB61
:101EA000C74072EB573203FB0CF734BFA2EBC742BB
:101EB000B2EBC74261EB57310CFB0EF7B0EBC7003A
:101EC00072EB57720CFB08F734BFA2EBC702B2EB00
:101ED000C70261EB5771039F4FEA816141EA92119A
:101EE00004EBCC044FEAD1374FEA826206FB07FCD1
:101EF00042EA90124FEA80604FEA1C4C0CFB0BF751
:101F0000D21B03FB0CF761EB07010CFB0EF7B0EBE8
:101F1000074072EB17420CFB08F734BFA2EB0742F5
:101F2000B2EB074261EB17414FEA8C554FEA91073C
:101F300004EB9C2406FB07FC4FEA1C4C0CFB0BF744
:101F4000B0EBC74072EB573203FB0CF734BFA2EB88
:101F5000C742B2EBC74261EB57310CFB0EF7B0EB57
:101F6000C70072EB57720CFB08F734BFA2EBC70235
:101F7000B2EBC70261EB577115EB4C254FEA81615B
:101F800041EA92114FEA82624FEAD13742EA901257
:101F900006FB07FC44F100044FEA80604FEA1C4C4A
:101FA0000CFB0BF7D21B03FB0CF761EB07010CFBDF
:101FB0000EF7B0EB074072EB17420CFB08F734BF8B
:101FC000A2EB0742B2EB074261EB174115EB1C1580
:101FD0004FEA813141EA92414FEA823242EA90422D
:101FE0004FEA80304FEA0C7644F1000448EA03439C
:101FF0004EEA0B484FF0000EB2EB080C71EB0307F2
:1020000024BF624639464EEB0E0E4FF0000B00180F
:10201000524149414BEB0B0BB2EB080C71EB030740
:102020007BF1000B24BF624639464EEB0E0E4FF09B
:10203000000B0018524149414BEB0B0BB2EB080C63
:1020400071EB03077BF1000B24BF624639464EEB70
:102050000E0E51EA020718BF46F0010616EB0E7687
:1020600055F1000254F1000103D5BDE88901BDE836
:102070000088BDE88901BDE80048B619524141EB2E
:102080000101A3F10103704780807F7E7D7C7B7A14
:102090007978777676757473727171706F6E6E6D14
:1020A0006C6C6B6A6A6968686766666564646363BA
:1020B00062616160605F5F5E5E5D5D5C5C5B5B5A40
:1020C0005A595958585757565655555554545353AD
:1020D00052525251515050504F4F4F4E4E4D4D4D08
:1020E0004C4C4C4B4B4B4A4A4A4949494848484753
:1020F0004747474646464545454444444443434391
:102100004342424242414141002B26D4770021D034
:102110001CB54FEA370703B44FF010004FF0100121
:102120004FF000000FBCBDE810400BF1010BBBF1FC
:10213000010F08BF5FEA170722BF12F1010211F178
:1021400001014FF0004143F1000300F0004043EA79
:1021500000007047F9D35708DAE746EA064613F15C
:10216000400F4FEA16461FDD13F1200FDFBF164365
:102170000A46002120335B42C8D0C3F1200746EA5B
:10218000064602FA07F74FEA164646EA0706C3F183
:10219000200722FA03F201FA07F721FA03F14FF0C0
:1021A000000342EA0702B1E746EA020646EA0646AB
:1021B0004FEA164646EA0106BCBF46EA0646360C1A
:1021C0004FF000034FF000024FF000019EE72DE9B1
:1021D000C048934630B491E8380007C831EA400C53
:1021E00048BF34EA430C03D5FFF7F2FDFFF78CFF3D
:1021F000F0BCBDE800882DE9C048934630B491E8B2
:10220000380007C810F0804F08BF13F0804F03D18B
:1022100000F005F8FFF778FFF0BCBDE8008820F07B
:102220007F4780EA030023F07F4C07EB0C03A3F504
:102230007C5300F00040A3F1FE0392F0000F00F089
:10224000B38095F0000F00F077802DE901494FEA47
:1022500011404FEA144621EA004800FB06FC24EA3C
:10226000064708FB06F607FB08F800FB07F718EB24
:1022700006484CEB164C4FEA124B18EB07484FEA56
:1022800015464CEB174022EA0B4E0BFB06FC25EAE9
:1022900006470EFB06F607FB0EFE0BFB07F71EEBD1
:1022A000064E4CEB164C4FF000061EEB074E4CEB67
:1022B000174B18EB0B0840F1000018EB0E0B58EB16
:1022C000000840F100008F1A4FF000013CBFC943E5
:1022D000661B14BFB5EB040C00213CBFC943F61BC1
:1022E0004FEA17444EEA8E0E27EA04454FEA1C4790
:1022F00004FB07622CEA074C05FB07F70CFB05F60D
:1023000004FB0CFC16EB074642EB174216EB0C469F
:1023100042EB1C421BEB060658EB0202414146EA27
:102320009E0601D5BDE80189B619524141EB010174
:10233000A3F10103BDE801894FEA14454FEA1147B3
:1023400024EA054621EA074C05FB07F406FB07F7DC
:102350000CFB06F105FB0CFC11EB074144EB1744A9
:102360004FEA124711EB0C4144EB1C4422EA074CA4
:1023700005FB07F206FB07F70CFB06F605FB0CFC5A
:1023800016EB074642EB174216EB0C4642EB1C4598
:102390006A1854F1000148BF7047B619524141EB29
:1023A0000101A3F10103704795F0000F37D04FEA08
:1023B00011424FEA144721EA024624EA074C02FB85
:1023C00007F106FB07F70CFB06F402FB0CFC14EB11
:1023D000074441EB17414FEA154714EB0C4441EB1E
:1023E0001C4125EA074C02FB07F506FB07F70CFB2F
:1023F00006F602FB0CFC16EB074645EB174516EB01
:102400000C4645EB1C42121951F1000148BF7047C0
:10241000B619524141EB0101A3F1010370474FEAA4
:1024200014454FEA114724EA054621EA074C05FB0B
:1024300007F106FB07F70CFB06F24FF0000605FB61
:102440000CFC12EB074241EB174112EB0C4251EB33
:102450001C4148BF7047921841EB0101A3F10103F1
:102460007047490050EAC12018BF04204A0D18BF28
:1024700040F0010040F2FF72B2EB515F08BF40F044
:102480000200012808BF0520704730380A2801D211
:10249000012070470020704710B500290AD0087845
:1024A000002807D005487844FFF7E0FB002801D05A
:1024B000002010BD0248784410BD0000C601000095
:1024C000BE0100000808A0F500114FEA3101704775
:1024D00043004FEAD30C4FEA3C0C43401FBF400778
:1024E0000CF1605113F0FE4F70471CF0006F03D1E8
:1024F00000200CF0004170470CF0004343EA50709C
:1025000010B540EACC0000F00EF800BF00000092C9
:102510004FEA0001FFF7D6BF4FF000414FF0000037
:10252000A1F5002170470EF1020E2EF0030E5EF8A9
:10253000044B244204D44FEA4102B2F17F4F11D838
:102540004FEA4003B3F17F4F0CD80ED14FEAD07C55
:10255000B2F17F4F0CEB4C0C0CF1020C08BF4CEBB2
:10256000D17C04E04FF0080C01E04FEAD17C0CEB89
:102570004C0324FA03F404F00704B4F1040C06D26B
:102580000EEB840CBDE810404CF0010C6047DFE816
:102590000CF0070802024FF00040A0F5800010BDCB
:1025A0000846420018BFD2F1807288BF00F0004098
:1025B00010BDFFF7CFB8000002400000000000A0EF
:1025C0000000000005400000000000C800000000FE
:1025D0000C4000000000409C00000000194000007A
:1025E0000020BCBE0000000034400000BFC91B8EAC
:1025F00000000004B5400000504BCFD06607E2CF8A
:10260000010000006C4100003E8251AADFEEA734B9
:1026100001000000D9420000DCB5A0E23A301F976B
:10262000FFFFFFFFB4450000FD25A0C8E9A3C14F8F
:10263000FFFFFFFFFF3F00000000008000000000E0
:10264000FF3F000000000080000000008826000816
:1026500000000020241100006C010008702F000809
:10266000241100202C070000D00100081C000000ED
:1026700043000000F8FFFFFF0C0000000E00000008
:102680000F0000002E000000500600A24A040001C6
:10269000E00B0102030406070809010001211A6189
:1026A0001E2005020406082E105A803F0AF67F3FBE
:1026B00017D87F3F37A67F3F5B607F3FA3067F3FF2
:1026C000FE987E3F7F177E3F34827D3F1FD97C3F3F
:1026D000611C7C3FE84B7B3FE8677A3F5070793F55
:1026E0005265783FED46773F4415763F68D0743F9A
:1026F0007978733F880D723FB88F703F19FF6E3F36
:10270000EE5B6D5010936B3F16DE693FCD03683F63
:102710005D17663F0919643FE108623F19E75F3FB3
:10272000D0B35D3F4C6F5B3FAC19593F25B3563F6B
:10273000D63B543FF2B3513FBD1B4F3F58734C3F04
:1027400017BB493F0AF3463F761B443FAD34413F38
:10275000C03E3E3F043A3B3FAB26383FF704353F8F
:102760001BD5313F6C972E3F2B4C2B3F7CF3273FE3
:10277000C18D243F1E1B213FF69B1D3F8C101A3F2D
:102780001479163FE0D5123F46270F3F766D0B3F79
:10279000C6A8073F88D9033FF124763F0439F83EA5
:1027A000A25EF03E6171E83E2A72E03E6361D83E6F
:1027B000D53FD03EE50DC83E7DCCBF3E037CB73E45
:1027C0003F1DAF3ED9B0A63E7A379E3EC8B1953E7A
:1027D0004B208D3EED83843E67BA773E8E59663E30
:1027E000E2E6543E6F63433EC8D0313E3C30203E6B
:1027F0005E830E3E7496F93DC712D63DD87EB23D3B
:10280000C2DC8E3D465E563D41F20E3D7FF78E3C6A
:1028100069110812BC1012BD1812BD2012BD28107B
:1028200006BD4D13D6BD3812BD4012BE4812BE5073
:1028300012BE5812BE6012BE6812BE7012BE78126E
:10284000BE8012BE8812BE9012BE9812BEA012BEEA
:10285000A812BEB012BEB812BEC012BEC812BED000
:102860001006BE8271E8BEE012BEE812BE7812BF4A
:10287000F816BF0016BF0816BF1016BF1816BF20E7
:1028800016BF2816BF3016BF3816BF4016BF4816F1
:10289000BF501406BF7D972EBF6016BF6816BF706D
:1028A00016BF7816BF8016BF881406BF861B44BFAC
:1028B0009816BFA01406BF69734CBFB016BFB816F8
:1028C000BFC016BFC816BFD016BFD816BFE016BF10
:1028D000E816BFF016BFF81ABF001ABF081ABF10DB
:1028E0001ABF181ABF201ABF281ABF301ABF381AC9
:1028F000BF401ABF481ABF501ABF581ABF601ABF4C
:10290000681ABF701ABF781ABF801ABF881ABF90A2
:102910001ABF981ABFA01ABFA81ABFB011501B7FC8
:10292000BFC01ABFC816BF67310821102118212067
:10293000212821302138214021482150215821606F
:10294000216821702178218021882190219821A05F
:1029500021A821B021B821C021C821D021D821E04F
:1029600021E821F021F8250025082510251825202B
:1029700019D03530253819D03548255025582560CF
:102980002568257019D03580258816B09025983493
:1029900004069C1DA825B025B825C025C825D0252E
:1029A000D825E025E825F019D03900290829102973
:1029B000181A5C202928293029382940294829500B
:1029C0002958296029681A9F70297829801A7F88D8
:1029D0002990299819D039A81A3CB029B829C029BA
:1029E000C82D3A04380898F98E3C4DF30EE829F0CA
:1029F00029F82D00031EFB08032D100311483C0588
:102A00003E0BD13128032D30032D38032D40032DEB
:102A100048031E6D50032D58032D60032D68032DB0
:102A200070032D78032D80032D88032D90032D989E
:102A3000032DA00319D03DB0032DB8032DC0032DE5
:102A4000C8032DD0032DD8032DE0031EF1E8032D7C
:102A5000F0032DF80315303D08042D10042D180443
:102A60002D20042D28041E2C30042D38042D400464
:102A70002D48042D50042D580419D03D68042D70A4
:102A80000419D03D80042D88041EC590042D98049F
:102A90002DA0042DA8041EE1B0042DB8042DC004FF
:102AA0002DC8042DD0042DD8041E27E0042DE804E1
:102AB0002DF0041E2AF8042D00052D08052D100503
:102AC0002D18052D20052D28052D30052D38052D17
:102AD00040052D48052D50052D58052D60052D6804
:102AE000052D70052D78052D80052D88052D900567
:102AF0002D98052DA0052DA6052D44042D4C042D43
:102B00005404963C6C56746C2D84042D8C04051270
:102B10006C06494B6C96E06C2D6C0505126C061525
:102B20001B6C0615766CD6D66C0615D06C96166C9A
:102B30000655196C0D660C070F18F8180C070E3D9A
:102B4000C50C070E45B00C070E455C0C070E113C7A
:102B50000C071D3C041EBC3C043D54045E3C0C07A9
:102B60002D6C046D0C070E197F0C070E496D0C07B8
:102B70000E1DF10C072D94050E212C0C070ED958B3
:102B80000C070E21680C0719D00D2F0C072D4C08CF
:102B90000E299C0C072DAC080D1E0C071C06E338F3
:102BA000F8BE810C079E820C070E1DB30C070E1990
:102BB0006D0C079E3C0C072DAC09AD0C0729C06DB0
:102BC0000C072D10073CB0CAFD8E3C53090F3DC5C4
:102BD000A9563DE3358F3D6F2DB33DC440D73DB47D
:102BE00076FB3DFBE90F3E6A2F223E118F343E8D6E
:102BF0000B473E8BA8593EA9686C3ED74F7F3E9C41
:102C000030893E3ED0923EC6889C3EEA5BA63EC2DC
:102C10004BB03E475ABA3ED289C43E7FDCCE3ECA54
:102C200054D93E0EF5E33EECBFEE3E24B8F93E3BF0
:102C300070023F151E083F32E70D3F36CD133F07A8
:102C4000D2193F6AF71F3F9A3F263F9FAC2C3FD5D2
:102C500040333FB9FE393FEAE8403F5C02483F015C
:102C60004E4F3F42CF563F98895E3FE080663F4ED1
:102C7000B96E3F653777F00410FD3F8C843F6343A6
:102C8000893F91288E3F4B3F933F658B983F1B11A7
:102C90009E3F24D5A33F9CDCA93F492DB03F8ECD5C
:102CA000B63F8FC4BD3F4C1AC53FBFD7CC3F2107AD
:102CB000D53FD9B3DD3F0BEBE63FAABBF03FD6369D
:102CC000FB3F2E3803409A3F094012BF0F404CC6CD
:102CD0001640D3671E40C7B92640AED62F4098DEB7
:102CE0003940C6F84440A8555140CF315F40F1D932
:102CF0006E4051588040749B8A40568C964034A058
:102D0000A440297BB540400ACA401CB1E340404F73
:102D10000241DA3A184177E1364180CF64413FA65B
:102D200098414117E541002965424A8AAECBB42853
:102D300065C21B17E5C12EA698C16DCF64C16AE1BB
:102D400036C1D23A18C13A4F02C112B1E3C0420AA9
:102D5000CAC0247BB5C02EA0A4C04C8C96C06F9B6B
:102D60008AC04D5880C0E4D96EC0CA315FC0A45536
:102D700051C0C2F844C09812C0A01016C0C3B926F2
:102D8000C0CF671EC047C616C00EBF0FC0963F0912
:102D9000C0D0100EC0CE36FBBFA1BBF0BF03EBE628
:102DA000BFF012BFF816BF0016BF0816BF1016BF3F
:102DB000181406BF412DB0BF2816BF3016BF3816F5
:102DC000BF4016BF48140ABF89288EBF5B4389BF26
:102DD000603D940A1405543777BF7816BF8016BF3C
:102DE000881406BF31CF56BF9816BFA016BFA814CF
:102DF00006BFA8FE39BFB8140ABF8EAC2CBF8A3FED
:102E000026BFD016BFD816BFE016BFE816BFF01613
:102E1000BFF81ABF001ABE081ABE101ABE181ABE92
:102E2000201ABE281ABE301ABE381ABE401ABE4832
:102E30001ABE501ABE581ABE601ABE681806BE489E
:102E4000A859BE781ABE801ABE881ABE901806BE4F
:102E50002E76FBBDA01ABDA81ABDB01ABDB81ABD0A
:102E6000C01ABDC80A22BCD00A19ADD00A295FD049
:102E70001A4CD05A26D09A46D00A118AD00A394B19
:102E8000D01A94D09A51D01A54D01ACFD09A10D0C8
:102E900015F01B3FDFD09A32D019181B40DCD09AB6
:102EA000CBD01AD3D01A9BD05AD7D01A4FD01A826F
:102EB000D01A61D01A38D01A26D01A3BD01A0CD0AA
:102EC0001A4FD01AE2D01A82D01ADFD01A0BD01AB9
:102ED00066D01A4BD0180E6DF29FCC9C2765C28F1E
:102EE00016E5C106D01A73D01A7FD01AE0D01A2B7B
:102EF000D01A0AD01A39D01A05D01A36D01A48D0AA
:102F00001A6DD011701BC0CFD01ABAD011881BC057
:102F1000BED05A94D01ABFD05ACBD01A05D01D9823
:102F2000039BC026D01DB8030B11BFC8D05A85D053
:102F300015281D000E89D05A42D01D28040B11BF40
:102F400037D09A87D05A4BD01D80041BBFC4D00AFB
:102F50001D9FD01A02D01ACBD0D806EDF4E3BEA83C
:102F6000D09AA1D00A1D5FD01AB8D00A1DB4D000E3
:0400000508000131BD
:00000001FF
