:020000040800F2
:1000000050270020E901000839070008E30600082E
:100010003507000875050008550E000800000000AF
:10002000000000000000000000000000ED0B0008D0
:100030007905000800000000AD070008010D000868
:10004000030200080302000803020008030200087C
:10005000030200080302000803020008030200086C
:10006000030200080302000803020008030200085C
:10007000030200080302000803020008030200084C
:10008000030200080302000803020008030200083C
:10009000030200080302000803020008030200082C
:1000A000030200080302000803020008030200081C
:1000B000030200080302000803020008030200080C
:1000C00003020008030200080302000803020008FC
:1000D00003020008030200080302000803020008EC
:1000E00003020008030200080302000803020008DC
:1000F00003020008030200080302000803020008CC
:1001000003020008030200080302000803020008BB
:1001100003020008030200080302000803020008AB
:10012000030200080302000803020008030200089B
:1001300000F002F800F048F80AA090E8000C8244B1
:100140008344AAF10107DA4501D100F03DF8AFF28E
:10015000090EBAE80F0013F0010F18BFFB1A43F0A5
:1001600001031847D0100000F0100000103A24BF1F
:1001700078C878C1FAD8520724BF30C830C144BF0C
:1001800004680C607047000000230024002500264E
:10019000103A28BF78C1FBD8520728BF30C148BFEA
:1001A0000B607047642900F0AB80782900F0E48090
:1001B000632900F07481732900F079810020704771
:1001C0001FB51FBD10B510BD00F0A4F91146FFF713
:1001D000F7FF00F0CBFE00F0C2F903B4FFF7F2FF27
:1001E00003BC00F091FE0000094880470948004721
:1001F000FEE7FEE7FEE7FEE7FEE7FEE7FEE7FEE7D7
:10020000FEE7FEE704480549054A064B7047000033
:10021000050D000831010008502100205027002062
:100220005023002050230020704700000FB40449E1
:1002300010B503AA029800F03FF910BC5DF814FB5A
:100240001C0000202DE9F0410E46044600202062EB
:100250002046E168884730B3252805D0D4E901213C
:100260009047206A401CF2E7E16820460027884753
:10027000050018D0A5F14100192802D820354FF407
:1002800000673246294620462760FFF78BFF40B1C2
:10029000012804D0F61D26F007060836D8E7361DDB
:1002A000D6E72846DAE7206ABDE8F08170B50C464B
:1002B0000546012A05D02878800600D5EA69002382
:1002C00002E0012305E05B1C934202D2E05C0028BF
:1002D000F9D1A869E618C01AA861286A18442862EA
:1002E0002846AFF3008004E0D5E9012114F8010BA2
:1002F0009047B442F8D32846AFF3008070BD0000A9
:100300002DE9F0410646002410687529314616A5EE
:1003100010D0AFF30080002802DA404213A507E0B6
:1003200031688A0701D512A502E0490704D511A555
:10033000012401E0AFF3008000210A2206F1240726
:1003400009E0B0FBF2FCB0FBF2F302FB1C00303022
:1003500078541846491C0028F3D123462A463046D3
:10036000BDE8F04100F038B8000000002D000000AA
:100370002B0000002000000070B504460D46214609
:100380001068AFF300802188090502D50F4A7A442E
:1003900002E00E4A7A440E32002104F1240305E003
:1003A00000F00F060009965D5E54491C0028F7D145
:1003B00020780023000704D5702D02D009B1022354
:1003C00011322046BDE8704000F006B8280E00004B
:1003D00070477047704770472DE9F0470D469946C2
:1003E0009246044600F124080168880604D5E069B5
:1003F00021F01001216000E00120A84201DD471B2F
:1004000000E00027A1697A1902EB0900081AA0612F
:100410002078C00602D42046AFF30080002608E012
:10042000D4E901211AF806009047206A401C761C86
:1004300020624E45F4DB2078C0060AD52046AFF393
:10044000008006E0D4E9012130209047206A401C5A
:100450002062381EA7F10107F4DC07E0D4E901218E
:1004600018F805009047206A401C2062281EA5F15C
:100470000105F3DC2046AFF300802078000602D5AA
:100480000220BDE8F0870120FBE710B5436913B1F6
:10049000AFF3008001E0FFF709FF012010BD1278E3
:1004A00000F124010A7000224A700122EDE7116870
:1004B0004FF0FF32E9E70000074B70B50D467B4473
:1004C00000F011F80446284600F020F810B14FF073
:1004D000FF3070BD204670BD8F0A000001694A1CC4
:1004E00002610878704700B58FB0CDE90131002175
:1004F000059105497944CDE9031011466846FFF797
:10050000A1FE0FB000BD0000E5FFFFFF007B00F083
:1005100080007047754600F029F8AE460500694630
:10052000534620F00700854618B020B5FFF76AFE55
:10053000BDE820404FF000064FF000074FF00008E4
:100540004FF0000B21F00701AC46ACE8C009ACE865
:10055000C009ACE8C009ACE8C0098D467047044644
:10056000AFF300802046FFF738FE000000487047D8
:10057000EC20002000BFFEE77047000010B50446E5
:1005800000F0BCFA00F068FC4FF480510C4800F019
:10059000A4F8202000F040FAC4F3074000F03CFA31
:1005A000C4F3072000F038FAE0B200F035FA4FF457
:1005B0008051034800F093F800F04EFC10BD00009D
:1005C000000C01402DE9F0410246002500260020E4
:1005D00000230024002791F803C00CF00F0591F8C8
:1005E00003C00CF0100CBCF1000F03D091F802C056
:1005F0004CEA050591F800C0BCF1000F31D0146839
:1006000000202BE04FF0010C0CFA00F3B1F800C011
:100610000CEA03069E4220D183004FF00F0C0CFA27
:1006200003F7BC4305FA03FC4CEA040491F803C049
:10063000BCF1280F06D14FF0010C0CFA00FCC2F8F7
:1006400014C00AE091F803C0BCF1480F05D14FF087
:10065000010C0CFA00FCC2F810C0401C0828D1D3D1
:100660001460B1F800C0BCF1FF0F34DD5468002005
:100670002EE000F1080C4FF0010808FA0CF3B1F875
:1006800000C00CEA03069E4221D183004FF00F0CFC
:100690000CFA03F7BC4305FA03FC4CEA040491F896
:1006A00003C0BCF1280F05D100F1080C08FA0CF8C2
:1006B000C2F8148091F803C0BCF1480F07D100F1D3
:1006C000080C4FF0010808FA0CF8C2F81080401C22
:1006D0000828CED35460BDE8F081416170470161C4
:1006E000704700BFFEE7000008B50121482000F078
:1006F0006FF82020ADF8000010208DF803000320D3
:100700008DF8020069460948FFF75CFF2021074881
:10071000FFF7E5FF2020ADF8000069460448FFF729
:1007200051FF20210248FFF7DAFF08BD000C01400D
:100730000018014000BFFEE77047000070B50021BF
:1007400000230F22C47804B3154C246804F4E06439
:10075000C4F5E064210AC1F10403CA40447804FAF4
:1007600003F184781440214309010E4C0678A15509
:10077000047804F01F050124AC4005786D11AD002C
:1007800005F1E025C5F8004109E0047804F01F05F3
:100790000124AC40044D0678761145F8264070BD22
:1007A0000CED00E000E400E080E100E070470000B4
:1007B00029B1064AD2690243044BDA6104E0034AD4
:1007C000D2698243014BDA61704700000010024099
:1007D00029B1064A92690243044B9A6104E0034A34
:1007E00092698243014B9A617047000000100240F9
:1007F00030B500210022002400232D4D6D6805F046
:100800000C0121B1042905D0082923D105E0294D87
:10081000056022E0274D05601FE0254D6D6805F459
:100820007012234D6D6805F48034022505EB924269
:100830001CB9214D554305600BE01D4D6D6805F455
:1008400000351DB11C4D5543056002E0194D55435F
:10085000056002E0174D056000BF00BF144D6D68D4
:1008600005F0F0010909154D6B5C0568DD40456038
:100870000F4D6D6805F4E061090A104D6B5C456829
:10088000DD4085600A4D6D6805F46051C90A0B4D65
:100890006B5C4568DD40C560054D6D6805F4404101
:1008A000890B074D6B5CC568B5FBF3F5056130BD81
:1008B0000010024000127A0000093D0022000020D2
:1008C0003200002070B504460D4616464FF48051A4
:1008D0001048FFF702FF032000F09EF8C4F3074022
:1008E00000F09AF8C4F3072000F096F8E0B200F0A8
:1008F00093F804E0002000F08FF828706D1C3000A1
:10090000A6F10106F6D14FF480510248FFF7E7FE49
:1009100070BD0000000C014021B1028842F040028D
:10092000028004E002884FF6BF731A4002807047CD
:1009300010B500F0F5F800F001F810BD00B585B075
:1009400001218803FFF734FF0020ADF80C00ADF85B
:100950000800ADF80600ADF81000ADF80400ADF8E1
:100960000000ADF80E004FF48270ADF802004FF4B5
:100970000070ADF80A006946044800F019F9012139
:100980000248FFF7C9FF05B000BD00000038004075
:1009900010B54FF480510D48FFF79FFE9F2000F0E7
:1009A0003BF8002000F038F804462402002000F054
:1009B00033F804432402002000F02EF804434FF4DF
:1009C00080510248FFF78BFE204610BD000C01400D
:1009D00010B54FF480510F48FFF77FFE902000F0D4
:1009E0001BF8002000F018F8002000F015F8002097
:1009F00000F012F8002000F00FF804462402002056
:100A000000F00AF804434FF480510248FFF767FEF4
:100A1000204610BD000C014070B504464FF48050D4
:100A20001C4908600DE01B490868411E194A116005
:100A300038B90023752218A11FA0FFF7F7FB00208B
:100A400070BD02212C4800F0A5F80028EBD021460B
:100A5000294800F0ABF84FF480500E4908600DE0D3
:100A60000C490868411E0B4A116038B901238322E2
:100A700009A111A0FFF7DAFB0020E1E701211E48E0
:100A800000F088F80028EBD01B4800F08CF80546F1
:100A9000E8B2D5E7140000202E2E5C48415244579E
:100AA0004152455C535049466C6173685C535049F0
:100AB000466C6173682E63000D0A44656275673A7F
:100AC0002046696C655B25735D20204C696E655B13
:100AD00025645D202053504920B5C8B4FDB3ACCA8D
:100AE000B1216572726F72436F6465203D20256489
:100AF0002020200D0A0000000038004010B54FF4FF
:100B000080510648FFF7E9FD0620FFF785FF4FF407
:100B100080510248FFF7E3FD10BD0000000C0140CA
:100B200008B501210820FFF753FE10208DF80300BF
:100B30000002ADF8000003208DF802006946144859
:100B4000FFF740FD18208DF803004FF40050ADF87A
:100B5000000069460E48FFF735FD04208DF80300BC
:100B60000003ADF8000069460948FFF72BFD182087
:100B70008DF803004FF40040ADF8000069460448CA
:100B8000FFF720FD4FF480510148FFF7A8FD08BD95
:100B9000000C01400246002013890B400BB10120DC
:100BA00000E00020704701468889704781817047C6
:100BB00010B50022028802F441520B884C8823436E
:100BC0008C882343CC8823430C8923434C892343BB
:100BD0008C892343CC8923431A430280838B4FF2B1
:100BE000FF74234083830B8A038210BD704710B5C6
:100BF00000F002F810BD00000CB50020019000903C
:100C00003348006840F480303149086000BF304804
:100C1000006800F4003000900198401C019000989A
:100C200018B90198B0F5A06FF1D12948006800F417
:100C3000003010B10120009001E0002000900098E9
:100C4000012843D12348006840F010002149086082
:100C50000846006820F0030008600846006840F07D
:100C6000020008601A484068194948600846406810
:100C700048600846406840F4806048600846406824
:100C800020F47C1048600846406840F4E810486052
:100C90000846006840F08070086000BF0C4800689B
:100CA00000F000700028F9D00948406820F00300E7
:100CB000074948600846406840F00200486000BFAD
:100CC0000348406800F00C000828F9D10CBD000072
:100CD0000010024000200240042808D14FF0E0211B
:100CE000096941F004014FF0E022116107E04FF083
:100CF000E021096921F004014FF0E0221161704701
:100D00007047000010B51348006840F00100114919
:100D1000086008464068104908400E494860084687
:100D200000680E4908400B4908600846006820F436
:100D3000802008600846406820F4FE0048604FF4B8
:100D40001F008860FFF753FF4FF000600449086000
:100D500010BD0000001002400000FFF8FFFFF6FE8B
:100D600008ED00E021B1828942F40052828104E062
:100D700082894DF6FF731A40828170472DE9F04752
:100D800086B005460E460024A24600BFA1460027B5
:100D9000B08900B100BF2F462C8A4CF6FF7004408A
:100DA000F08804432C82AC894EF6F3100440B088DE
:100DB00031890843718908430443AC81AC8A4FF6FA
:100DC000FF400440B0890443AC8201A8FFF710FD46
:100DD0001F48874202D1DDF810A001E0DDF80CA029
:100DE000A88900F4004040B10AEBCA0000EB0A10E9
:100DF00031684900B0FBF1F807E00AEBCA0000EBEC
:100E00000A1031688900B0FBF1F86420B8FBF0F0FB
:100E100004012009642101FB1089A88900F4004025
:100E200040B1322000EBC900B0FBF1F000F0070048
:100E3000044308E0322000EB09106421B0FBF1F01C
:100E400000F00F0004432C8106B0BDE8F0870000DD
:100E50000038014000BFFEE710B500244FF4805079
:100E60001149086001461148FFF737FC0520FFF7DC
:100E7000D3FD00BF0020FFF7CFFD04460A490868F4
:100E8000411E094A116028B940F20D1208A110A0B4
:100E9000FFF7CCF904F001000028EBD14FF48051AA
:100EA0000248FFF71CFC10BD14000020000C01409C
:100EB0002E2E5C48415244574152455C535049469E
:100EC0006C6173685C535049466C6173682E6300B3
:100ED0000D0A44656275673A2046696C655B257347
:100EE0005D20204C696E655B25645D202053656341
:100EF000746F725F4572617365204552524F522084
:100F000020200D0A0000000000BF704710B56FF0F0
:100F10000400FFF7E1FE0A4800680A49B0FBF1F05F
:100F2000094908700846007800EB4001C1EBC01089
:100F30004FF6FF7101EAC0000449088010BD0000AF
:100F40000000002000127A00180000201A00002083
:100F500000BF054A128802F04002002AF9D0C2B24E
:100F6000014B1B1D1A80704700380140FFF7E0FC61
:100F7000FFF7CCFF4FF4E13000F05EF8FFF7B4FB71
:100F80001848FFF753F9FFF767FF0020FFF7F6FA5D
:100F9000FFF7FEFC0746FFF71BFD8046394612A00F
:100FA000FFF744F9414615A0FFF740F950221949CF
:100FB0004FF48060FFF786FC17A0FFF737F9002495
:100FC0000BE0144951F8240000F086F805462A4643
:100FD0000B4617A0FFF72AF9641C142CF1DB00BFA5
:100FE000FEE70000E41100080D0A204A454445438D
:100FF0005F49443A20307825580000000D0A20440B
:1010000065766963655F49443A20307825580D0A52
:10101000000000009C2000200D0A20B6C1C8A1B528
:10102000C4D0A1CAFDB5C4CAFDBEDDCEAA0D0A005A
:101030002563200D0A00000010B586B0044601218A
:1010400044F20400FFF7C4FB4FF40070ADF8140045
:1010500003208DF8160018208DF8170005A91948EF
:10106000FFF7B0FA4FF48060ADF8140004208DF85B
:10107000170005A91348FFF7A5FA25208DF80000F1
:1010800003208DF801008DF8020001208DF8030087
:101090006846FFF753FB01940020ADF80800ADF857
:1010A0000A00ADF80C00ADF810000C20ADF80E00F1
:1010B00001A90548FFF762FE01210348FFF752FE30
:1010C00006B010BD00080140003801400808A0F536
:1010D00000114FEA3101704743004FEAD30C4FEA49
:1010E0003C0C43401FBF40070CF1605113F0FE4F12
:1010F00070471CF0006F03D100200CF000417047D6
:101100000CF0004343EA507010B540EACC0000F008
:101110000EF800BF000000924FEA0001FFF7D6BFB3
:101120004FF000414FF00000A1F5002170470EF193
:10113000020E2EF0030E5EF8044B244204D44FEA54
:101140004102B2F17F4F11D84FEA4003B3F17F4F14
:101150000CD80ED14FEAD07CB2F17F4F0CEB4C0C87
:101160000CF1020C08BF4CEBD17C04E04FF0080CF2
:1011700001E04FEAD17C0CEB4C0324FA03F404F0B9
:101180000704B4F1040C06D20EEB840CBDE8104049
:101190004CF0010C6047DFE80CF0070802024FF04A
:1011A0000040A0F5800010BD0846420018BFD2F1F3
:1011B000807288BF00F0004010BD303132333435CA
:1011C0003637383941424344454640305800303183
:1011D000323334353637383961626364656640309E
:1011E000780000000D0A20B3CCD0F2D3C94E6F4D69
:1011F000617828CEDEBCAB29CBF9D3D0200D0A20F4
:10120000B9A9B4F3BCD2B2CEBFBC0D0A20D5E2CA94
:10121000C7D2BBB8F6535049464C415348CAB5D122
:10122000E920535049322D2D573235513132380D86
:101230000A200000541200080000002038000000BE
:101240006C0100088C1200083800002018270000EC
:101250008801000800A24A0400000000000000000D
:10126000010203040607080900A0000000000000B6
:101270000000000000000000000001020304010261
:0C12800003040607080902040608000029
:0400000508000131BD
:00000001FF
